:020000040000FA
:1000000068052020D5000000D9000000DB000000BA
:1000100000000000000000000000000000000000E0
:10002000000000000000000000000000DD000000F3
:100030000000000000000000DF000000E100000000
:10004000E30000005D0F0000E3000000E30000009B
:100050002D0A0000E3000000E3000000E3000000C0
:1000600000000000E3000000E300000000000000CA
:1000700000000000CD210000E30000007521000019
:10008000E3000000E3000000D1200000E3000000D6
:10009000E3000000E300000000000000000000009A
:1000A000E3000000E300000000000000000000008A
:1000B000E300000000000000E3000000E300000097
:1000C0000348854600F048FC0048004749280000E6
:1000D0006805202003480047FEE7FEE7FEE7FEE74D
:1000E000FEE7FEE7C1000000D2B201E00270401C52
:1000F000491EFBD270470022F6E710B513460A46A8
:1001000004461946FFF7F0FF204610BDF8B5024639
:100110004A40D40F42004B0052085B089A4202D278
:100120000246084611464A0023D0C30D4A00DDB2FC
:10013000120EAD1A202D35DA49020126490AF605BC
:100140008A19002C00D0524220214F1B1146B94081
:100150002A411018C20D9A4221D0002C17D0012D2F
:1001600008DCDA05801AD20F8019D207DBB200F062
:10017000A4FAF8BDDA05801A012340001B06C01856
:1001800080185A428018CA0F1043490007E04908F6
:10019000C2071143DA05801A80194008801800F060
:1001A00084FAF8BD61000122511A001BF7E7012211
:1001B000D2075140AAE70122D2075040A6E70246E3
:1001C00070B54A40D30FDB0740002DD04A002AD03B
:1001D000010E140E000212020919400A520A841874
:1001E000E50104465443000A120A2E045043A419A0
:1001F0004219200CC543AA18120C0125AD03521C4C
:10020000521912047F39240400D0521C104301D427
:100210004000491EC2B20C06C0092018401C40080C
:10022000802A02D003E0002070BD40084000002971
:1002300000DA0020184370BD70B502464A40D50F61
:1002400040004A00ED0740085208002814D0002A58
:1002500012D0C40DD30D41020120C0055202490A3B
:10026000520AE41A091812187D34914201D3641C11
:1002700000E04900002C01DA002070BD002391420B
:1002800001D3891A0343400849000028F7D1002907
:100290000AD0914202D10121C90705E0914201D261
:1002A000012101E00121C943E005C018401900F017
:1002B000FCF970BDF0B507460846584087B0C00F3E
:1002C000049048000E46590040084908BC1A88416D
:1002D00005D2384631461E4617460B4602465800A0
:1002E000400810434CD0300D039040055900400D9C
:1002F000490D0590401A0290402872DA1803012136
:10030000000B09050843019004980092002805D0CD
:1003100001995242002088410092019002984021A8
:100320000A1A0199009800F08CF905460C466B46B4
:1003300007CB00F0A7F9C0197141039A0E0D0023F5
:10034000D71756401A467A40164344D0049A002ADA
:100350002DD0029A012A039A15DC1205C01A914188
:1003600001263605001C7141D20F059ED20700936D
:10037000019202962A46234600F0E5F907B0F0BD47
:1003800038463146FAE71605224A0F46B218C01A17
:10039000B74101210905001C4F4100187F4111465A
:1003A00018187941E20F10436D19644113E0E20718
:1003B0006D0815436408C2071443039A0126120509
:1003C000C01A91413605001C7141CE0740083043E8
:1003D0004908C01851412A46234600F0A7F9CDE745
:1003E000FFE7049801224000C117121A00238B4135
:1003F00004983146C417381AA141EEE730B40124FD
:10040000E407634030BC55E730B40124E4076140A1
:1004100030BC4FE70000E0FFF0B51FB488B00B9987
:100420000998002448400999C00F490049080991DA
:10043000C0070B990090490049080B910999089849
:10044000A64608431CD00B990A98084318D009986F
:1004500001244000420D4800410D09982405000385
:10046000000B204309900B980003000B20430B90D6
:1004700050181C494018002201901446104605E00F
:10048000002001460DB0F0BD032801DA034600E06C
:1004900003239C46C11A0AAE0AE05F0008ADED5B7B
:1004A0004F00F75B7D430027AA187C41491C5B1E67
:1004B0006145F2DD410004AB5A522104120C0A439B
:1004C000240C401C0828DFDB01980290009970463C
:1004D00001910090059B049A0799069800F033F962
:1004E000D0E700000DFCFFFFC217C10F504010B550
:1004F0004018CA079623002100F0DFF810BD000065
:100500000EB5C217C10F5040CA0740180021054B55
:100510000293019200910A460B4600F014F903B0D1
:1005200000BD000033040000C20F4100400201235F
:10053000400ADB05D207090EC0187F2901DA002026
:100540007047962903DC9623591AC84001E0963972
:100550008840002AF4D040427047000070B5CD0FAB
:100560004A0009030123090B1B0519430B4BED0737
:100570000024520D9A4201DA002070BD074B34333B
:100580009A4203DC9A1A00F06CF802E00449511810
:1005900088402C43F1D0404270BD0000FF030000B2
:1005A000CDFBFFFFC20FD207400040080BD0C10DAA
:1005B0000723DB01C91840020905400A1143C2089C
:1005C000400711437047002001467047CB0FDB07FF
:1005D000490010B5490802460A4307D00A0D07240E
:1005E0000903E401090B121B002A01DC002010BDE5
:1005F000C900440F0C43C100E018D205801800F078
:1006000054F810BD70B50446002903D00020202204
:10061000012310E0002801D00020C043C046C0469E
:100620000DE02546D5408D4205D30D469540641B0F
:100630001D46954040191546521E002DF1DC2146FD
:1006400070BD10B5202A04DB0146203A91400020FD
:1006500010BD914020239C1A0346E340194390406B
:1006600010BD10B5202A04DB0846203AD0400021F6
:1006700010BD0B46D340D0402024A21A914008431D
:10068000194610BD10B5202A06DBCB170846203AC4
:100690001041C1170B4306E00B461341D040202404
:1006A000A21A91400843194610BD002904DA401CE3
:1006B000490001D140084000704770B40024050C87
:1006C00005D11024000402D1002921D01124050EE7
:1006D00001D100020834050F01D10001241D850F4E
:1006E00001D18000A41C002801DB4000641C00290B
:1006F00008D020252E1B0D46F540A14000D0012139
:100700002943084301061B1B000ADB1D02D50020FC
:1007100070BC7047DB05181880180029F8DA401CF7
:100720004900F5D170BC40084000704710B5002B5F
:1007300008DA0024401C614192185B411A4301D140
:100740004008400010BDF0B51FB482B005460C0053
:1007500003D0084602F0A0FB02E002F09DFB20302F
:100760000246009021462846FFF76BFF049B059A3E
:1007700004460F4618431143084314D0184610434B
:100780001BD0009840210A1A18460599FFF769FF07
:1007900005460E46009A05990498FFF752FF084354
:1007A00005D0012004E02046394607B0F0BD002006
:1007B000C11705430E432C43374300990E98630538
:1007C000401A7905E40A00220C43FD0A0A3002D5DA
:1007D00000200146E9E70105101969410C9C0D9DB7
:1007E00000196941FFF7A2FFDFE70000F0B50C46F2
:1007F0005C4085B0E40FE40703944C0000266408D5
:1008000059009446490802460296224321D0624686
:100810000A431ED06200570D4A000E032303550DF4
:10082000012402462C492405781B1B0B360B40186B
:1008300023432643614600901C46501AB44103D31B
:100840000098401C009002E0921800985B4100283C
:1008500003DA0020014605B0F0BD002001210905A2
:100860000746864611E064461D46141BB54106D373
:100870006546521BB341744607430C43A646CD0759
:1008800040084908284392185B4105460D43EAD1C8
:100890001046184313D06046194650407140084333
:1008A00006D06046101AB34106D20122002306E0AA
:1008B00000220123DB0702E00122D24353100098FB
:1008C00074460105381C6141029C039D0019694171
:1008D000FFF72CFFBFE70000FD03000070B54B00E1
:1008E0005B0803430BD04B005C0D0026334665428A
:1008F000B341D417AD1AA34102DB0020014670BDFD
:1009000012053018514170BD10B5002904DB0124D7
:10091000E40740428C412146002B04DB1C460123A6
:10092000DB075242A3418B4200D1824210BD00003E
:1009300010B5002904DB0124E40740428C41214624
:10094000002B04DB1C460123DB075242A3419942E2
:1009500000D1904210BD00001CB509480090094824
:10096000019005460126009C05E0E36807CC33436F
:100970000C3C98471034AC42F7D3FFF7A5FB0000BE
:10098000943E0000B43E0000FEB500231A461B1A38
:100990008A4103DB0020014603B0F0BD4A000D038D
:1009A00001212D0B0905520D0D43D10702D100186D
:1009B0006D41521E5110FF31FF31013100270446B5
:1009C0003E46384600970191024601210020090564
:1009D000FFF747FEC3197141F818324684468E4628
:1009E0004A4161462846611A904104D36046241A60
:1009F000954176461F46241900986D41401C009091
:100A00003428E1DDF91930467041091BA84103D2B1
:100A10000022D243134601E000221346019801054B
:100A2000381C7141FFF782FEB6E7000004480068F9
:100A3000C0B2092802D10348012101707047C046A5
:100A400020100040A0002020B0B50D461749FFF748
:100A5000B6FB0446164800682946FFF7B0FB064D72
:100A60002968FFF753FB1449FFF7A9FB2146FFF75D
:100A70004DFB2860B0BDC04660022020B0B50D46D9
:100A80000A49FFF79CFB0446094800682946FFF71E
:100A900096FB084D2968FFF739FB0749FFF78FFBE5
:100AA0002146FFF733FB2860B0BDC0460AD7A33C00
:100AB000180020206402202048E17A3FB0B50A786F
:100AC000032313400B4A84580B4D2540EB18A924EF
:100AD00024061B198350072212064B681340112469
:100AE000240205599543EA18025100194978016119
:100AF000B0BDC04608080000FCFFFF00811E091FB2
:100B000000BFFCD270470000F0B582B07A4E834A35
:100B10008518884A821801923A4A83180A794C79D2
:100B2000394F002C23D00524E601202A00D1703E45
:100B3000002A00D188269C683C4034439C60DC68D5
:100B40003C403443DC60AC686D4E3440AC60EC68D3
:100B50003440EC600024019EB460F4608F24E443D0
:100B60009E6926409E61DE692640DE61624E8019E4
:100B70008E790C68202A009208D0191D002A15D100
:100B8000641E44601A683A40882415E0611E416082
:100B9000196839401D4A1143196059683940114399
:100BA000596001214C071A4F014607E06208426074
:100BB0001A683A400524E40122431A600A683A4060
:100BC00022430A6029684E4A114029606968114031
:100BD00069600021019A116051608F21C9431A692F
:100BE0000A401A615A690A405A6100990E43BD21B0
:100BF00031400268074B1340C918891C016002B0DC
:100C0000F0BDC0467018000024F93FF00104000058
:100C1000FFFFFFCF4000FFCF70B5374A82184B6807
:100C200053603E4BC3180878222857D8840001A58A
:100C30002C59A746D30C0000DD0C0000D30C00009B
:100C4000DD0C0000DD0C0000DD0C0000DD0C000000
:100C5000DD0C0000DD0C0000DD0C0000DD0C0000F0
:100C6000DD0C0000DD0C0000DD0C0000DD0C0000E0
:100C7000DD0C0000C10C0000DD0C0000C10C000008
:100C8000DD0C0000DD0C0000DD0C0000DD0C0000C0
:100C9000DD0C0000DD0C0000DD0C0000DD0C0000B0
:100CA000DD0C0000DD0C0000DD0C0000DD0C0000A0
:100CB000DD0C0000C10C0000DD0C0000C10C0000C8
:100CC000032424071568A543012464072C19146024
:100CD00004E0032424071568A54315600C69D4605B
:100CE000CC68064D25401C68054E264074191C60D2
:100CF000097A0143116070BD041800007777020083
:100D00008888FDFF10B507239B04194092008018C6
:100D1000024A84589C436118815010BD301800006D
:100D200010B5029CA400001911431943014A8150D7
:100D300010BDC0465018000092008018014A815032
:100D40007047C0461018000010B501221203831826
:100D50000C789C604B7883508978014A815010BD93
:100D60000C110000B0B51122120283580124A343D4
:100D700083508B780C881C438B882343094C1C4080
:100D80008358094D1D402B1983508B79CC791C4316
:100D9000097A21437E231940801842689A435118EA
:100DA0004160B0BD18670000E798FDFF10B5012253
:100DB000120383180C789C604978815010BD0000A4
:100DC000F0B563480188EB22D24316460B4601E09A
:100DD000361D13D08719F6243D5B9BB2AB4204D974
:100DE000F8257F5BBB42F3D804E02B46F8257F5BF8
:100DF000BB42EDD83B46EBE7121D0ED08618375BA1
:100E000089B2B94203D2765BB142F5D303E03946E9
:100E1000765BB142F0D33146EEE7C9184A080023A9
:100E20000F2103E0891C1B1DD42B25D0C418258B52
:100E300095420ED9658B95420BD9A58B954208D961
:100E4000E58B954205D2258C954202D2658C954260
:100E50006BD3658B9542E5D9A58B9542E2D9E58B9D
:100E60009542DFD9258C9542DCD2658C9542D9D24A
:100E7000A48C9442D6D200E07621D2306E2301E0D9
:100E80001B1F0838C48894420ED2048994420BD2A6
:100E90004489944208D28489944205D9C4899442F1
:100EA00002D9048A944245D8848894420ED2C488D8
:100EB00094420BD20489944208D24489944205D9C1
:100EC0008489944202D9C489944230D84488944297
:100ED0000ED2848894420BD2C488944208D20489EA
:100EE000944205D94489944202D98489944220D8F5
:100EF0005C1F062C13D304889442C1D244889442C8
:100F0000BED284889442BBD2C4889442B8D90489A2
:100F10009442B5D944899442B2D9DB1E0AE0052037
:100F2000421A0C2A0ADC002209E0491EA5E75B1ED2
:100F300000E09B1E98B2421A0C2AF4DD0122054BF8
:100F40001A604018C0B2400803490870F0BDC0469E
:100F5000600120200401202009012020F0B5872015
:100F6000C1031E480246103A126813460B401C4C3F
:100F700023600123DD03D4031A4C09D42A4213D081
:100F80001E042768184D2D6837420AD16D1C09E0F0
:100F90002768154E36682F4201D1751E02E0751C78
:100FA00000E06D1E104E35609D05960309D42A425F
:100FB0000FD05B0424680D4A12681C4206D0521EF2
:100FC00005E02368094A12682B42F8D0521C074BEF
:100FD0001A6002680A430260F0BDC04648100A4029
:100FE000E003202080130A40480120204C012020EB
:100FF000F0B58BB0012818D100F08CFD9348006843
:101000008C4CE0640020934D285EFFF76DFA20655C
:101010000426A85FFFF768FA60658F48805FFFF7D6
:1010200063FA844988650BB0F0BDD025432128467A
:1010300000F014F904024421284600F00FF92618A4
:101040003046FFF751FA04467949FFF75FF801226D
:10105000D1030A918E4200D82046D107069004465B
:1010600009914C404521284600F0F8F807904621A8
:10107000284600F0F3F805904721284600F0EEF8E6
:1010800004904821284600F0E9F803903B212846C7
:1010900000F0E4F802903C21284600F0DFF80190CF
:1010A0003D21284600F0DAF806463E21284600F0A9
:1010B000D5F807463F21284600F0D0F80890402197
:1010C000284600F0CBF805465A4804653002C4199A
:1010D0002046FFF709FA07465549FFF717F8064675
:1010E0000A98844200D83E460898000244192046D7
:1010F000FFF7FAF907464E49FFF708F8054630466C
:10110000FFF750FA00900E460A98844200D83D46F8
:1011100008952846FFF746FA07460C4600983146E0
:101120003A46234602F06EFA434A444BFFF774F9FD
:10113000FFF74CFA009002980002019945182846E2
:10114000FFF7D2F906463A49FEF7E0FF0A998D42C9
:1011500000D83046FFF726FA3A46234602F052FA04
:10116000354A364BFFF758F9FFF730FA02900498EA
:101170000002039945182846FFF7B6F904462C49A2
:10118000FEF7C4FF01460A98854200D82146049123
:101190000698FFF707FA2A4F2A4E3A463346FFF7DA
:1011A0003BF9FFF713FA06900798000205994418D7
:1011B0002046FFF799F905461D49FEF7A7FF0A9952
:1011C0008C4200D82846FFF7EDF93A463346FFF740
:1011D00023F9FFF7FBF906461B4800780328099C12
:1011E0000DD0022819D10098069900F013FB604039
:1011F000164908600298314600F09CFB0AE000980E
:101200000699FFF721FC60401049086002983146BA
:10121000FFF734FC60400E490860064904984865B1
:101220000A480068C8640898024988650BB0F0BD98
:10123000000080C704012020775AF01ADCA54C403A
:10124000391F83F33138AF3F2C002020BC00202011
:10125000C0002020C8002020CE002020F0B583B0A0
:1012600000910190C948812102910160C84F022676
:101270003E603E6401253D603E613E60052420469F
:1012800001F00EF93E61204601F00AF93D61019836
:1012900000F0DAF800F07EF9009800F0D5F800F0E0
:1012A00079F90298B94908603E603E643D603E614C
:1012B0003E60204601F0F4F83E61204601F0F0F86F
:1012C0003D610198401CC0B200F0BEF800F062F928
:1012D000002000F017F801900298AC4908603E60C9
:1012E0003E643D613E61204601F0DAF83D602046F3
:1012F00001F0D6F83E60204601F0D2F8019803B024
:10130000F0BDC046F0B589B00390F649F6480860D4
:10131000F64E012737610525284601F0C1F83760F0
:10132000F34C20680890284601F0BAF83761284647
:1013300001F0B6F8376020680790284601F0B0F851
:101340003761284601F0ACF83760206806902846DF
:1013500001F0A6F83761284601F0A2F8376020684E
:101360000590284601F09CF83761284601F098F86E
:10137000376020680490284601F092F837612846CB
:1013800001F08EF8376020680290284601F088F856
:101390003761284601F084F83760206801902846BC
:1013A00001F07EF83761284601F07AF8376020684E
:1013B0000090284601F074F8039800280AD0812094
:1013C000C849086002203060306437613046103010
:1013D00003960AE037618120C2490860022030602C
:1013E00030643046103003903046022505600524F5
:1013F000204601F055F83760204601F051F837617A
:1014000003980560079A2A40089840000421084084
:1014100010188000069A52000A408018059A2A4047
:1014200010188000049A52000A408018029929403E
:101430000818400001992940081800998907C90F28
:101440000818C0B209B0F0BDF0B583B0EF4A8121F1
:101450001160EF4C02212160029121640127276174
:10146000019040B2264610360028304600DA204669
:10147000029901600525284601F012F827602846E8
:1014800001F00EF82761284601F00AF8019840069D
:10149000304600D5204602990160284601F000F848
:1014A0002760284600F0FCFF2761284600F0F8FF7F
:1014B00001988006304600D52046029901602846F2
:1014C00000F0EEFF2760284600F0EAFF276128467B
:1014D00000F0E6FF0198C006304600D5204602998C
:1014E0000160284600F0DCFF2760284600F0D8FFA6
:1014F0002761284600F0D4FF01980007304600D548
:10150000204602990160284600F0CAFF276028465D
:1015100000F0C6FF2761284600F0C2FF019840078F
:10152000304600D5204602990160284600F0B8FFF9
:101530002760284600F0B4FF2761284600F0B0FF7E
:1015400001988007304600D5204602990160284660
:1015500000F0A6FF2760284600F0A2FF276128467A
:1015600000F09EFF0198C00700D026460298306028
:10157000284600F095FF2760284600F091FF27617C
:10158000284600F08DFF03B0F0BDC0460880424001
:1015900090120A40F0B581B09C49534808609C4EB7
:1015A00002273760052000F07BFF012434602046CD
:1015B00000F076FF4E4D2868800777D5052000F0B3
:1015C0006FFF2868800771D5052000F069FF286843
:1015D00080076BD5052000F063FF2868800765D57C
:1015E000052000F05DFF286880075FD5052000F02A
:1015F00057FF2868800759D5052000F051FF28685B
:10160000800753D5052000F04BFF286880074DD593
:10161000052000F045FF2868800747D5052000F029
:101620003FFF2868800741D5052000F039FF286872
:1016300080073BD5052000F033FF2868800735D5AB
:10164000052000F02DFF286880072FD5052000F029
:1016500027FF2868800729D5052000F021FF28688A
:10166000800723D5052000F01BFF286880071DD5C3
:10167000052000F015FF2868800717D5052000F029
:101680000FFF2868800711D5052000F009FF2868A2
:1016900080070BD5052000F003FF2868800705D5DB
:1016A000052000F0FDFE2868800703D43461204641
:1016B00001B0F0BD8120554908603760376434615E
:1016C00037610525284600F0EBFE3460284600F01F
:1016D000E7FE3760284600F0E3FE0024204601B014
:1016E000F0BDC046088042408100040090120A40CC
:1016F00080130A40F0B583B0019317460C460546A7
:10170000FFF7ACFD01263146B940019A002A01D00D
:10171000084300E0884302AB187028462146324651
:1017200000F028F8304603B0F0BDF0B581B00C46AB
:1017300005460720801A0821C91A069E8E40F6B277
:10174000C640FF2778009040991AC91DCF40074333
:1017500028462146FFF782FD384030436B4618701B
:10176000012628462146324600F004F8304601B0F2
:10177000F0BD0000F0B587B01D46164603910290FB
:101780002248812104910160214F02243C603C6485
:101790000120069038603C613C600520019000F01B
:1017A0007FFE05943C61019800F07AFE069838614E
:1017B0000298FFF749FEFFF7EDFE0398FFF744FE9E
:1017C000FFF7E8FE002E08D02878FFF73DFEFFF770
:1017D000E1FE761E6D1C002EF6D10C4804990160C6
:1017E0000B4C059F27602764069E2661276105250F
:1017F000284600F055FE2660284600F051FE27607E
:10180000284600F04DFE304607B0F0BD088042404B
:1018100090120A40F0B587B0049105908D49886810
:101820000390C9680291FEF771FC01468A48FEF7F1
:10183000BEFC8A4E376839460097FEF7C0FC014669
:101840007068FEF763FC04463F2001062046FEF761
:101850005DFC054620462946FEF7EEFC0690214633
:10186000FEF7ADFC01462046FEF7A1FC70600120AA
:10187000C107B068019041403846FEF7A0FC07461A
:101880000299FEF743FC06462946FEF7D5FC0546BD
:101890002146FEF794FC01463046FEF788FC6D4E6B
:1018A000F06038460399FEF731FC0446069821465D
:1018B000FEF785FC01462046FEF779FCB0606849DA
:1018C000009F3846FEF77BFC01460198FEF71EFCA0
:1018D000064628462146FEF772FC01463046FEF7D2
:1018E00066FC5E4988605B4E746804982146FEF78A
:1018F0005EFC3946FEF763FC01463068FEF706FCE5
:10190000064605983146FEF752FC074628463946FA
:10191000FEF755FC2146FEF7F9FB4E494860069854
:101920003946FEF74CFC3146FEF7F0FB49490860AA
:1019300007B0F0BDF0B587B00491059045498869BE
:101940000390C9690291FEF7E1FB01464248FEF7A8
:101950002EFC424E376839460097FEF730FC0146B0
:10196000F068FEF7D3FB04463F2001062046FEF751
:10197000CDFB054620462946FEF75EFC0690214633
:10198000FEF71DFC01462046FEF711FCF060012029
:10199000C1073069019041403846FEF710FC074608
:1019A0000299FEF7B3FB06462946FEF745FC0546BD
:1019B0002146FEF704FC01463046FEF7F8FB254EB3
:1019C000F06138460399FEF7A1FB044606982146CC
:1019D000FEF7F5FB01462046FEF7E9FBB061204922
:1019E000009F3846FEF7EBFB01460198FEF78EFBA1
:1019F000064628462146FEF7E2FB01463046FEF742
:101A0000D6FB16490861134E746904982146FEF707
:101A1000CEFB3946FEF7D3FB01463069FEF776FB75
:101A2000064605983146FEF7C2FB0746284639466A
:101A3000FEF7C5FB2146FEF769FB0649486106989B
:101A40003946FEF7BCFB3146FEF760FB01490861F1
:101A500007B0F0BDE40020206F12833A1800202068
:101A6000A69B443BB0B50446104D032805D9084653
:101A700000F0F2FC032C09D9B0BDA0000A4A1058AE
:101A80002860084600F0E8FC032CF5D8A0000649C1
:101A900008582861B0BDC046032804D88000024918
:101AA0000858024908607047F03D000090320A4033
:101AB000F0B583B002270097D0246B210291032553
:101AC00020463A462B46FFF730FE00951B210426A0
:101AD000204632463B46FFF728FE002500951C2194
:101AE000204632463B46FFF720FE0622204602995A
:101AF0002B46FFF7FFFD6A21052220462B46FFF704
:101B0000F9FD3721012220462B46FFF7F3FD03B0F4
:101B1000F0BD0000F0B58FB00DA80190694C0094A5
:101B2000204610302146163109AA0EAB00F0DCFC2D
:101B30002088C00500D4C2E00998FEF7D5FC0690C5
:101B40000A98FEF7D1FC064603900B98FEF7CCFCF2
:101B500005906121CD0529460895FEF730FB074623
:101B600004900C98FEF7C0FC2946FEF728FB0546BA
:101B700007903120010630460E46FEF720FB29462D
:101B8000FEF71DFB044606983146FEF718FB054696
:101B90003946FEF714FB2146FEF709FBFEF702FD6E
:101BA00001F0E8FA484A494BFEF736FCFEF70EFD15
:101BB0004449486003980899FEF701FB04460598DC
:101BC0003146FEF7FCFA07460799FEF7F8FA064693
:101BD00028462146FEF7F3FA01463046FEF796FA0C
:101BE000FEF7E0FC03900E4620462146FEF7E7FA9A
:101BF00005900146FEF78AFA01467F20C005FEF7F0
:101C0000D6FA05463846049F3946FEF7D8FA01460B
:101C10002846FEF7CCFAFEF7C5FC02460B460398B1
:101C2000314601F0EFFC284A284BFEF7F5FBFEF7A2
:101C3000CDFC2449886006980899FEF7C0FA06464C
:101C400038463D462146FEF7BAFA04463046079F1D
:101C50003946FEF7B4FA01462046FEF757FA014628
:101C6000FEF754FAFEF79EFC0446089130463146D2
:101C7000FEF7A5FA064638463946FEF7A0FA0746AB
:101C800028462946FEF79BFA3946FEF73FFA0746F3
:101C900030460599FEF73AFA3946FEF788FAFEF71C
:101CA00081FC02460B462046089901F0ABFC064A2F
:101CB000064BFEF7B1FBFEF789FC0249C8600FB086
:101CC000F0BDC046B80020206666666666A64C4039
:101CD00010B50124A0070F49FEF7F0FE0E48416839
:101CE0000E4A0A4061045118416081680C4A0A405A
:101CF00082600C4900220A601821416121020A4ACF
:101D0000136A0B43136213680B431360016821438A
:101D1000016010BD003E000000110040FEFFECFF1E
:101D2000F8FFE0E08011004028100040B0B52549E0
:101D300084220A642448102303600A63022202609A
:101D400082230B65214A541C4C658B65CC65204B66
:101D50001A6481245C609C601C60CC629C649C65FD
:101D6000CC664A64DA611B4D1D665C665C645A6130
:101D70001A619A619A630C604C60D249164A0A61F2
:101D800003230B60D21C0A6401218A07134B1C68D1
:101D900014431C601A69124C14431C618722D2033D
:101DA000104B1C6A14431C621C6814431C600246DE
:101DB000303A0D4B1360036088020C490A680243F5
:101DC0000A60B0BD04804240D0320A408100040065
:101DD00084804240810001000030000290130A40DC
:101DE0000510000028100A400108C10CA0330A4069
:101DF00070B582B0B44C19492046FEF7A5FF1849CA
:101E00002046FEF781FE00250095204629462A46F9
:101E10002B46FEF785FF204629462A46FEF772FF2D
:101E2000204629462A46FEF787FF012600962046CF
:101E300029462A462B46FEF773FF2046294632469E
:101E4000FEF760FF204629463246FEF775FF05483B
:101E500086600321016002B070BDC046083E0000EC
:101E60000C3E0000003186400F4800210160032035
:101E7000C1430E480246083A13680B4013600168DC
:101E8000012291430160110203688B430360110337
:101E9000001F02680A430260FF20000204490A682A
:101EA00082430A607047C04608030B4008010B409C
:101EB00000E400E00548042101601F214160002189
:101EC0008160016805220A430260704710E000E06B
:101ED00010B5084C08492046FEF736FF0749204652
:101EE000FEF79AFE06480168012211430160054889
:101EF000026010BD00008640143E0000183E000045
:101F0000281086400811864010B5154C154920460A
:101F1000FEF74CFF14492046FEF724FF0320C103BF
:101F2000124802688A43026001692B4A0A40911CE8
:101F3000016141690B220A4334218A4342614168AD
:101F40000122114043689343591841609102084BA4
:101F50001C680C431C6001681143016010BDC04641
:101F6000008010402C3E00002E3E000000911040EA
:101F70002890104010B5144C14492046FEF716FF67
:101F800013492046FEF7EEFE0321CA0311480368F9
:101F9000934303600269104B13401A330361426993
:101FA0000A433C218A43426141680122114043684F
:101FB0009343591841609102084B1C680C431C6004
:101FC00001681143016010BD00001040383E000060
:101FD0003A3E0000001110400000FFFF28101040A2
:101FE00080B500F01BF8FFF7A1FEFFF73DFFFFF7FC
:101FF000FFFEFFF76DFFFFF787FFFFF7BBFFFFF760
:1020000067FEFFF757FFB820024900220A54024931
:102010000A5480BD2403202068022020F0B581B03E
:102020000D480E4941600E4A51600E4B59600E4CEE
:1020300061600E4D69600E4E71600E4F79600E4901
:1020400001601160196021602960316039601020E1
:10205000FEF754FD01B0F0BD00080A40030000B1D6
:1020600000280A400028864000088640008810406A
:1020700000081040000800400100002670B50C4622
:1020800001460126300373030E4A012902DB136067
:10209000106102E01060136149420B4D0022284696
:1020A000FEF74AFE31040948012C02DB066001619B
:1020B00002E0016006616442012228462146FEF7E3
:1020C0003BFE70BD90120A400020864090320A40CC
:1020D000F0B583B023480068000640D0224C626C03
:1020E0000292A06C22630021E0636164A164A16894
:1020F0008918A160E1680818E060A069FEF752FA4B
:10210000064600900191E069FEF74CFA174A184B19
:10211000FEF782F907460D463046019E31463A46A3
:102120002B46FEF76BF9FEF719FAA06338462946ED
:10213000009A3346FEF7BEF8FEF710FAE06240421E
:10214000029900F0D7F86063A06BE16B404249420E
:1021500000F000F901462064606BFFF78FFF03B0C9
:10216000F0BDC04620108640040120209A9999991C
:102170009999F93F10B512480068C0B20B281DD1DB
:102180001049CA69544883887E2B13D883885C1C05
:1021900084800D4CE2540B68DB0708D00B68DB072A
:1021A00005D00B68DB0702D00B68DB07F3D1D2B296
:1021B0008A6101E0002181800121017010BDC046CB
:1021C0002090104008911040E4032020F0B583B027
:1021D0003F480068C0B20B2878D13E480068C1B2C1
:1021E0007D2905D07B290AD13B4901224A700AE0AA
:1021F0003948C17B50290ED10121C1705EE03649BA
:102200004978012962D134498A788B181873501C97
:10221000887003B0F0BD417B23294FD08778042F0D
:102220002FD300913D180B35816800240291287846
:102230003038FEF765F901900E462046FEF760F94A
:10224000264A274BFEF7E8F801F0E8FB019A3346EF
:10225000FEF7E2F801900E460298FEF7A3F9024657
:102260000B4601983146FEF725F8FEF7AFF9014617
:102270006D1E641C7F1EF8B20328D7D816488160F3
:102280000099322917D031290BD0302916D1826814
:10229000154904461046FDF792FF01462046144AB0
:1022A0000BE08268104904461046FDF788FF01469E
:1022B00020460E4A01E081680A4A116000218160CF
:1022C000817041700C303221FDF715FF03B0F0BD75
:1022D00020101040241110406000202071A37909C3
:1022E0004F930A401C0120206F12833A0C002020DB
:1022F00008002020F0B581B0441A2E4E706874603A
:10230000201AFEF7F1F801462B4F7868FDF757FFCA
:1023100005462046FEF7E8F801463868FDF74FFF0E
:1023200001462846FDF7F2FE04463068FEF7DCF869
:1023300001462046FDF7EAFEFEF7F6F830601F4939
:10234000884202DC1E49884201DA3160084601B049
:10235000F0BDC046F0B581B0441A164EF068F46086
:10236000201AFEF7C1F80146134F7868FDF727FFE2
:1023700005462046FEF7B8F801463868FDF71FFF0E
:1023800001462846FDF7C2FE0446B068FEF7ACF8E9
:1023900001462046FDF7BAFEFEF7C6F8B0600749D1
:1023A000884202DC0649884201DAB160084601B081
:1023B000F0BDC046D4002020100020207F0C00007B
:1023C00081F3FFFF012000020E490A6802430A6000
:1023D0000D48017800290FD120BF017800290BD1C9
:1023E00020BF0178002907D120BF0178002903D13F
:1023F00020BF01780029EFD004490968002202704B
:1024000088B2704704110040A0002020806255402F
:10241000B0B57D210902414332480368262206E017
:10242000E41A051F2D686419A2188A4212D21C46AC
:102430000368A34208D10368A34205D10368A342FD
:1024400002D10368A342F3D09C42E9D9E41AA2184E
:102450008A42ECD3B0BDC046B0B57D2109024143EC
:1024600020480368262206E0E41A051F2D68641937
:10247000A2188A4212D21C460368A34208D10368FC
:10248000A34205D10368A34202D10368A342F3D05B
:102490009C42E9D9E41AA2188A42ECD3B0BDC046E6
:1024A000B0B510490B684001262206E0E41A0D1F62
:1024B0002D686419A218824212D21C460B68A342EE
:1024C00008D10B68A34205D10B68A34202D10B6867
:1024D000A342F3D09C42E9D9E41AA2188242ECD379
:1024E000B0BDC04618E000E0F0B591B006AC0EC437
:1024F0000446169F00253D80634E307809A9179A3F
:1025000000F0BEFB0146E843002901D011B0F0BD48
:1025100005970494B3880124220214210B4249D068
:102520000192029309990A0609A94B781B049D1888
:102530000395CA788B781B029A185219079F3A6044
:102540000A9A12064B791B049A18CB798E793602B7
:10255000F3189B187B600B9B1B064E7A3604F6180B
:10256000CB7A8D7A2D02EB189B19BB600C9B1B0656
:102570004D7B2D04EB18CD7B897B09024919C918C5
:10258000F96011144943039A12145243511832143A
:10259000524389181A1452438918F12212068918D5
:1025A0006206914267D805990888019A104308800D
:1025B0001025029B580607D42846334F059E8032CB
:1025C0001342049C20D137E009A8411917464A78E4
:1025D000405D00028018069E3080C8788A7812021A
:1025E00010183A4670804879097909020818B080B5
:1025F000059E308808210143318006202843224F60
:1026000080321342049C17D009A90A181D4653783A
:10261000095C0902C9182180D17893781B025918E6
:102620002B4661805179127912025118A1803188AC
:1026300070220A433280801D990716D009A90D180F
:10264000EC786878C10709D0BA68002A06D007205C
:102650002040411CA006400F90476878000704D531
:10266000F968002901D0A0098847089800F002FC09
:10267000002011B0F0BD054600F05AFB28460021AD
:10268000059A118011B0F0BDA800202007490A6802
:10269000D20708D00A68D20705D00A68D20702D04C
:1026A0000A68D207F3D1C2B28A617047089110401C
:1026B000F0B587B01C461546019103906049812012
:1026C000049008605F4F02263E603E640120059042
:1026D00038603E613E6005200290FFF7E1FE0696FD
:1026E0003E610298FFF7DCFE059E3E6103984000C4
:1026F0000390C0B2FEF7A8FEFEF74CFF00282FD0D3
:102700000198FEF7A1FEFEF745FF04984C490860CA
:1027100006983860386401263E60386138600520CC
:102720000290FFF7BDFE069838610298FFF7B8FEE9
:102730003E6103983043C0B2FEF786FEFEF72AFFE3
:1027400005E00020FEF7DEFD20706D1E641CE8B27F
:102750000128F6D0002801D03046F3E70026394F93
:1027600003960498364A1060069E3E603E64059DBE
:102770003D613E6105242046FFF792FE3D60204604
:10278000FFF78EFE3E602046FFF78AFE039807B0F3
:10279000F0BDC046F0B585B01C4601920091029094
:1027A0002748812103910160264E0225356035645A
:1027B0000120049030603561356005273846FFF709
:1027C0006FFE35613846049FFFF76AFE3761029855
:1027D0004006000EFEF738FEFEF7DCFE00283E46FF
:1027E00016D00098FEF730FEFEF7D4FE00260198C2
:1027F00000280DD0471E2078FEF726FEFEF7CAFE01
:10280000002804D0641C781E002F0746F3D1049FD3
:1028100002960B48039901600A4E356035643761B2
:10282000356105242046FFF73BFE37602046FFF761
:1028300037FE35602046FFF733FE029805B0F0BD45
:102840000880424090120A409CB0FFF7C9FBFFF796
:102850002FF9E5480168012529430160E803E349B0
:1028600008606803086002220A60AB040B60E0495C
:1028700008600A60102008600B60DEA001F0DEF93D
:10288000002464212046FFF7EDF80F952846FFF756
:1028900003F9E0431B90DD4DDD4F08E07962DDA0D8
:1028A00000F0EAFA786A401CC821FFF7DBF82868D4
:1028B0008006FCD43220FFF7CFFD2868800612D4B2
:1028C0001B9F02E0286880060AD46420FFF7C4FD3D
:1028D0007F1C0A2FF6D300206421FFF7C3F8F1E72D
:1028E000092FCB4F15D8786A00281B9E0CD40020E6
:1028F00032273946FFF7B6F83846C54FFFF788FD4F
:10290000761C786A8642F2DB02282146C6DC411C2E
:10291000C4E70024C8212046FFF7A4F8786A401CC9
:10292000FFF7BAF80D943C62BE48B8610F98C40531
:1029300040060E90BD4D56E03878002800D1AEE03C
:1029400078794038FDF7D0FD0646B148876A86623F
:10295000BC4800683146FDF732FC1A9030463946D3
:10296000AB4FFDF724FCB7494968FDF728FC1A99DD
:10297000FDF7CCFBF8610220FEF73AFB38791A909C
:1029800038781990386A1790BB68F86839691891D7
:102990007969149179791291FA6A3E6B796B139186
:1029A000B96B1091F96B11913F6C1597C718169779
:1029B000009014980190129802A945C113980590AF
:1029C000109806901198079017981818404215997A
:1029D00008911699099118990A910B909BA0199941
:1029E0001A9A00F049FA1920FFF736FD2C600527E6
:1029F0003846FFF755FD0E9E8B4806610A201A9057
:102A0000FFF74EFD2C613846FFF74AFD8648066009
:102A10001E20FFF745FD2C603846FFF741FD824838
:102A200006601A98FFF73CFD2C603846FFF738FD2A
:102A30007D4806611A98FFF733FD2C616420FFF78B
:102A40002FFD80267A4F2C616420FFF729FDFFF7C8
:102A5000B9FC2C60000938801420FFF721FDBF1C51
:102A6000761EF0D1FEF7ACF9694F38784242424108
:102A7000796A00290F9B00D11346002B4DD0012904
:102A800026D1B968CA1751408A1A6B498A420D99F2
:102A900003D36A498A4218D20121796118E0786922
:102AA000694948433861BA68F9688A181B9B1B1A40
:102AB0001D3B9A4202DABF2000065BE749001E3048
:102AC000884228DA3F20000654E7796902297ED03F
:102AD0003979002816D0002900D02DE70F983871D9
:102AE000B868396A081A5649884200DA24E7002093
:102AF0000321FEF7B7FF7869401C7861B86840424F
:102B0000386219E7002900D116E70D9838710321C2
:102B1000FEF7A8FF10E70D982CE70D9DFD61454CD1
:102B200020462146FFF7AAFA642628463146FEF7DA
:102B300099FF20462146FFF7A1FA28463146FEF7C5
:102B400091FF20462146FFF799FA28463146FEF7C5
:102B500089FF20462146FFF791FA28463146FEF7C5
:102B600081FF20462146FFF789FA28463146FEF7C5
:102B700079FF20462146FFF781FA28463146FEF7C5
:102B800071FF20462146FFF779FA28463146FEF7C5
:102B900069FF20462146FFF771FA28463146FEF7C5
:102BA00061FF20462146FFF769FA28463146FEF7C5
:102BB00059FF20462146FFF761FA28463146FEF7C5
:102BC00051FFBD6128462946FFF758FAFEE7002469
:102BD000BC61FC6120462146FFF750FA6421204683
:102BE000FEF740FFFEE7C0460438864080E200E082
:102BF00000E100E053797320696E697420646F6EA0
:102C0000652E2042656570210000000080330A4077
:102C100004012020547261636B5F6E756D3A20254C
:102C2000640000000000204190120A4090320A40E7
:102C300060012020B80B0000581B0000C8320000C3
:102C4000A10F000008002020F604000025642C25B8
:102C5000642C2025642C2025642C2025642C2564DC
:102C60002C25642C25642C25642C25642C25642CAF
:102C700025642C25642C25642C25640A00000000A2
:102C8000F0B585B005462420794E305C0024E7433A
:102C900000280ED0B07A00280BD00291039205CE06
:102CA000817A1078022204AB083EFFF701FD00286C
:102CB00002D0384605B0F0BD04A841780078000283
:102CC0004218AA4205D2002103980170384605B087
:102CD000F0BD70684188490801928A420DD9007898
:102CE0003168497C012204ABFFF7E2FC0028E0D107
:102CF00004A80078C00614D4706800783168C97AD6
:102D0000EAB2029BFFF7D4FC0028D2D101982946F1
:102D1000FDF778FC411E039801702746384605B040
:102D2000F0BD00F005F87F1E384605B0F0BDC04686
:102D300070B582B00026F4434D4DA87A00280AD021
:102D400001AB1E7005CDC17B10780122083DFFF755
:102D500021FD002802D0204602B070BD05CD41798A
:102D60001078012201AB083DFFF714FD0028F2D1D5
:102D700005CD01791078012201AB083DFFF70AFD6E
:102D80000028E8D12420285C002810D001AB0C20BA
:102D9000187005CD017910780122083DFFF7FAFC83
:102DA0000028D8D1A87AC00737D01F2036E001AB61
:102DB0000420187005CD017910780122083DFFF735
:102DC000E9FC0028C7D1A97A4020C907014600D0F4
:102DD0006021AA7C002A00D0014601AB197005CD04
:102DE000017910780122083DFFF7D4FC0028B2D108
:102DF000687C411E884101AB187005CDC17B1078FD
:102E00000122083DFFF7C6FC0028A4D105CD417979
:102E10001078083501222B4621E03F20C04301AB4A
:102E2000187005CD017910780122083DFFF7B2FC3A
:102E3000002890D1687C411E8841400001AB187089
:102E400005CDC17B10780122083DFFF7A3FC0028C7
:102E500081D101AB1E7005CD417910780122FFF7B9
:102E600099FC002800D076E73446204602B070BDB9
:102E700030002020704700000FB410B503A9044BA8
:102E8000044A029800F0CEF810BC08BC04B0184701
:102E90008D260000000020202021020C01D01021EE
:102EA0001046020A01D010460839020901D0104626
:102EB000091F820801D01046891E420801D0881ED1
:102EC0007047081A704700004900CA020243100008
:102ED00000D004204A0D01D001221043044A490DBC
:102EE000914201D102210843012800D105207047F9
:102EF000FF070000F8B504464F1EC8000838211827
:102F000015461E46086849683A4606239A4310D07B
:102F10002A463346FDF780FA3A46D200083AA3180B
:102F20001A687F1E5B68FDF7C5F906223B4693438E
:102F3000EED1022F23D0042F11D0062F2FD12A46F5
:102F40003346FDF769FAE36AA26AFDF7B3F92A4648
:102F50003346FDF761FA636A226AFDF7ABF92A4648
:102F60003346FDF759FAE369A269FDF7A3F92A464A
:102F70003346FDF751FA63692269FDF79BF92A464A
:102F80003346FDF749FAE368A268FDF793F92A464C
:102F90003346FDF741FA63682268FDF78BF9F8BD07
:102FA00010B50122FDF79AFC10BD10B5FDF782F9AE
:102FB00010BD002210B5134610461146FDF716FC51
:102FC00010BD000010B50721024A00200907FDF7D7
:102FD00085FC10BD01030000034A10B50020110755
:102FE000FDF77CFC10BD000001FDFFFF00000000AC
:102FF00002E008C8121F08C1002AFAD17047000079
:103000007047000000000000002001E001C1121F15
:10301000002AFBD17047000001490860704700009A
:1030200004002020FFB58DB00446002506E02528C9
:103030000AD0109A0F999047641C6D1C20780028C4
:10304000F5D1284611B0F0BD00270121484A00976C
:1030500000E00743641C23780846203B9840104258
:10306000F7D120782E2817D1042007436078641CFC
:103070002A280CD10E98641C02C800910E900BE017
:1030800000990A22514330394018641C009020787E
:10309000014630390929F3D920780028D1D0642895
:1030A00008D0692806D075281ED0109A0F9990472D
:1030B0006D1C5BE00A200E99019001C90E91002859
:1030C00002DA40422D2102E0390504D52B216A465F
:1030D0001172012103E0F90704D02021F7E70BAEBC
:1030E0000B910DE00021FAE70A200E99019001C929
:1030F0000E91F7E70199FDF785FA3031761E3170B0
:103100000028F7D103A8801B20300190780701D553
:10311000009801E0012000900199884201DD401AE9
:1031200000E000200027009006E002A8109AC05D91
:103130000F9990476D1C7F1C0B988742F5DB04E0CC
:10314000109A30200F9990476D1C0099481E0090EE
:103150000029F5DC05E03078109A761C0F9990472D
:103160006D1C0199481E01900029F4DC641C65E780
:1031700009280100F0B504464F008E488FB07F0843
:103180000D460D91874228DB4042381820430CD071
:103190008948874203DC874218D1002C16D020468C
:1031A0002946FFF7FDFE0FB0F0BD844A844B204650
:1031B0002946FDF731F907460E46824A824B2046E2
:1031C0002946FDF729F93A46334649E00120FFF741
:1031D00023FFFFF7EEFE0FB0F0BD7C48874243DAD5
:1031E000F920800587420BDA20462946FFF76CFE5E
:1031F000042801D1FFF7F0FE204629460FB0F0BDAC
:1032000022462B4610462946FDF706F90646024699
:103210006F480F460B4606217844FFF76BFE324697
:103220003B46FDF7F9F806906A48079132463B465F
:1032300004217844FFF75EFE32463B46FDF7ECF88A
:1032400000225C4BFDF736F802460B4607990698BC
:10325000FDF7CCFA22462B46FDF7DEF822462B4638
:10326000FDF728F80FB0F0BD2046524C6900490820
:1032700000222346FDF7C8F80022D243FDF72EFBBB
:103280000546024654480E460B4606217844FFF791
:1032900031FE2A463346FDF7BFF806904F480791A6
:1032A0002A46334604217844FFF724FE2A46334653
:1032B000FDF7B2F800222346FCF7FCFF05910490CD
:1032C0002846314600F0CAFC089045480C46874223
:1032D00019DB059B049A07990698FDF787FA0246C1
:1032E0000B4621460898FDF797F82346089AFCF705
:1032F000E1FF0122FDF7F2FA304A314BFDF77EF88B
:10330000304A314B4AE000273A460B460898FCF712
:10331000D1FF3A4623460A910E9010461946FDF712
:103320007BF82A463346FDF76FF80A9B0E9AFDF7A5
:103330005DFA05460E46059B049A07990698FDF727
:1033400055FA00910490012228463146FDF7C6FA4D
:103350001A4A1B4BFDF758F80E4605460122214636
:103360000898FDF7BBFA009B049AFDF755F82A462A
:103370003346FDF743F805460E46012238462146FE
:10338000FDF7ACFA0F4C174F22463B46FDF73CF8D1
:103390002A463346FDF738F822463B46FDF734F817
:1033A0000D9A002A00DD5DE70122D20751400FB0DF
:1033B000F0BD00000000F03F0000F07F075C143318
:1033C00026A6913C182D4454FB21F93F0000E03F14
:1033D0008C0A0000A20A0000180A00002E0A000051
:1033E0003333EF3FFB21E93FF0B589B004460D468A
:1033F0004800069172494008884215DB71498842AD
:1034000003DC884207D1002C05D020462946FFF76F
:10341000C7FD09B0F0BD6C48002D02DD6B4909B055
:10342000F0BD6B4909B0F0BD6A49884211DA6A49BA
:1034300088420BDA20462946FFF746FD042801D1D1
:10344000FFF7CAFD2046294609B0F0BD0026F64325
:103450005DE06D0061496D08884232DA604988425A
:1034600019DA0026012332469B0720462946FCF73D
:1034700021FF07460191012220462946FDF72EFA39
:103480000022584BFCF7BAFF3A46019BFDF7AEF914
:1034900004460D463BE001260022524B20462946B9
:1034A000FCF708FF0746009100224E4B20462946B4
:1034B000FCF7A4FF3A46009BFDF798F904460D4639
:1034C00025E04949884219DA02260022474B204666
:1034D0002946FCF7A1FF0022424BFCF7EBFE074612
:1034E00002910022414B20462946FCF787FF3A46CD
:1034F000029BFDF77BF904460D4608E003262246B1
:103500002B4600203A49FDF771F904460D46224644
:103510002B4610461946FCF77FFF07460B4602462E
:103520000191FCF779FF0246029032480B46039165
:1035300006217844FFF7DEFC3A46019BFCF76CFF5E
:1035400000902D48019105217844039B029AFFF7D2
:10355000D1FC039B029AFCF75FFF02460B460199E0
:103560000098002E0BDAFCF7A5FE22462B46FCF74E
:1035700053FF22462B46FCF747FF09B0F0BDFCF78E
:1035800099FE22462B46FCF747FF1C4AF6007A4478
:1035900093191A685B68FCF731FF22462B46FCF74B
:1035A0002DFF174A7A4493191A685B68FCF72CFFC1
:1035B000069A002AE1DA0122D207514009B0F0BD93
:1035C000000010440000F07F182D4454FB21F93F07
:1035D000FB21F9BF0000DC3F0000203E0000F33F6C
:1035E0000000E63F0000F03F008003400000F83F8D
:1035F0000000F0BF2A080000EC070000860700006A
:1036000050070000F0B51FB4039A029D53006E42AC
:103610002E439446F40F5B084A00574E52081C4351
:103620008E46B44205D847420743FC0F1443B442C8
:1036300005D92A466346FFF7B8FC05B0F0BD4F4EEA
:1036400066442E430AD0CC0F6646B61702273E408A
:10365000264304464A4F144304D00BE0FFF7C4FE50
:1036600005B0F0BD002EFBD0012EF9D0022E32D0D5
:10367000032E34D01C462C430BD03F4CA34216D112
:10368000A2420AD1012189078B438A431146039341
:103690000DE0704600280FDB25E03A4D7D44002EFA
:1036A0000ED0012E10D0022E15D0032E17D0A2421C
:1036B0001DD17046002816DA3148334905B0F0BDF7
:1036C0006968286805B0F0BD01226968D2072868DA
:1036D000514005B0F0BD38462C4905B0F0BD384624
:1036E0002B4905B0F0BD26482A4905B0F0BDD21AD5
:1036F00012153C2A02DD224D264C12E06346002BB7
:1037000005DA3C23DA4202DA00252C4609E0039B65
:10371000029AFDF76BF849004908FFF765FE054678
:103720000C46002E12D0012E0DD01B4A1B4B022E30
:103730002846214618D0FCF761FE3A46134BFCF7A9
:103740005DFE05B0F0BD0120C007444000221346D5
:1037500028462146FDF7D8F802D10220FFF75CFC8D
:103760002846214605B0F0BDFCF748FE3A46074B17
:10377000FCF74AFE05B0F0BD0000F07F000010C06D
:10378000182D445448070000FB21F9BFFB210940D4
:10379000FB2109C0FB21F93F075C143326A6A13C9D
:1037A000F0B54E00864BCF0F760887B005460C4625
:1037B0009E422ED38348864211D33003000B284308
:1037C00004D02846FFF7ECFB07B0F0BD002F03D074
:1037D0000020014607B0F0BD284607B0F0BD7A4A88
:1037E0002846FDF7A5F806D20220FFF715FCFFF7E3
:1037F000E9FB07B0F0BD754A754B28462146FDF739
:1038000083F806D20220FFF707FCFFF7E5FB07B0BD
:10381000F0BD704886424AD930466F49E20FD60063
:10382000884215D26D48784480194368026828465A
:103830002146FCF7E3FD0290694803917844811921
:103840000868496800900120C01B0191C61B25E053
:10385000644A654B28462146FCF7DEFD634A7A44FC
:1038600093191A685B68FCF725FDFCF777FE06469E
:10387000FCF746FE07465E4A5E4B0091FCF7CCFD26
:103880002A462346FCF7C0FD039102905A4A5B4B3F
:1038900038460099FCF7C0FD019100900B46009A54
:1038A00003990298FCF7AAFD05460C4617E0544818
:1038B000864213D2534A544B28462146FCF7FAFC61
:1038C000524E00223346FDF733F807D2002233462A
:1038D00028462146FCF7EEFC07B0F0BD00262A463C
:1038E000234610461946FCF797FD0746024648480E
:1038F0000B46049105217844FFF7FCFA3A46049BF5
:10390000FCF78AFD2A462346FCF77EFD069101213D
:1039100089070746002E23D002460020069BFCF7AD
:103920006DFD059104903A4628462146069BFCF71A
:1039300073FD059B049AFCF759FF019B009AFCF765
:1039400063FD039B029AFCF759FD00222F4BFCF705
:103950005BFD304A96421EDB3205891807B0F0BD88
:103960000B4600220699FCF749FD064600913A46AF
:1039700028462146069BFCF74FFD3246009BFCF78C
:1039800035FF2A462346FCF739FD00221F4BFCF782
:103990003BFD07B0F0BD7D233205DB05D218891849
:1039A0001D4AFCF79BFF0D460446FFF78DFA0428DD
:1039B00001D1FFF711FB2046294607B0F0BD0000FA
:1039C000422E86400000F07FEF39FAFE51302DD5AF
:1039D000104987C0422ED63FB2A2F03F76050000C4
:1039E00070050000FE822B654715F73F2E0500008D
:1039F0000000E0FE422EE63F763C7935EF39EA3DA5
:103A00000000303E9C7500883CE4377E0000F03FAB
:103A1000C604000003FCFFFF18FCFFFFF0B583B0F5
:103A200005000C4601D0012000E0002020434000AA
:103A30003A4E4008301AC00F05D1002233462846BE
:103A4000FCF762FF05D128462146FFF7A9FA03B02B
:103A5000F0BD0022324B28462146FCF755FF03D12A
:103A60000020014603B0F0BD6A462846214600F01A
:103A70009DF804460D4600222A4B01990098FCF758
:103A800043FF01D2284F0EE00022284B01990098F5
:103A9000FCF74EFF02D20127FF0204E001990098D3
:103AA000FCF75CFD0746224A224B20462946FCF7DC
:103AB000B3FCFFF775FE3A4600F040F804460D46A9
:103AC000FF2080001C493818884223D30022134667
:103AD00020462946FCF718FF06D10220FFF79CFA82
:103AE000FFF77AFA03B0F0BD00223346204629469C
:103AF000FCF70AFF06D10220FFF78EFAFFF762FA01
:103B000003B0F0BD20462946FFF7DEF9042801D1B5
:103B1000FFF762FA2046294603B0F0BD0000F07FAF
:103B20000000F0FF0000A0C000F8FFFF0000A04070
:103B3000EF39FAFE422EE63FFB07000070B505465E
:103B4000080DC04316460C4640052CD000221346F3
:103B50002846FCF7D9FE26D0324628462146FCF7F7
:103B6000BDFE0546080DC0430C46400510D000229E
:103B700013462846FCF7C8FE15D10220FFF74CFA81
:103B8000FFF72AFA49004908E20FD207114370BD36
:103B90000220FFF741FAFFF715FA49004908E20F42
:103BA000D207114370BD2846214670BDF8B54B00C1
:103BB000002801D0012400E0002401251C436D05EC
:103BC000EC4202D951601060F8BD1A4C5B0D1C1913
:103BD000CB0F0027DB07142C16DA002C02DA176053
:103BE0005360F8BD144D0646E5400C462C40044396
:103BF00005D00B46AB43176053603A4617E016609A
:103C0000516019463846F8BD332C05DC0025ED43DC
:103C1000143CE540284204D15160106019463846F2
:103C2000F8BD0346AB43136051601A460B46FCF7E0
:103C3000E5FBF8BD01FCFFFFFFFF0F0010B50446D8
:103C400001E0FEF723FD2078641C03490028F8D129
:103C50000A20FEF71BFD10BD00002020F8B5064627
:103C60000C46FCF791FE051E0F4600D001200143D3
:103C700049000B484908411AC90F0DD0002E01D048
:103C8000012100E000210C4361004908401AC00FE7
:103C900002D10120FFF7C0F928463946F8BD0000DF
:103CA0000000F07F00000000555555555555C53FA3
:103CB0007D6FEB0312D6D4BF5544880E55C1C93F62
:103CC0003B8F68B52882A4BF88B20175E0EF493FF9
:103CD00009F7FD0DE13D023F4B2D8A1C273A03C039
:103CE000C88A599CE52A004059018D1B6C06E6BF25
:103CF00082922EB1C5B8B33F4FBB610567ACDD3FC3
:103D0000182D4454FB21E93F9BF681D20B73EF3F02
:103D1000182D4454FB21F93FE2652F227F2B7A3C7A
:103D2000075C143326A6813CBDCBF07A8807703C33
:103D3000075C143326A6913CC4EB98999999C9BFA6
:103D4000711623FEC671BCBF6D9A74AFF2B0B3BFDB
:103D50009AFDDE522DDEADBF2F6C6A2C44B4A2BF9B
:103D60000D5555555555D53FFF8300922449C23F07
:103D70006E204CC5CD45B73F513DD0A0660DB13F3B
:103D8000EB0D76244B7BA93F11DA22E33AAD903F4D
:103D9000000000000000E03F000000000000E0BF65
:103DA0000000E0FE422EE63F0000E0FE422EE6BFAD
:103DB000763C7935EF39EA3D763C7935EF39EABD25
:103DC0003E5555555555C53F93BDBE166CC166BF92
:103DD0002CDE25AF6A56113FF16BD2C541BDBBBE8B
:103DE000D0A4BE726937663E0000000000000000EB
:103DF000000800000000000400000008000040006F
:103E0000010500000000000308000000800C000015
:103E1000200101000807C700020000008F01000018
:103E2000010000000000000000000000040000008D
:103E3000180000000030000004000000180000001E
:103E4000003000006800000476005401F7FD000116
:103E500075191A0C6A231B1C1F207274433B4138CE
:103E6000393A6B6C376F06246D6E7000830000006A
:103E70000008000000010018320005000000204189
:103E80000000D242295C0F3E9A99993E3333733F2A
:103E9000295C0F3EB83E00000000202060000000BA
:103EA000F02F0000183F00006000202008050000EF
:103EB00008300000000000000000000000000000CA
:103EC0005839343D4260E53B000050419A99993E93
:103ED0000AD7A33C0000803F0000803F0000803FE5
:103EE0000000803F02000000503E0000443E000001
:103EF00000000000000000000000000000000000C2
:103F000000000000000000000000000000000000B1
:083F10006C3E000000000000FF
:04000005000000C136
:00000001FF
