:020000040000FA
:1000000000052020D5000000D9000000DB00000022
:1000100000000000000000000000000000000000E0
:10002000000000000000000000000000DD000000F3
:100030000000000000000000DF000000E100000000
:10004000E300000051140000E3000000E3000000A2
:10005000BD0B0000E3000000E3000000E30000002F
:1000600000000000E3000000E300000000000000CA
:1000700000000000A1230000E30000002523000091
:10008000E3000000E300000075210000E300000031
:10009000E3000000E300000000000000000000009A
:1000A000E3000000E300000000000000000000008A
:1000B000E300000000000000E3000000E300000097
:1000C0000348854600F010FD004800475534000005
:1000D0000005202003480047FEE7FEE7FEE7FEE7B5
:1000E000FEE7FEE7C1000000F8B500242546002920
:1000F00004DA0E46012400214042B141002B04DA0B
:100100001E46002352420125B34100F09CFB8C4661
:1001100017461E46AC4203D0002540428D41AC46F6
:10012000002C02D0002657429E4161463A46334693
:1001300001B0F0BD30B5434351435C18010C130CC2
:100140000D465D432C1980B292B20546554351438A
:100150000A0C09044D1962415843010C000440196E
:10016000514130BDD2B201E00270401C491EFBD2A9
:1001700070470022F6E710B513460A4604461946B2
:10018000FFF7F0FF204610BD30B5044600200346BF
:1001900000E05B1C934203D2E05CCD5C401BF8D0D6
:1001A00030BDF8B502464A40D40F42004B00520819
:1001B0005B089A4202D20246084611464A0023D002
:1001C000C30D4A00DDB2120EAD1A202D35DA4902F8
:1001D0000126490AF6058A19002C00D05242202136
:1001E0004F1B1146B9402A411018C20D9A4221D026
:1001F000002C17D0012D08DCDA05801AD20F8019E7
:10020000D207DBB200F08BFBF8BDDA05801A0123C0
:1002100040001B06C01880185A428018CA0F1043AD
:10022000490007E04908C2071143DA05801A80191E
:100230004008801800F06BFBF8BD61000122511AE4
:10024000001BF7E70122D2075140AAE70122D2079B
:100250005040A6E7024670B54A40D30FDB07400086
:100260002DD04A002AD0010E140E000212020919E4
:10027000400A520A8418E50104465443000A120A4F
:100280002E045043A4194219200CC543AA18120C7D
:100290000125AD03521C521912047F39240400D0E9
:1002A000521C104301D44000491EC2B20C06C009C2
:1002B0002018401C4008802A02D003E0002070BDB6
:1002C00040084000002900DA0020184370BD70B5D6
:1002D00002464A40D50F40004A00ED074008520848
:1002E000002814D0002A12D0C40DD30D41020120E1
:1002F000C0055202490A520AE41A091812187D343C
:10030000914201D3641C00E04900002C01DA002076
:1003100070BD0023914201D3891A0343400849006C
:100320000028F7D100290AD0914202D10121C90742
:1003300005E0914201D2012101E00121C943E0051C
:10034000C018401900F0E3FA70BD0000F0B5074690
:100350000846584087B0C00F049048000E46590028
:1003600040084908BC1A884105D2384631461E4625
:1003700017460B4602465800400810434CD0300D3B
:10038000039040055900400D490D0590401A029018
:10039000402872DA18030121000B09050843019077
:1003A00004980092002805D001995242002088410B
:1003B00000920190029840210A1A0199009800F0D9
:1003C00072FA05460C466B4607CB00F08DFAC01951
:1003D0007141039A0E0D0023D71756401A467A40F2
:1003E000164344D0049A002A2DD0029A012A039A77
:1003F00015DC1205C01A914101263605001C714119
:10040000D20F059ED2070093019202962A462346F8
:1004100000F0CBFA07B0F0BD38463146FAE71605D2
:10042000224A0F46B218C01AB74101210905001C23
:100430004F4100187F41114618187941E20F1043CF
:100440006D19644113E0E2076D0815436408C207A3
:100450001443039A01261205C01A91413605001C67
:100460007141CE07400830434908C01851412A461F
:10047000234600F08DFACDE7FFE704980122400003
:10048000C117121A00238B4104983146C417381A39
:10049000A141EEE730B40124E407634030BC55E7E6
:1004A00030B40124E407614030BC4FE70000E0FFB6
:1004B000F0B51FB488B00B990998002448400999F9
:1004C000C00F490049080991C0070B9900904900E5
:1004D00049080B9109990898A64608431CD00B9926
:1004E0000A98084318D0099801244000420D48009A
:1004F000410D099824050003000B204309900B9837
:100500000003000B20430B9050181C494018002298
:1005100001901446104605E0002001460DB0F0BDE4
:10052000032801DA034600E003239C46C11A0AAE01
:100530000AE05F0008ADED5B4F00F75B7D430027ED
:10054000AA187C41491C5B1E6145F2DD410004ABE9
:100550005A522104120C0A43240C401C0828DFDBE9
:10056000019802900099704601910090059B049AB1
:100570000799069800F019FAD0E700000DFCFFFF7C
:10058000F0B50C465C4085B0E40FE40703944C00E2
:100590000026640859009446490802460296224300
:1005A00021D062460A431ED06200570D4A000E0356
:1005B0002303550D012402462C492405781B1B0BEF
:1005C000360B401823432643614600901C46501AC0
:1005D000B44103D30098401C009002E092180098A8
:1005E0005B41002803DA0020014605B0F0BD002081
:1005F000012109050746864611E064461D46141B85
:10060000B54106D36546521BB341744607430C43BC
:10061000A646CD0740084908284392185B41054685
:100620000D43EAD11046184313D060461946504096
:100630007140084306D06046101AB34106D2012229
:10064000002306E000220123DB0702E00122D2435F
:100650005310009874460105381C6141029C039DAB
:100660000019694100F094F9BFE70000FD030000A4
:100670000122D207002800DB101A002900DB511AE2
:10068000814201D801207047002070470122D20723
:10069000002800DB101A002900DB511A814201D228
:1006A00001207047002070470122D207002800DB9C
:1006B000101A002900DB511A814201D9012070472C
:1006C000002070470122D207002800DB101A002901
:1006D00000DB511A814201D1012070470020704790
:1006E000C217C10F504010B54018CA079623002109
:1006F00000F015F910BD10B500229623114600F048
:100700000EF910BD0EB5C217C10F5040CA074018F0
:100710000021054B0293019200910A460B4600F01E
:1007200044F903B000BD000033040000C20F4100D3
:1007300040020123400ADB05D207090EC0187F29B9
:1007400001DA00207047962903DC9623591AC84025
:1007500001E096398840002AF4D0404270470000FA
:1007600070B5CD0F4A0009030123090B1B0519437E
:100770000B4BED070024520D9A4201DA002070BDA8
:10078000074B34339A4203DC9A1A00F09CF802E0DB
:100790000449511888402C43F1D0404270BD0000FC
:1007A000FF030000CDFBFFFFC20FD207400040084F
:1007B0000BD0C10D0723DB01C91840020905400A0F
:1007C0001143C2084007114370470020014670479B
:1007D000CB0FDB07490010B5490802460A4307D092
:1007E0000A0D07240903E401090B121B002A01DC8E
:1007F000002010BDC900440F0C43C100E018D20511
:10080000801800F084F810BD70B50446002903D0AC
:1008100000202022012310E0002801D00020C04346
:10082000C046C0460DE02546D5408D4205D30D4655
:100830009540641B1D46954040191546521E002DDB
:10084000F1DC214670BDF0B51FB40646002082B031
:1008500005464024019100901BE0019922460F4675
:10086000304600F030F8049A059B801A994110D365
:1008700010461946224600F016F8361A8F410197A5
:10088000224601200021009F00F00DF838184D414C
:1008900000902046641E0028DFDC019B009829465A
:1008A000324607B0F0BD10B5202A04DB0146203ADD
:1008B0009140002010BD914020239C1A0346E34044
:1008C0001943904010BD10B5202A04DB0846203A99
:1008D000D040002110BD0B46D340D0402024A21AA6
:1008E00091400843194610BD10B5202A06DBCB17EE
:1008F0000846203A1041C1170B4306E00B4613414E
:10090000D0402024A21A91400843194610BD002966
:1009100004DA401C490001D140084000704770B41F
:100920000024050C05D11024000402D1002921D097
:100930001124050E01D100020834050F01D1000178
:10094000241D850F01D18000A41C002801DB40007C
:10095000641C002908D020252E1B0D46F540A1401F
:1009600000D001212943084301061B1B000ADB1D9F
:1009700002D5002070BC7047DB05181880180029CC
:10098000F8DA401C4900F5D170BC400840007047BF
:1009900010B5002B08DA0024401C614192185B411D
:1009A0001A4301D14008400010BDF0B51FB482B019
:1009B00005460C0003D0084604F068F902E004F094
:1009C00065F920300246009021462846FFF76BFF6C
:1009D000049B059A04460F4618431143084314D05C
:1009E000184610431BD0009840210A1A1846059952
:1009F000FFF769FF05460E46009A05990498FFF730
:100A000052FF084305D0012004E02046394607B0D4
:100A1000F0BD0020C11705430E432C433743009916
:100A20000E986305401A7905E40A00220C43FD0A7A
:100A30000A3002D500200146E9E701051019694195
:100A40000C9C0D9D00196941FFF7A2FFDFE770B50F
:100A50004B005B0803430BD04B005C0D0026334674
:100A60006542B341D417AD1AA34102DB0020014611
:100A700070BD12053018514170BD00004A000903D5
:100A80000123090B1B0519430A4B10B5520D9A425D
:100A900002DA0020014610BD064B34339A4203DCD3
:100AA0009A1AFFF710FF10BD034BD218FFF7FBFE99
:100AB00010BD0000FF030000CDFBFFFF10B50029B3
:100AC00004DB0124E40740428C412146002B04DB77
:100AD0001C460123DB075242A341994200D19042B8
:100AE00010BD0000000000001CB509480090094836
:100AF000019005460126009C05E0E36807CC3343DE
:100B00000C3C98471034AC42F7D3FFF7DDFA0000F5
:100B1000746F0000946F0000FEB500231A461B1A84
:100B20008A4103DB0020014603B0F0BD4A000D03FB
:100B300001212D0B0905520D0D43D10702D10018DB
:100B40006D41521E5110FF31FF3101310027044623
:100B50003E463846009701910246012100200905D2
:100B6000FFF7B1FEC3197141F818324684468E462C
:100B70004A4161462846611A904104D36046241ACE
:100B8000954176461F46241900986D41401C0090FF
:100B90003428E1DDF91930467041091BA84103D220
:100BA0000022D243134601E00022134601980105BA
:100BB000381C7141FFF7ECFEB6E7000080B582B04B
:100BC000EE480068019008480068C0B2092802D1C8
:100BD0000648012101700198E8490968814201D164
:100BE00002B080BD01F016FD20100040F001202071
:100BF000B0B582B0EF4A126801920A78032313401D
:100C00000F4A84580F4D2540EB18A92424061B19C0
:100C10008350072212064B68134011242402055901
:100C20009543EA1802510019497801610198E14998
:100C30000968814201D102B0B0BD01F0EBFCC046B1
:100C400008080000FCFFFF0080B582B0D9490968A0
:100C50000191811E091F00BFFCD20198EE4909686D
:100C6000814201D102B080BD01F0D4FCF0B585B065
:100C7000E94A126804920B794A79002A2AD01E4A5E
:100C80001E4C1F4F21252D01202B00D070358618BA
:100C900002190192C219002B00D1882517684F4C08
:100CA00027407F191760576827407D1955603568C0
:100CB0008E4F3D40356075683D4075600025019C54
:100CC000256065608F24E4431569254015615569E9
:100CD0002540556102AA13718B79537109680291FD
:100CE000114600F00FF80498D7490968814201D1F4
:100CF00005B0F0BD01F08EFC381800005818000057
:100D000078180000F0B585B0CF4A12680492754A91
:100D100082180292824BC6188D4BC21800922E4B3D
:100D2000C4180A7901910D682C4F202A03920AD029
:100D3000284BC018002A17D16B1E029A53602368F3
:100D40003B40882517E0681E029A506020683840B2
:100D5000234B1843206060683840184360600120CE
:100D60004507204F104608E06B08029A536023683D
:100D70003B400525ED012B432360009903683B4070
:100D80002B4303603068594B18403060706818403E
:100D900070600020086048608F20C04323690340D2
:100DA00023616369034063610198407903990843B3
:100DB000BD21014010680C4B0340C818801C106016
:100DC0000498A1490968814201D105B0F0BD01F044
:100DD00021FCC046741800007018000024F93FF090
:100DE00001040000FFFFFFCF4000FFCF70B582B0CD
:100DF000954A126801923B4A82184B685360484BEF
:100E0000C3180878222857D8840001A52C59A74672
:100E1000AF0E0000B90E0000AF0E0000B90E0000CA
:100E2000B90E0000B90E0000B90E0000B90E0000A6
:100E3000B90E0000B90E0000B90E0000B90E000096
:100E4000B90E0000B90E0000B90E0000B90E000086
:100E50009D0E0000B90E00009D0E0000B90E0000AE
:100E6000B90E0000B90E0000B90E0000B90E000066
:100E7000B90E0000B90E0000B90E0000B90E000056
:100E8000B90E0000B90E0000B90E0000B90E000046
:100E90009D0E0000B90E00009D0E000003242407E3
:100EA0001568A543012464072C19146004E0032489
:100EB00024071568A54315600C69D460CC680A4DF9
:100EC00025401C68094E264074191C60097A0143AC
:100ED00011600198DC490968814201D102B070BDFE
:100EE00001F098FB04180000777702008888FDFF66
:100EF00010B582B0D44B1B68019307239B041940A3
:100F000092008018064A84589C43611881500198C9
:100F1000CD490968814201D102B010BD01F07AFBD0
:100F20003018000010B582B0C74C24680194049CAE
:100F3000A400001911431943054A81500198C24980
:100F40000968814201D102B010BD01F063FBC046C7
:100F50005018000080B582B0BB4B1B680193920013
:100F60008018054A81500198B7490968814201D12A
:100F700002B080BD01F04EFB101800001C002020C4
:100F800010B582B0B04A1268019201221203831890
:100F90000C789C604B7883508978054A8150019881
:100FA000A9490968814201D102B010BD01F032FBAC
:100FB0000C1100001C002020B0B582B0A24A1268BB
:100FC00001921122120283580124A34383508B788B
:100FD0000C881C438B8823430D4C1C4083580D4DBB
:100FE0001D402B1983508B79CC791C43097A2143FE
:100FF0007E231940801842689A4351184160019835
:1010000091490968814201D102B0B0BD01F002FBF3
:1010100018670000E798FDFF1C00202010B582B083
:10102000894A126801920122120383180C789C608D
:1010300049788150019884490968814201D102B000
:1010400010BD01F0E7FAC0461C00202010B58AB0A0
:10105000FE480068099002AC0020207068207521CD
:101060000122234602F016F94FA005F017F8207868
:10107000682800D089E002F003FC00287ED17820A7
:1010800003F03CFD002802D14DA005F007F87820C0
:1010900002F01EFB002802D152A004F0FFFFC8207E
:1010A00003F0AEFC002802D157A004F0F7FF01F0D6
:1010B000CDFC002802D15E4804F0F0FFAC2001F026
:1010C00009FE002802D15B4804F0E8FFFF207430DD
:1010D00001F058FB002802D1574804F0DFFFC82078
:1010E00001F03EFD002802D1544804F0D7FF06A8C5
:1010F00003A902F0E3FE072838D101A802F094FB0F
:101100000698FFF7EDFA0146019C2046FFF7A2F88A
:10111000FFF70CFB06900798FFF7E2FA014620461E
:10112000FFF798F8FFF702FB07900898FFF7D8FA47
:1011300001462046FFF78EF8FFF7F8FA089006A858
:1011400001F04EFD6C46204602F042FB20880399D8
:101150004143039104994143049105994143059109
:1011600003A801F08FFC364804F098FF012003F03B
:101170008DFB002802D1334804F090FF0998DE4926
:10118000096881420DD10AB010BDBFF34F8F0A48E4
:101190000A490160BFF34F8F00BF00BF00BF00BF0F
:1011A000FAE701F037FAC0466D70755F7365745FDA
:1011B00073656E736F720D000CED00E00400FA05AC
:1011C0006D70755F7365745F73656E736F72204EBB
:1011D0004F5420636F6D706C657465202E2E2E2E1B
:1011E0002E2E0D006D70755F636F6E666967757288
:1011F000655F6669666F20636F6D706C65746520EE
:101200002E2E2E2E2E2E0D006D70755F7365745F61
:1012100073616D706C655F7261746520636F6D7072
:101220006C657465202E2E2E2E2E2E0D00000000D3
:10123000686E0000036F0000996E0000BD6E000034
:10124000286F0000E06E00001C002020F0B581B087
:10125000D9480068009078480188EB22D2431646AE
:101260000B4601E0361D0ED08719F6243D5B9BB27C
:10127000AB4200D82B46F8257F5BBB42F2D83B46F9
:10128000F0E7121D0AD08618375B89B2B94200D345
:101290003946765BB142F4D33146F2E7C9184908C2
:1012A00000230A2201E0121D0833C41865898D420B
:1012B0000ED9A5898D420BD9E5898D4208D9258A99
:1012C0008D4205D2658A8D4202D2A58A8D4238D3DD
:1012D000E02B3DD0A5898D420ED9E5898D420BD9F1
:1012E000258A8D4208D9658A8D4205D2A58A8D420C
:1012F00002D2E58A8D4226D3E5898D420ED9258A10
:101300008D420BD9658A8D4208D9A58A8D4205D2B6
:10131000E58A8D4202D2258B8D4216D3258A8D42D5
:10132000C1D9658A8D42BED9A58A8D42BBD9E58ACD
:101330008D42B8D2258B8D42B5D2648B8C42B2D20D
:1013400004E0D21E02E0921E00E0521E3B4B1A80C7
:10135000E630782201E0121F0838C3888B420ED293
:1013600003898B420BD243898B4208D283898B42FB
:1013700005D9C3898B4202D9038A8B4252D8D31E26
:10138000062B36D384888C420ED2C4888C420BD272
:1013900004898C4208D244898C4205D984898C42C4
:1013A00002D9C4898C423FD844888C420ED28488AA
:1013B0008C420BD2C4888C4208D204898C4205D955
:1013C00044898C4202D984898C422FD804888C426B
:1013D000C1D244888C42BED284888C42BBD2C4889D
:1013E0008C42B8D904898C42B5D944898C42B2D98F
:1013F0001DE0134803881148008899B2091A0C2986
:1014000001DC002100E001210E4A1160C018C0B2C9
:1014100040080D4908700098C0490968814209D107
:1014200001B0F0BD134602E0531E00E0931E0448D5
:101430000380E0E701F0EEF8500020205601202064
:101440005801202088012020540120201C00202049
:10145000F0B581B0B148006800908720C1032248F0
:101460000246103A126813460B40204C23600123B9
:10147000DD03D403A84C09D42A4213D01E042768E4
:101480001B4D2D6837420AD16D1C09E02768184EA4
:1014900036682F4201D1751E02E0751C00E06D1EFA
:1014A000134E35609D05960309D42A420FD05B0484
:1014B0002468104A12681C4206D0521E05E02368B8
:1014C0000C4A12682B42F8D0521C0A4B1A60026870
:1014D0000A4302600098EA490968814201D101B0DB
:1014E000F0BD01F097F8C04648100A406C03202078
:1014F0005C012020600120201C002020F0B585B078
:1015000001910290DE4800680490DB48812103913C
:101510000160DA4F02263E603E6401253D603E6177
:101520003E600524204601F0FDF83E61204601F0B2
:10153000F9F83D61029800F0F3F800F0A3F9019882
:1015400000F0EEF800F09EF90398CB4908603E6089
:101550003E643D603E613E60204601F0E3F83E613E
:10156000204601F0DFF83D610298401CC0B200F057
:10157000D7F800F087F9002000F020F802900398D7
:10158000BD4908603E603E643D613E61204601F019
:10159000C9F83D60204601F0C5F83E60204601F0E4
:1015A000C1F80498B6490968814202D1029805B091
:1015B000F0BD01F02FF8C0461C002020F0B58BB024
:1015C0000990AF4800680A90AB4952480860AB4F99
:1015D00001263E610525284601F0A4F83E604E4CE8
:1015E00020680890284601F09DF83E61284601F0E9
:1015F00099F83E6020680790284601F093F83E6114
:10160000284601F08FF83E6020680690284601F0D9
:1016100089F83E61284601F085F83E602068059013
:10162000284601F07FF83E61284601F07BF83E60D5
:1016300020680490284601F075F83E61284601F0C4
:1016400071F83E6020680390284601F06BF83E6117
:10165000284601F067F83E6020680290284601F0B5
:1016600061F83E61284601F05DF83E602068019017
:10167000284601F057F8099800280AD08120D94956
:1016800008600220386038643E613846103009979F
:101690000AE03E618120D349086002203860386446
:1016A000384610300990384602250560052420464A
:1016B00001F038F83E60204601F034F83E610998A8
:1016C00005600A98F5490968814221D1079A2A40A4
:1016D000089840000421084010188000069A520023
:1016E0000A408018059A2A4010188000049A520077
:1016F0000A4080180399294008184000029929409F
:10170000081801998907C90F0818C0B20BB0F0BDBD
:1017100000F080FF8100040080130A401C0020209C
:10172000F0B583B0DD4909680291AE4A81211160AC
:10173000AE4C0221216001912164012727610090B4
:1017400040B2264610360028304600DA204601997D
:1017500001600525284600F0E5FF2760284600F0D7
:10176000E1FF2761284600F0DDFF00984006304683
:1017700000D5204601990160284600F0D3FF27607C
:10178000284600F0CFFF2761284600F0CBFF0098E5
:101790008006304600D5204601990160284600F0B9
:1017A000C1FF2760284600F0BDFF2761284600F0F2
:1017B000B9FF0098C006304600D520460199016067
:1017C000284600F0AFFF2760284600F0ABFF2761F6
:1017D000284600F0A7FF00980007304600D52046B5
:1017E00001990160284600F09DFF2760284600F01F
:1017F00099FF2761284600F095FF00984007304682
:1018000000D5204601990160284600F08BFF276033
:10181000284600F087FF2761284600F083FF0098E4
:101820008007304600D5204601990160284600F027
:1018300079FF2760284600F075FF2761284600F0F1
:1018400071FF0098C00700D02646019830602846F6
:1018500000F068FF2760284600F064FF27612846F3
:1018600000F060FF0298F6490968814201D103B097
:10187000F0BD00F0CFFEC0460880424090120A4002
:101880001C002020F0B581B0ED4800680090AF4901
:1018900055480860AE4E02273760052000F042FF31
:1018A00001243460204600F03DFF514D2868800738
:1018B00077D5052000F036FF2868800771D5052010
:1018C00000F030FF286880076BD5052000F02AFF64
:1018D0002868800765D5052000F024FF2868800768
:1018E0005FD5052000F01EFF2868800759D5052028
:1018F00000F018FF2868800753D5052000F012FF7C
:10190000286880074DD5052000F00CFF2868800767
:1019100047D5052000F006FF2868800741D505203F
:1019200000F000FF286880073BD5052000F0FAFE94
:101930002868800735D5052000F0F4FE2868800768
:101940002FD5052000F0EEFE2868800729D5052058
:1019500000F0E8FE2868800723D5052000F0E2FEAD
:10196000286880071DD5052000F0DCFE2868800768
:1019700017D5052000F0D6FE2868800711D5052070
:1019800000F0D0FE286880070BD5052000F0CAFEC5
:101990002868800705D5052000F0C4FE2868800768
:1019A0000AD434610098C4490968814202D12046B2
:1019B00001B0F0BD00F02EFE812064490860376060
:1019C0003764346137610525284600F0ABFE34608A
:1019D000284600F0A7FE3760284600F0A3FE00244A
:1019E000E0E7C046088042408100040090120A40AF
:1019F00080130A40F0B583B0009317460D460646A3
:101A0000E648006802903046FFF778FD0124214641
:101A1000B940009A002A01D0084300E0884301AB96
:101A2000187030462946224600F03AF80298DB4901
:101A30000968814202D1204603B0F0BD00F0EAFD02
:101A4000F0B583B00C460546F848006802900720C0
:101A5000801A0821C91A089E8E40F6B2C640FF2798
:101A600078009040991AC91DCF4007432846214667
:101A7000FFF744FD3840304301AB1870012628467B
:101A80002146324600F00CF80298E8490968814284
:101A900002D1304603B0F0BD00F0BCFD1C00202098
:101AA000F0B587B01D46164602910190DF480068E8
:101AB00006902648812103910160B14F02243C60C9
:101AC0003C640120059038603C613C60052000903A
:101AD00000F028FE04943C61009800F023FE059875
:101AE00038610198FFF71CFEFFF7CCFE0298FFF764
:101AF00017FEFFF7C7FE002E08D02878FFF710FE6C
:101B0000FFF7C0FE761E6D1C002EF6D10F4803991C
:101B100001609B4C049F27602764059E2661276116
:101B20000525284600F0FEFD2660284600F0FAFD57
:101B30002760284600F0F6FD0698E44909688142CE
:101B400002D1059807B0F0BD00F064FD0880424066
:101B500090120A40B0B582B00446F1480068019086
:101B6000184D032C03D8A000154A105828600846C9
:101B700000F0A8FD032C03D8A000114908582861E3
:101B80000198E7490968814201D102B0B0BD00F077
:101B900041FDC04680B582B0E14909680191032842
:101BA00004D8800006490858064908600198DC49B5
:101BB0000968814201D102B080BD00F02BFDC04612
:101BC000A061000090320A40F0B583B0F64800688A
:101BD000029002270097D0246B2101910325204613
:101BE0003A462B46FFF72CFF00951B210426204682
:101BF00032463B46FFF724FF002500951C21204676
:101C000032463B46FFF71CFF0622204601992B4631
:101C1000FFF7F0FE6A21052220462B46FFF7EAFE79
:101C20003721012220462B46FFF7E4FE0298DE49C9
:101C30000968814201D103B0F0BD00F0EBFCC04661
:101C40001C00202010B582B0F948006801900124E2
:101C5000A0071349FEF7CCFF12484168124A0A4018
:101C60006104511841608168104A0A40826010493D
:101C700000220A601821416121020E4A136A0B43B7
:101C8000136213680B4313600168214301600198DC
:101C9000E7490968814201D102B010BD00F0BAFCE9
:101CA000B06D000000110040FEFFECFFF8FFE0E027
:101CB00080110040281000401C002020B0B582B0E8
:101CC000F14800680190294984220A6428481023B9
:101CD00003600A630222026082230B65254A541CBA
:101CE0004C658B65CC65244B81245C609C601C60DA
:101CF000CC629C649C65CC664A64204D1D665C6623
:101D00005C641A645A611A619A619A630C604C604F
:101D1000DA611B491B4A0A6103230B60D21C0A6467
:101D200001218A07184B1C6814431C601A69174C60
:101D300014431C618722D203154B1C6A14431C6296
:101D40001C6814431C600246303A124B1360036057
:101D5000880211490A6802430A600198E849096843
:101D6000814201D102B0B0BD00F054FC0480424079
:101D7000D0320A408100040084804240810001008A
:101D800090120A400030000290130A400510000033
:101D900028100A400108C10CA0330A401C00202072
:101DA00070B582B0F24800680190EF4C1C492046A3
:101DB000FFF7E6F81B492046FEF758FF002500957F
:101DC000204629462A462B46FFF7ACF820462946EE
:101DD0002A46FFF78DF8204629462A46FFF7BAF82B
:101DE00001260096204629462A462B46FFF79AF8F8
:101DF000204629463246FFF77BF8204629463246E0
:101E0000FFF7A8F808488660032101600198D849C7
:101E10000968814201D102B070BD00F0FBFBC046F1
:101E2000B86D0000BC6D0000003186401C00202011
:101E300080B582B0CE48006801901348002101604F
:101E40000320C14311480246083A13680B4013604F
:101E50000168012291430160110203688B43036012
:101E60001103001F02680A430260FF2000020849B4
:101E70000A6882430A600198BD490968814201D11C
:101E800002B080BD00F0C6FB08030B4008010B4008
:101E900000E400E080B582B0B548006801900A48CF
:101EA000042101601F214160002181600168052239
:101EB0000A4302600198AE490968814201D102B02B
:101EC00080BD00F0A7FBC04610E000E01C00202011
:101ED00010B582B0A648006801900C4C0C49204611
:101EE000FFF74EF80B492046FEF780FF0A480168CD
:101EF0000122114301600948026001989C49096868
:101F0000814201D102B010BD00F084FB0000864088
:101F1000C46D0000C86D000028108640081186407E
:101F20001C00202010B582B0FD4800680190194CBB
:101F300019492046FFF772F818492046FFF73CF888
:101F40000320C103164802688A4302600169364AC9
:101F50000A40911C016141690B220A4334218A43E2
:101F6000426141680122114043689343591841601E
:101F700091020C4B1C680C431C600168114301600A
:101F80000198E7490968814201D102B010BD00F013
:101F900041FBC04600801040DC6D0000DE6D00009B
:101FA00000911040289010401C00202010B582B0F5
:101FB000FA4800680190184C18492046FFF72EF89F
:101FC00017492046FEF7F8FF0321CA0315480368A6
:101FD000934303600269144B13401A33036142694F
:101FE0000A433C218A43426141680122114043680F
:101FF00093435918416091020C4B1C680C431C60C0
:102000000168114301600198E4490968814201D1E6
:1020100002B010BD00F0FEFA00001040E86D0000B4
:10202000EA6D0000001110400000FFFF2810104072
:102030001C00202080B582B0D8480068019000F0D4
:1020400025F8FFF73BFEFFF7F3FEFFF7A9FEFFF7CA
:102050003FFFFFF767FFFFF7A9FFFFF7F3FDFFF76C
:1020600019FFB820064900220A5406490A5401986B
:10207000CA490968814201D102B080BD00F0CAFAA4
:10208000B0022020F40120201C002020F0B581B0F7
:10209000C24800680090114811494160114A5160DE
:1020A000114B5960114C6160114D6960114E7160A6
:1020B000114F796011490160116019602160296038
:1020C000316039601020FEF7BFFD0098B349096800
:1020D000814201D101B0F0BD00F09CFA00080A4035
:1020E000030000B100280A4000288640000886400E
:1020F0000088104000081040000800400100002641
:102100001C00202070B582B00C460146FB480068D8
:102110000190012630037303124A012902DB136088
:10212000106102E01060136149420F4D0022284601
:10213000FEF710FF31040D48012C02DB066001613F
:1021400002E0016006616442012228462146FEF752
:1021500001FF0198E9490968814201D102B070BDCF
:1021600000F058FA90120A400020864090320A404F
:102170001C002020F0B581B0E04800680090534872
:102180000068000600D197E051480168514F39605E
:10219000514A136800241460504E33600460504864
:1021A0000268511801604F480168C91801604E4D1E
:1021B00028684E490968012920D1002809D14C48D6
:1021C0000168491C016000206421FFF7C3FC012065
:1021D0002860484805684E48066828463146FDF79D
:1021E000E0FFFEF7A3FA0446434804602846314660
:1021F000FEF728F8FEF79AFA384E49E0012804D194
:1022000064212046FFF7A6FC2C60394800680128AD
:1022100022DB3168CA175140511A3A68D3175A4025
:10222000D21A5118354A1268504381421CDD37A03A
:1022300003F034FF2F4804682046FEF7B5FA314A10
:10224000314BFEF735F9FEF78BFA05462046FEF7CF
:102250006DFA0446284619E026480068FEF766FA3B
:1022600025490860044613E025A003F017FF214824
:1022700005682846FEF798FA224A234BFEF718F91C
:10228000FEF76EFA04462846FEF750FA1A490C602B
:10229000204D286039686042494200F031F91E4CF7
:1022A000206031682868404200F06AF901461B4806
:1022B00001602068FFF726FF0098D5490968814230
:1022C00001D101B0F0BD00F0A5F9C0462010864054
:1022D0005C012020E801202060012020EC0120206A
:1022E000780120207C0120207003202088012020FC
:1022F00080012020C801202070012020080020201B
:1023000030000000CDCCCCCCCCCCF43F3100000070
:102310008401202074012020680120206C012020ED
:102320001C00202010B582B0E548006801901648D6
:102330000068C0B20B281ED11448C169144A138822
:102340007E2B13D813885C1C1480124AD154026867
:10235000D20708D00268D20705D00268D20702D09F
:102360000268D207F3D1C9B2816101E00020108078
:102370000948012101700198E9490968814201D1A8
:1023800002B010BD00F046F92090104008911040B6
:10239000F603202074032020F40320201C002020BA
:1023A000F0B585B0F6480068049047480068C0B2B0
:1023B0000B287FD145480068C1B27D2905D07B2913
:1023C0000BD14D4901220A700BE04149C8785028D1
:1023D0000ED14848012101705FE047490978012981
:1023E00068D13C490A783A4B9854501C087061E017
:1023F0004878232851D0374A1678374F3E70042E3C
:1024000033D3F0B232494118491E0D781178081AB9
:10241000FEF778F902460B460020304903F054F9E4
:10242000039002913878461E3E70303D2846FEF7F4
:1024300069F905460C462A480068FEF7B5F901908F
:10244000009128462146039A029BFEF731F8019A33
:10245000009BFDF77BFFFEF7BBF91E4A1C49204B92
:102460001860F0B20328CCD84878322811D031282F
:1024700008D0302811D11A4800681B49FDF727FF02
:102480001B4909E0164800681749FDF720FF174966
:1024900002E013480068134908600E4800210170EB
:1024A000154801700C4801700D4801600848322140
:1024B000FDF75FFE0498B2490968814201D105B079
:1024C000F0BD00F0A7F8C0462010104024111040C5
:1024D00094012020C6012020C701202000002440B4
:1024E0008C012020C801202000007A441400202004
:1024F0001800202064012020900120201C002020B2
:10250000B0B582B0451A1C4801680560681AFEF72C
:10251000E7F804462846FEF7E3F801463748006826
:10252000FDF798FE0546364800682146FDF792FE05
:102530002946FDF736FE0446104D2868FEF7D0F810
:1025400001462046FDF72DFEFEF7F0F828608C4985
:10255000096801912C49884202DC2C49884201DA41
:10256000296008460199864A12688A4201D102B060
:10257000B0BD00F04FF8C046D0012020CC01202093
:10258000B0B582B0451A1C4801680560681AFEF7AC
:10259000A7F804462846FEF7A3F801461748006846
:1025A000FDF758FE0546164800682146FDF752FE25
:1025B0002946FDF7F6FD0446124D2868FEF790F80F
:1025C00001462046FDF7EDFDFEF7B0F828606C49A6
:1025D000096801910C49884202DC0C49884201DA01
:1025E000296008460199664A12688A4201D102B000
:1025F000B0BD00F00FF8C046D80120201000202008
:102600000C002020D40120207F0C000081F3FFFF6C
:102610001C00202002A4204603F040FDFBE7C0463A
:102620003D3D3D3D3D3D3D3D3D3D3D3D3D3D3D3DDA
:102630003D3D3D537461636B20736D617368696EDA
:10264000672064657465637465642E3D3D3D3D3D62
:102650003D3D3D3D3D3D3D3D0000000080B582B02B
:10266000F948006801900120000212490A680243FB
:102670000A601148017800290DD120BF0178002996
:1026800009D120BF0178002905D120BF0178002998
:1026900001D120BFEEE709490968002202700198C4
:1026A000F74A1268824202D188B202B080BDFFF7B9
:1026B000B1FFC04604110040F00120208062554067
:1026C0001C002020B0B582B0ED49096801917D2140
:1026D0000902414329480368262206E0E41A051F3F
:1026E0002D686419A2188A4210D21C460368A342BE
:1026F00008D10368A34205D10368A34202D103684D
:10270000A342F3D09C42E9D9E41AEBE70198DC49F3
:102710000968814201D102B0B0BDFFF77BFFC0461E
:102720001C002020B0B582B0D54909680191400154
:1027300012490B68262206E0E41A0D1F2D68641961
:10274000A218824210D21C460B68A34208D10B6823
:10275000A34205D10B68A34202D10B68A342F3D078
:102760009C42E9D9E41AEBE70198FC4909688142E7
:1027700001D102B0B0BDFFF74DFFC04618E000E048
:102780001C002020F0B58DB00446F44800680C9081
:1027900006AF0920F870E320B870CA2078700220D4
:1027A00001903870682004213A4602F01FFAA320F5
:1027B00078723872F87101252E023246803222403A
:1027C0005C21C9430592002A0A4601D03922D2432E
:1027D000BA71059A002A0A4601D03322D2437A718F
:1027E000059A002A0A4601D03B22D2433A7140237F
:1027F00023400A4601D03D22D243FA70002B0A46FC
:1028000001D03722D243BA703F220493002B00D06C
:10281000D14300927970387081480F300A213A46CE
:1028200002F0E4F90320272120400390029101D017
:10283000202000E0C843387079481E3029463A46C7
:1028400002F0D4F99720C000A10605D4C7210B914E
:1028500076490A91764904E05D210B9171490A910C
:1028600071490991092109AA02F0C0F905980028C7
:1028700021D0264001D0642000E06F20C04306AA8A
:10288000D070002E01D0492000E04B20C043907052
:10289000002E01D0742000E07F20C0435070002E35
:1028A00001D04D2000E04F20C04310705C480A303A
:1028B000042102F09BF98B200001E10704D106AA54
:1028C000D8211170012149E006AAF82111700127D1
:1028D000394602F08BF90720FA2100F073FA09AAB1
:1028E000009810702920C5002846394602F07EF96C
:1028F00009AA00261670E81D394602F077F909AAE0
:1029000014205070167028469630019F394602F008
:102910006DF909AA64205070167028469230394625
:1029200002F064F909AA9020D070F92090708E20EE
:102930005070167028461430042102F057F909AA85
:1029400008205070167028461230394602F04EF9B1
:1029500009AA5770167010352846394602F046F914
:10296000A007029800D52620C04306AA107031485F
:10297000012102F03BF9600704D42F48099004219B
:1029800009AA09E009AAC620D070C4209070C2200C
:102990005070C02010700421214802F027F901F086
:1029A000E3F9E00606D4254809901D48801D04215E
:1029B00009AA0BE009AA3820D07030209070282096
:1029C0005070202010701648801D042102F00EF96E
:1029D00001F0CAF908202043194908800499002908
:1029E00000D006210598002800D0891D142004423B
:1029F00001D0102001430398002801D00C1D00E0F5
:102A00000C4601F0B1F90F4804700C98EC490968C4
:102A1000814202D100200DB0F0BDFFF7FBFDC046A2
:102A2000980A0000B4980D35B8AAB38DB088C3C514
:102A3000B8AAAAAA3D0700008B8B8B8BA3A3A3A3E4
:102A4000E0012020E60120201C00202080B582B07B
:102A5000DB48006801900120820207480749C8232B
:102A600000F0E6FF0199D64A12688A4201D102B00D
:102A700080BDFFF7CFFDC046F60B0000B861000037
:102A80001C002020F0B58BB00546CD4800680A90A8
:102A900006AC204600F09CFEC848068830090C2190
:102AA0000591084004952A58F00500D55242D317E5
:102AB0002088C403002120460391FDF73BFB0290D0
:102AC0000F46880907ADA872880B6872880D2872B6
:102AD00070080599084004990A58B00600D552427A
:102AE000D317019420460399FDF724FB00900C4670
:102AF0008809A871880B6871880D2871B007000FCC
:102B000004990A58700700D55242D31701980399C7
:102B1000FDF710FB8A09AA708A0B6A708A0D2A7069
:102B2000BA00029B9B0F9A18EA72A200009B9B0FAF
:102B30009A18EA718900800F4018E870A52080007B
:102B400005992A4602F052F80A99F04A12688A4218
:102B500001D10BB0F0BDFFF75DFDC0461C00202089
:102B6000F0B587B0FA4909680691174905911749E8
:102B70000491174903910026F443C82819D801ADE0
:102B80002E700746C1B2C820FDF73EFE401E687099
:102B9000104802212A4602F029F8002809D10E48DF
:102BA0000C2103AA02F022F8002802D10B4807806A
:102BB00034460698E6490968814202D1204607B0AA
:102BC000F0BDFFF727FDC046BBAFDFDFAAF1DFDFB7
:102BD000FEF2ABC416020000C10A0000E40120208E
:102BE000F0B585B0DA490968049174490C88A107E9
:102BF000090F02904058610700D54042C117344A7E
:102C000000263346FDF796FA8A0903AFBA708A0B9D
:102C10007A708A0D3A708900800F4018F870200988
:102C20000C25284002990858E10500D54042C117FB
:102C3000274A3346FDF77EFA00900191600828404C
:102C40000299085802903D200501042128463A4681
:102C500001F0CCFFF643002830D10299009FA00676
:102C600003D5084648421A4A01E0194A0846C117E6
:102C70000023FDF75FFA8B0903AA93708B0B537047
:102C80008B0D13708900800F4018D070281D04210F
:102C900001F0ACFF0028019810D18000B90F08188E
:102CA00003AAD070010A9170010C5170000E1070CF
:102CB00008350421284601F099FF06460498A449E6
:102CC0000968814202D1304605B0F0BDFFF7A2FC91
:102CD00009E3CA02F0B583B004469D48006802903B
:102CE000032120460840304B1D5C01AA15702506C3
:102CF000AD0F5E5D9670E606B60F9B5D53702B4B75
:102D00005D5D6F46BD709D5D7D70185C3870284EAE
:102D1000304601F06BFF0027FD43002829D1301D0C
:102D200003216A4601F062FF002822D12148009069
:102D300021480190600724D4A0062AD4E00505D5D7
:102D400068466721817001A87721817030461A306A
:102D5000032101AA01F04AFF00280AD10B36032102
:102D60006A46304601F042FF002802D11348048031
:102D70003D46029876490968814213D1284603B03E
:102D8000F0BD68462721017001A837210170A00617
:102D9000D4D568464721417001A857214170E0050C
:102DA000CED4D3E7FFF736FC9B61000098610000AA
:102DB000260400002646660036567600DC012020F8
:102DC0001C002020F0B585B00E460546604800681E
:102DD00004900021CC431920800186426ED8072040
:102DE00028406BD0009102AF384600F0CDFC304651
:102DF000FDF781FC4049FDF76AFA39788A1E012106
:102E0000CA41072A5AD88D21CE053C497A44127905
:102E1000520097440E0353075353530B23214E067E
:102E2000394906E08B21CE05364902E045210E06E0
:102E3000334901940746FDF70DFAFDF777FC044688
:102E400031462E4603ADE8703846FDF703FAFDF72C
:102E50006DFC6870210AA970000A2870AF1CF00789
:102E600006D1B00718D47007019C2FD4009C25E030
:102E70003C46492087003846B030022103AA01F0C1
:102E8000B5FE002819D1022138462746224601F016
:102E9000ADFE002811D1E4E7492084002046B4307B
:102EA000022103AA01F0A2FE002806D1201D022162
:102EB0003A4601F09BFE0028D5D0019C0498F449C5
:102EC0000968814215D1204605B0F0BD4920850032
:102ED0002846B830022103AA01F088FE0028EDD16F
:102EE0000835022128463A4601F080FE0028E5D147
:102EF000BCE7FFF78FFBC046000048430000404698
:102F00000000C044000040450000C0451C002020D7
:102F100080B582B0DE49096801910C490A68D20780
:102F200008D00A68D20705D00A68D20702D00A681A
:102F3000D207F3D1C2B28A610199D54A12688A4296
:102F400001D102B080BDFFF765FBC04608111040FB
:102F50001C002020F0B58BB015460C460746CC4827
:102F600000680A9007AB00265E7001201870C54902
:102F700005C9817C1078022200F008FAF24300288B
:102F800000D0C8E031462E4606920594C8200C4673
:102F9000FFF798FB07AB1C70BA4D05CDC17B1078CD
:102FA0000122083D00F0F2F9002800D0B2E00494BC
:102FB00005CD41791078012207AB083D00F0E6F914
:102FC000002800D0A6E005CD817C1078012207AB57
:102FD000083D00F0DBF9002800D09BE005CDC17D65
:102FE0001078012207AB083D00F0D0F9002800D08E
:102FF00090E005CD01791078012207AB083D00F083
:10300000C5F9002800D085E007AB0C20187005CD6D
:10301000017910780122083D00F0B8F9002879D133
:103020000F20FFF74FFBA86A407A07AB187005CD59
:10303000817810780122083D00F0A8F9002869D1B4
:10304000A86A007A07AB187005CD41781078012284
:10305000083D00F09BF900285CD1A86A807A3146CF
:10306000002E01D0E021084307AB187005CD81790F
:103070001078012200F08AF900284BD1002E06D0EA
:103080001F20C1437F48806AC07A084300E01820AF
:1030900007AB18707B4905C9C1791078012200F08F
:1030A00075F9002836D1002E02D0C820FFF70AFBA0
:1030B00007AB40201870734905C9017910780122C7
:1030C00000F064F9002825D107AB782018706D490D
:1030D00005C941791078012200F058F9002819D16A
:1030E0003220FFF7EFFA07AB04981870654905C95D
:1030F000417910780122039200F048F9002809D1A3
:10310000604905C9817A1078022207AB00F0C2F845
:1031100000280AD0069A0A98CD490968814202D14E
:1031200010460BB0F0BDFFF775FA384604993960C8
:103130007960B960059801604160816007A80088E6
:1031400040BA51494143C80CC0B20546002833D0AB
:103150004C4905C9C17A10780C2207AB00F09AF8E7
:103160000028D7D10798C0BA059B196808181860BD
:103170000898C0BA996808189860586807A94A88DA
:10318000D2BA801858600998C0BA3B467A681018BD
:10319000064678604889C0BABA681018B860C9880D
:1031A000C9BA3A6851180C4639600499491C04910F
:1031B000C9B2A942CCD303E0384650CF3868083FA3
:1031C000010CC21712045118000483220492002338
:1031D0000693069BFCF788FF2A460295069D2B4620
:1031E000FCF782FF0197B860300CF1170904091849
:1031F0003004049F3A462B46FCF776FF029A2B4692
:103200002E46FCF771FF019D6860200CE117090450
:10321000091820043A463346FCF766FF029C224612
:103220003346FCF761FF2860059D2868C10EC21770
:1032300052015118400122463346FCF755FF2860E1
:103240006868C10EC2175201511840012246334628
:10325000FCF74AFF6860A868C10EC21752015118F6
:103260004001224635463346FCF73EFF002802DC8B
:103270000399090400E005490818059988602A4661
:1032800049E7C04620002020ABAA00000000FFFF55
:103290001C002020F0B587B01C4615460091029016
:1032A0006B48006806906949812003900860EE4FE2
:1032B00002263E603E640120049038603E613E601C
:1032C00005200190FFF72EFA05963E610198FFF761
:1032D00029FA049E3E61029840000290C0B2FEF7B7
:1032E0001FFAFEF7CFFA00282FD00098FEF718FA41
:1032F000FEF7C8FA039855490860059838603864A5
:1033000001263E603861386005200190FFF70AFA17
:10331000059838610198FFF705FA3E61029830433D
:10332000C0B2FEF7FDF9FEF7ADFA05E00020FEF7AA
:1033300045F920706D1E641CE8B20128F6D0002803
:1033400001D03046F3E70026C74F029603983F4965
:103350000860059E3E603E64049D3D613E6105241B
:103360002046FFF7DFF93D602046FFF7DBF93E60BE
:103370002046FFF7D7F9069835490968814202D1FE
:10338000029807B0F0BDFFF745F9C046F0B587B029
:103390001C46029201910590FA48006806902B485D
:1033A000812103910160B04E022535603564012012
:1033B000049030603561356005273846FFF7B2F973
:1033C00035613846049FFFF7ADF93761059840062F
:1033D000000EFEF7A5F9FEF755FA0028059717D05D
:1033E0000198FEF79DF9FEF74DFA0020059002982E
:1033F00000280DD0471E2078FEF792F9FEF742FA1A
:10340000002804D0641C781E002F0746F3D1049FC7
:103410000E480399016035603564376135610524D4
:103420002046FFF77FF937602046FFF77BF93560CC
:103430002046FFF777F90698FA490968814202D1D8
:10344000059807B0F0BDFFF7E5F8C0460880424098
:103450001C0020208EB0FEF7EDFDFEF7B5FBFDF75A
:10346000F5FD74480168012421430160E0037249BD
:1034700008606003086002220A60704908600A6000
:1034800010200860A00408606DA002F007FE00256F
:1034900064212846FEF75EFB0D942046FEF77AFB7A
:1034A0006D4F6E4C04E02060401CC821FEF752FBBB
:1034B00038688006FCD43220FFF704F938688006AB
:1034C0001CD40A20C64303E0761C3868800612D458
:1034D0006420FFF7F7F834460B340A2CF4D30020AD
:1034E0006421FEF737FB1E2CEED37D20C1000020A7
:1034F000FEF730FBE8E7132E584C09D3322128465B
:10350000FEF728FB216802292846CCDC481CCAE7C4
:103510000020C821FEF71EFB2068401CFEF73AFB86
:103520004F48504901600D98C705400608904F4C20
:103530001920FFF7C7F8276005252846FFF7F2F89E
:10354000089E494806610A200D90FFF7EBF82761B5
:103550002846FFF7E7F8444806601E20FFF7E2F828
:1035600027602846FFF7DEF83F4806600D98FFF712
:10357000D9F827602846FFF7D5F83B4806610D9833
:10358000FFF7D0F827616420FFF7CCF88025384E8C
:1035900027616420FFF7C6F8FFF760F8276000098D
:1035A00030801420FFF7BEF8B61C6D1EF0D1FDF779
:1035B0004DFE304800780D904038FDF791F80546F3
:1035C0002D48016805602846FCF73CFE2B49096838
:1035D000FCF740FE06462A4801682846FCF73AFEFA
:1035E0003146FCF7DEFD27490860274800680C904B
:1035F000264800680B90264800680A902548006815
:10360000099025490D6825490E6825490968254A0C
:103610001268254B1B680D9800900998019002953F
:10362000039604A80EC021A00C990B9A0A9B01F0E6
:103630001DFB7DE70438864080E200E000E100E009
:1036400053797320696E697420646F6E652E204211
:10365000656570210000000080330A40F8032020D7
:10366000C80120200000C04090120A4090320A4059
:103670005000202054012020500120201400202040
:103680001800202084012020780120207C012020A7
:103690008001202070012020E801202068012020E6
:1036A00074012020EC0120206C01202025642C20B6
:1036B00025642C2025642C25642C25642C25642C61
:1036C00025642C25642C25642C25640A0000000048
:1036D000F0B585B00446D548006804902420BE4E5D
:1036E000305C002801D0002043E0B17A0020C743BD
:1036F00000293DD0FE2214402140357C3174A14286
:1037000000D0C043002C13D1317D002910D10446D4
:1037100003AB0020187005CEC17B10780122083E53
:10372000FFF734FE002801D103987074204620E092
:10373000717C002912D102AB01221A703168009508
:103740007568C97B2D7801902846009DFFF71EFE05
:1037500001460198002901D102997174002C08D00A
:10376000044600F001FB01462046002901D03574D3
:1037700038460499AD4A12688A4201D105B0F0BDBD
:10378000FEF748FF1C00202010B582B00146F54826
:10379000006801900020F24B5A7A032A0AD8D2001E
:1037A000094CD4400C70DB7C002B04D0074BD34079
:1037B0000B7000E0C0430199EA4A12688A4201D1C5
:1037C00002B010BDFEF726FF020408100408102006
:1037D00010B582B00146E3480068019000200C4A11
:1037E000537A032B0AD85B000AA4E45A0C80D27CDB
:1037F000002A04D009A2D25A0A8000E0C0430199ED
:10380000D84A12688A4201D102B010BDFEF702FF09
:103810002000202000409C1F001000080020CE0F38
:10382000000800041C00202010B582B00146CD48DD
:10383000006801900020CA4A137A032B13D80C4A5F
:103840007B441B795B009F44060103050B4A02E0A1
:10385000094A00E0074A0A600199C24A12688A428E
:1038600003D102B010BDC043F6E7FEF7D3FEC04659
:103870000000034333338341333303420000834268
:10388000F0B585B0B7480068049002AB802018708E
:10389000514F05CF817C10780122083FFFF776FD5C
:1038A0000026F443002818D16420FEF70BFF02AB7A
:1038B0001E7005CF817C107801252A46083FFFF74E
:1038C00065FD002809D105CF817D1078062202AB65
:1038D000083FFFF7DFFC002807D00498A1490968DA
:1038E000814276D1204605B0F0BD02A8417829403A
:1038F0004279D207520FC078C007800F8018411854
:1039000046D0012902D002295AD13146FF20B8748D
:1039100038743B48F881F9743D73BC6028047E61BB
:10392000BE61FE6138623846083006774677867792
:10393000C67701AB1820187005CF817910782A4618
:10394000083FFFF723FD0028C7D101A80078C00871
:103950003872022000F0D2FE0028BED12A2001F0E9
:1039600005F80028B9D1322001F04AF80028B4D176
:103970000020FFF7ADFE0028AFD10025284600F05B
:1039800007FF0028A9D1284601F0B8F82C46A4E783
:1039900005CFC1781078012202AB0092083FFFF7F3
:1039A00079FC002899D102A801780F20084004284A
:1039B0000AD000283146A9D1104802F06FFB8CE7ED
:1039C00010A001F053F988E704A002F067FB00990A
:1039D0009CE7FEF71FFEC0462000202048616C6671
:1039E0002073656E73697469766974792070617289
:1039F0007420666F756E642E0D0000001B6E000053
:103A0000FFFF0000556E737570706F7274656420EF
:103A1000736F6674776172652070726F647563741A
:103A2000207265762025642E0A0000001C002020EC
:103A3000F0B591B00446CB48006810900025E843EB
:103A40000790099100297DD02521C548405C0028B8
:103A500078D1019103920293002C5CD00494AEB211
:103A6000A31B102BBE4A00DB1023907A002869D0DC
:103A70000BA845702F0A0770E8B299B208910C188C
:103A8000506841898C425DD800781168097E022215
:103A90000A930BABFFF77AFC0A9BB149002851D17E
:103AA00032463E460998871805C9417D1078DAB23A
:103AB000069205973B46FFF769FC002842D1FD4A74
:103AC000907A00283ED0F0B20BA94D700870506873
:103AD00041898C4236D800781168097E02220BABEE
:103AE000FFF754FCF34900282CD105C9417D10781B
:103AF0000CAB069AFFF7CEFB002823D10CA9059842
:103B0000089AFCF741FB002824D10A982D18A8B286
:103B1000049CA042A3D30BAB03985870000A187002
:103B2000E44C05CC817E10780222083CFFF72EFC85
:103B30000028079807D10120019960540298E08479
:103B4000002000E00798109ADB490968914204D1EF
:103B500011B0F0BD0798401EF5E7FEF75BFDC046CB
:103B6000200020201C002020F0B58BB0D24909682D
:103B70000A910025EC43282800D9E6E000280AD065
:103B800002942327CB4CE15D012938D0A17C002988
:103B900018D0322217E02326C64DA85D002800D198
:103BA000C4E0A87C411E02468A41510003AA11705C
:103BB0002221695C002900D1ACE0002800D1A5E0F9
:103BC0007D20A4E03022019004A802702220205C15
:103BD000002807D0002901D04D2000E04F20C0432D
:103BE00004A9087005CC017D1078012604AB32468B
:103BF000083CFFF7CBFB0028019800D1E65509A946
:103C000020220A70012831D109A8002141702646DE
:103C1000A07A002811D005A806210170F07A0628A4
:103C20000BD005CE81781078012205AB083EFFF756
:103C3000ADFB002801D10598F072029C09AB5878C1
:103C40008001C01D587005CE817C10780222083E8C
:103C5000FFF79CFB002878D10120307535730820D0
:103C6000B0722846FFF734FD2C466EE00528264644
:103C700018D809A801214170B07A0028029CDDD033
:103C800006A806210170F07A0628D7D005CE8178E3
:103C90001078012206AB083EFFF778FB0028CDD153
:103CA000069831E01428029C17D809A80221417017
:103CB000B07A0028C2D007A805210170F07A052843
:103CC000BCD005CE81781078012207AB083EFFF703
:103CD0005DFB0028B2D1079816E009A803214170C6
:103CE000B07A0028AAD008A804210170F07A04282C
:103CF000A4D005CE81781078012208AB083EFFF7EA
:103D000045FB00289AD10898F07297E77F20C043BE
:103D100003A9087005CD017D1078012203AB083D91
:103D2000FFF734FB002801D10020A855072000022E
:103D300009AB188005CD817C10780222083DFFF781
:103D400025FB002801D100242C750A985A490968DE
:103D5000814202D120460BB0F0BDFEF75BFCC046AD
:103D6000200020201C00202070B582B0524800683E
:103D700001900026F4434F4DA87A00281ED06B46D0
:103D80001E7005CDC17B10780122083DFFF7FEFAB9
:103D9000002813D105CD4179107801226B46083DEA
:103DA000FFF7F4FA002809D105CD01791078012236
:103DB0006B46083DFFF7EAFA002807D001983E4914
:103DC0000968814274D1204602B070BD2420285C6D
:103DD0006B4600280FD00C20187005CD01791078A3
:103DE0000122083DFFF7D2FA0028E7D1A87AC007E0
:103DF00036D01F2035E00420187005CD01791078E9
:103E00000122083DFFF7C2FA0028D7D1A97A402045
:103E1000C907014600D06021AA7C002A00D00146D3
:103E20006B46197005CD017910780122083DFFF726
:103E3000ADFA0028C2D1687C411E88416B461870DB
:103E400005CDC17B10780122083DFFF79FFA0028BD
:103E5000B4D105CD41791078083501222B4621E0F7
:103E60003F20C0436B46187005CD017910780122C0
:103E7000083DFFF78BFA0028A0D1687C411E8841DD
:103E800040006B46187005CDC17B10780122083DBB
:103E9000FFF77CFA002891D16B461E7005CD417961
:103EA00010780122FFF772FA002887D1344685E79F
:103EB000FEF7B0FB200020201C002020F0B59FB0B2
:103EC00016911590F74800681E902420F64E345C39
:103ED000002C02D0002000F0D9FC307A0022032808
:103EE000174602D84000F1490F5A707A032811464C
:103EF00008D88000F17C002901D0EDA100E0F0A1FC
:103F00000818016814940E91F17A06290F9215464B
:103F10001446134614D8481E424242417F200840AE
:103F20003E23C34001210B401E24C4400C400E25FB
:103F3000C5400D4010970627C7400F400F97109FB0
:103F400007A838C00C92307C1390B07A1290F08998
:103F500011900025159816992A46FEF7FBFF0028B8
:103F600008D0159816992A46FEF7F4FF00282C462B
:103F700000D0F4E21BA818A901220B92FEF7EAFF79
:103F8000002808D01BA818A90122FEF7E3FF00288B
:103F90002C4600D0E3E20695706800780D210422DB
:103FA00017ABFFF777F90028109700D0BBE017A9EF
:103FB000C87803220346049213400D938A78D308ED
:103FC0001C2213400A934978CB0813400107890F3C
:103FD00001930091591803911799CB08134080065B
:103FE000800FC1180025002905952FD04E1E0BD03B
:103FF0003246049C22400343981E002A06D0012A20
:1040000006D18E1EB24D0DE0B24D1FE0B14D09E05C
:10401000022A01D0B04D00E0B04D022A01D00E1F9F
:1040200000E0CE1E032811D3AD4C28462146FCF7F4
:1040300011F92146FCF70EF92146FCF70BF9214650
:10404000FCF708F90546361F3006EED10D980A999F
:1040500008180290039A002A059C31D0571E0DD0F3
:104060003946049801400198009B1843801E00299E
:1040700006D0012906D1971E954C0DE0954C1FE006
:10408000944C09E0022901D0934C00E0934C0229A2
:1040900001D0171F00E0D71E032811D3904E2046F1
:1040A0003146FCF7D7F83146FCF7D4F83146FCF737
:1040B000D1F83146FCF7CEF804463F1F3806EED162
:1040C000029B002B2FD05F1E0CD0049A3A400D9813
:1040D0000A990143891E002A06D0012A06D19F1E93
:1040E0007B480DE07B481DE07A4809E0022A01D0B8
:1040F000794800E07948022A01D01F1F00E0DF1E46
:1041000003290FD3764E3146FCF7A4F83146FCF76D
:10411000A1F83146FCF79EF83146FCF79BF83F1FAB
:104120003906F0D10590169800681899401AC11701
:104130004840401AFCF7D4FA6F21C9050D91FCF7ED
:1041400089F80646002128460F46FCF7BBFA0028EE
:1041500012D130462946FCF7BAF86249FCF721F83B
:104160000125E90788436049FCF782FA00283E46AA
:10417000109F11D12E460FE05C493046FCF794FAAF
:104180000546401E85415A493046FCF77FFA002813
:104190000B9E00D12E46109F169840681999401A20
:1041A000C1174840401AFCF79BFA0D99FCF752F8EA
:1041B000054600212046FCF785FA002812D1284642
:1041C0002146FCF784F84749FBF7EBFF0121C907BB
:1041D00088434549FCF74CFA002800D1B61C0A96E2
:1041E000069D13E041492846FCF75EFA0446401E4E
:1041F00084413F492846FCF749FA00280B9800D132
:1042000020460028069D00D0B61C0A9616988068A5
:104210001A99401AC1174840401AFCF761FA0D99E3
:10422000FCF718F804460021059E30461691FCF76D
:1042300049FA002813D120463146FCF748F82949AD
:10424000FBF7AFFF0121C90788432749FCF710FAA4
:10425000002802D10A98001D0A90169E15E02349F5
:104260002046FCF721FA0546401E8541204920469C
:10427000FCF70CFA00280B9800D128460028069D70
:10428000169E02D00A98001D0A90074840680078E0
:104290000D21032417AB2246FEF7FCFF002829D08E
:1042A000072655E11C00202020002020B0610000DE
:1042B00004000000080000001000000020000000C2
:1042C00002000000040000000800000010000000D0
:1042D000ADFFB33E7B14AE3E5E72C03E631EBA3E7F
:1042E0001D5A843F000080BF295C0F3E3333733F6B
:1042F0009A99993E0594159800681B99401AC11720
:104300004840401AFCF7ECF90D99FBF7A3FF17AAF8
:1043100095781F2154780C40127804910A400ED0F1
:1043200003901695551E1BD02B4605980340901EF2
:10433000002B17D0012B17D1E84905461EE0EB49A9
:104340000646FCF7B1F90746401E8741E84930466A
:10435000FCF79CF900280B9E00D13E46284631E030
:10436000DD491FE0DC4909E0022B01D0DD4900E016
:10437000DB49022B01D0151F00E0D51E032811D305
:10438000D94F08463946FBF765FF3946FBF762FF10
:104390003946FBF75FFF3946FBF75CFF01462D1FEF
:1043A0002806EED10398FBF792FFC949FBF7F9FE07
:1043B0000125E9078843C749FCF75AF900281698F0
:1043C00000D12E46049908401690159840681C9913
:1043D000401AC1174840401AFCF782F90D99FBF7C3
:1043E00039FF002C0DD00490651E1CD02A4605987C
:1043F0000240A01E002A18D0012A18D1B74905464C
:104400001FE0BA490446FCF74FF90746401E8741B2
:10441000B7492046FCF73AF900280B9800D13846F6
:10442000002830D130E0AC491FE0AB4909E0022A56
:1044300001D0AC4900E0AA49022A01D0251F00E0C2
:10444000E51E032811D3A84F08463946FBF702FFA3
:104450003946FBF7FFFE3946FBF7FCFE3946FBF712
:10446000F9FE01462D1F2806EED10498FBF72FFF19
:104470009749FBF796FE0121C90788439549FCF748
:10448000F7F8002800D1B61C109F159880681D9978
:10449000401AC1174840401AFCF722F90D99FBF762
:1044A000D9FE0446169B002B0BD05F1E1CD005992D
:1044B0003940981E002919D0012919D1874907468A
:1044C00021E08A492046FCF7EFF80546401E854169
:1044D00087492046FCF7DAF8002800D10B950B98A5
:1044E000002834D0361D32E07B4920E07A490AE0CA
:1044F0000A46022901D07B4900E07949022A01D00D
:104500001F1F00E0DF1E032811D3774D0846294600
:10451000FBF7A0FE2946FBF79DFE2946FBF79AFE16
:104520002946FBF797FE01463F1F3806EED120468D
:10453000FBF7CDFE6649FBF734FE0121C90788432E
:104540006449FCF795F8002800D1361D109F069DA0
:10455000744274410A98002800D1A41C5B4EFF20CD
:1045600030746448F081284601253573C043B0603B
:104570006148874208DCFA2F10D07D2080008742F6
:1045800023D117A808210EE07D20C1008F4208D05A
:104590000001874219D117A8182104E017A80021AB
:1045A00001E017A81021017005CE81791078012251
:1045B00017AB083EFEF7EAFE002803D117A80078E3
:1045C000C0083072B07A002812D00E98C0B2801E97
:1045D000E84107282CD8C046784400794000874439
:1045E000030E27092727271217A8002505700EE0BC
:1045F000139D51E017A810210170022507E017A8AC
:104600000821017003E017A8182101700325707AB2
:10461000A8420DD005CEC1791078012217AB083E13
:10462000FEF7B4FE002803D117A80078C008707206
:10463000B07A0028139D2FD00C98002802D017A91B
:10464000012019E00F98002802D017A9022013E0DA
:104650000998002802D017A903200DE00898002827
:1046600002D017A9042007E00798002802D017A954
:10467000052001E017A906200870F17A81420BD0CD
:1046800005CE81781078012217AB083EFEF77EFE3A
:10469000002801D11798F072119800F0B1F9129822
:1046A00000F02CFA2846FFF713F81498002802D0DF
:1046B000012000F0EBF81E98D0490968814202D130
:1046C00020461FB0F0BDFDF7A5FFC046200020200A
:1046D000000080BF295C0F3E0000C8413333D14148
:1046E000BDD2DA419AE3E44154E3853F0000D2426F
:1046F00000002041FFFF0000E7030000F0B583B099
:104700000146BE48006802900025E843BA4EB27ADE
:10471000002A34D08A1E0121CA41072A2FD8C04658
:104720007A44127952009744030C2A072A2A2A1045
:1047300001AA002111700CE001A910220A700221C7
:1047400007E001AA0823137003E001A918220A70E8
:104750000321727A8A4211D006CEC97914780122D7
:1047600001AB07462046083EFEF710FE01463846DC
:10477000002904D101A80078C00870722846029967
:10478000DD4A12688A4201D103B0F0BDFDF742FF55
:10479000F0B583B00446D84800680290D54DA87C97
:1047A000A04201D1002067E005CD017910780122F7
:1047B00001AB083DFEF76EFD01460026F043002CDC
:1047C0001BD0002958D1074601AB1878DF210140E2
:1047D000197005CD017910780122083DFEF7D6FD4C
:1047E00000281FD10320FDF76DFF29460831887E80
:1047F00000282AD07D20C04328E000293CD107466C
:1048000001AB1878DF210140A87AC007800E081894
:10481000187005CD017910780122083DFEF7B6FD2C
:10482000002801D0384627E00320FDF74BFF29463A
:104830000831887E421E03469341DA0101AB1A70AB
:10484000002805D07F20C04302E0022001AA10709A
:10485000C97E002903D03021084301A9087005CD85
:10486000017D1078012201AB083DFEF78FFD002885
:10487000384601D1AC7430460299DB4A12688A424C
:1048800001D103B0F0BDFDF7C5FEC046F0B585B05F
:10489000F549096804912427F24EF15D0024814214
:1048A00059D0002835D02520305C0025002851D073
:1048B000002902D1B07A00280CD001AB1D7005CEC2
:1048C000C17B10780122083EFEF760FD002801D16F
:1048D000019870742846FFF75BFFF08C00F090F8A9
:1048E0006B461D7070680078232101252A46FEF76B
:1048F0004DFDF55502AB0220187005CEC17B107836
:104900002A46083EFEF742FD002820D10298707426
:104910001DE0002902D1B07A00280DD003AB0020A1
:10492000187005CEC17B10780122083EFEF72EFDDF
:10493000002801D103987074307C6B461870706841
:10494000007823210122FEF721FD0020F055FFF71A
:104950000BFA00E0EC430498C3490968814202D194
:10496000204605B0F0BDFDF755FEC046F0B583B05A
:104970000146BD48006802900025E843B94EB27A6E
:10498000002A2FD0BC2902D301AA012115E06229F7
:1049900002D301AA022110E02A2902D301AA03218D
:1049A0000BE0142902D301AA042106E00A2902D34C
:1049B00001AA052101E001AA06211170F27A8A42BA
:1049C0000FD006CE89781478012201AB0746204625
:1049D000083EFEF7DBFC01463846002902D101986B
:1049E000F07228460299A04A12688A4201D103B0A7
:1049F000F0BDFDF70FFEC046200020201C00202047
:104A0000F0B585B0054698480068049095490026A1
:104A1000F443887A002862D02420085C00285ED104
:104A2000087D00280BD0681E80B2272804D8E8B281
:104A3000FFF79AF8344652E00020FFF795F8019608
:104A40007D20C600B54200D33546042D00D804258C
:104A500030462946FBF7D8FE401E02AB1870814D48
:104A600005CD4178107801273A46083DFEF78EFCC7
:104A7000002834D102A80478611C3046FBF7C4FE3C
:104A8000E881A87A002829D0012C01D803A815E0D4
:104A9000042C02D803A8022710E00A2C02D803A88D
:104AA00003270BE0182C02D803A8042706E0312CBA
:104AB00002D803A8052701E003A806270770E87AB3
:104AC000B8420BD005CD81781078012203AB083DA8
:104AD000FEF75CFC002801D10398E872019C049861
:104AE00061490968814202D1204605B0F0BDFDF759
:104AF00091FDC046200020201C00202070B584B00D
:104B000004465948006803906006400F02D001A88F
:104B1000012106E0002C02D001A8002101E001A83B
:104B2000402101704F4D05CD817C1078012201ABF1
:104B3000083DFEF72BFC00281CD1102121404842E3
:104B40004841220904219143A20600D4891C081877
:104B5000210700D4383001AB19781870BF20084005
:104B6000287305CDC17C10780122083DFEF70EFCAC
:104B7000002809D00020A872C04303993A4A12685D
:104B80008A422FD104B070BDF720044222D02326E0
:104B9000A85D00281ED0A87C411E02468A41510013
:104BA00002AA11702221695C002907D0002801D0D7
:104BB0007D2000E07F20C04302A9087005CD017D63
:104BC0001078012202AB083DFEF7E0FB002801D17E
:104BD0000020A85500262E75AC723220FDF772FD1C
:104BE0003046CAE7FDF716FD1C002020F0B585B061
:104BF00003461D48006804900026F043002A27D091
:104C0000184FBC7A002C23D003AC63701D0A2570AA
:104C1000DBB25C187B685D89AC4219D801910292C5
:104C20001D783968097E022203AB04462846FEF748
:104C3000ADFB0146204600290AD105CF417D107801
:104C4000019AD2B2029BFEF7A1FB002800D0F043EC
:104C50000499054A12688A4201D105B0F0BDFDF7FA
:104C6000D9FCC046200020201C0020200FB410B525
:104C700003A9044B044A029800F08AF910BC08BC4E
:104C800004B01847112F0000000020202021020C42
:104C900001D010211046020A01D01046083902093D
:104CA00001D01046091F820801D01046891E420813
:104CB00001D0881E7047081A704700004900CA02D8
:104CC0000243100000D004204A0D01D001221043FD
:104CD000044A490D914201D102210843012800D123
:104CE00005207047FF070000F8B504464F1EC800B6
:104CF0000838211815461E46086849683A460623B2
:104D00009A4310D02A463346FBF7D2FB3A46D200EC
:104D1000083AA3181A687F1E5B68FBF717FB062288
:104D20003B469343EED1022F23D0042F11D0062F00
:104D30002FD12A463346FBF7BBFBE36AA26AFBF797
:104D400005FB2A463346FBF7B3FB636A226AFBF78F
:104D5000FDFA2A463346FBF7ABFBE369A269FBF792
:104D6000F5FA2A463346FBF7A3FB63692269FBF792
:104D7000EDFA2A463346FBF79BFBE368A268FBF794
:104D8000E5FA2A463346FBF793FB63682268FBF794
:104D9000DDFAF8BD002210B5134610460149FBF7B5
:104DA000EFFB10BD0000F03F10B5FBF7CFFA10BDD0
:104DB000002210B5134610461146FBF7E1FB10BD6B
:104DC00010B50721024A00200907FBF740FE10BD7D
:104DD00001030000034A10B500201107FBF737FE5E
:104DE00010BD000001FDFFFF02E008C8121F08C14E
:104DF000002AFAD170470000704700000000000050
:104E0000002001E001C1121F002AFBD17047000001
:104E1000014908607047000004002020F0B51FB46D
:104E200086B00998089A030D0021024314D0514816
:104E3000514A1818504305141198012810981AD097
:104E4000281A401C00264D4F4D49009601910490B0
:104E5000002812DA444211E01198012449A30128E4
:104E600001D11098C1430698119A84600360C26012
:104E700041600BB0F0BD4042E4E70446210500204C
:104E80003F4A001C51410391029012E0E00707D015
:104E900032463B4601990098FBF70AFB01910090CE
:104EA00032463B4610461946FBF702FB06460F46C4
:104EB0006410002CEAD10498039B0028029A0999F7
:104EC000089806DAFBF7F4FA019B009AFBF7F0FA70
:104ED00005E0FBF755FB019B009AFBF751FB0446ED
:104EE0000E460022284BFBF7E9FD03D80020C04303
:104EF000014607E00022254B20463146FBF726FA03
:104F0000FBF7BCFD102409E0002C0ADB0A22002379
:104F1000FBF799FC079B30321A55641E02460A4380
:104F2000F2D11122641C079B121B1C19119B012B2F
:104F300003D0012308430ED10AE0084304D0112016
:104F400010900020119077E71098151A6D1E0BE055
:104F50001098824202DD00236D1C03E0824201DAD8
:104F600000236D1E002BEED0069811998260C1605F
:104F700030C07EE701FCFFFF104D00000000144030
:104F80000000F03F300000000000F0430000E03F70
:104F9000FFB597B00646002518E2252877D10024F2
:104FA0002746FD49049400E00443761C3278012032
:104FB000203A90400842F7D130782A280ED00222B9
:104FC000307801463039092916D804990A23594303
:104FD000303940181443761C0490F1E7189802C841
:104FE00004911890002904DA012040030443484248
:104FF000049002200443761C30782E2814D104201B
:1050000004437078761C2A2809D11898761C80C829
:10501000189009E00A214F43303FC719761C3078B9
:10502000014630390929F5D930786C2810D006DCD2
:105030004C281AD068280ED06A2817D104E07428AA
:1050400013D07A2812D110E00120400504430CE06F
:105050000121090501E0032109050C437178814212
:1050600003D1012000052418761C761C307811909D
:1050700066280BD013DC58287DD009DC00287BD0B3
:105080004528F6D04628F4D047281AD1A5E118E0E3
:10509000632835D0642870D0652812D19DE170282E
:1050A0006CD008DC6728F1D069287BD06E280DD041
:1050B0006F2806D1BAE073282ED0752871D07828D1
:1050C00059D01A9A199990476D1C7EE16002400FE1
:1050D000022809D003280DD00428189801680DD0A3
:1050E0000D60001D189070E11898EA1701680D60B6
:1050F0004A60F6E7189801680D80F2E70D70F0E756
:1051000018986A4601781172001D1890002050729C
:1051100002A80090012005E0189802C8189000200D
:105120000091C04361070DD5002101E00199491CA0
:105130000191B94212DA8142F8DB009A515C0029F0
:10514000F4D10BE0002101E00199491C0191814259
:10515000FADB019A0099895C0029F5D1019904983C
:105160001A9B471A21463846199A00F097FA019976
:10517000401945180BE04FE02CE113E04EE0009899
:1051800000990078491C00911A9A19999047019842
:10519000401E0190401CF2D1214638461A9B199AB4
:1051A00010E137E00A200021009001916002410FD8
:1051B000022907D0189A01CA1892C21794460329E7
:1051C00008D00AE01898C01DC108C90005C9189187
:1051D000944607E000B2C2179446042902D140B2B7
:1051E000C1178C4600226146944506DA0A46002122
:1051F000404291418C462D2102E0210504D52B210E
:105200006A461173012103E0E10701D02021F7E78D
:10521000029155E00A200AE0102008E010200090DA
:105220000021042004430191082703E00820002105
:10523000019100906002410F022907D0189A01CA1B
:10524000189200229446032908D008E01898C01D3F
:10525000C108C90005C91891944603E080B2042929
:1052600000D1C0B200210291210729D511997029DE
:1052700006D0009A1021019B4A401A4305D00EE047
:1052800040216A461173012108E06146014306D0BE
:1052900030216A4611731199517302210291009ACB
:1052A0000821019B4A401A430AD16146014301D1BA
:1052B000610705D530216A46117301217F1E0291D5
:1052C0001199582904D035A10E910DA90D910DE029
:1052D00037A1F9E76146019B009AFBF7B4FA0E9BF0
:1052E0008C469B5C0D9A521E0D92137061460143D1
:1052F000F0D10D9805A9081A20300190600703D558
:1053000001200004844300E001270198874201DD69
:10531000381A00E0002001990090411802980918FD
:105320000498401A0490E00306D421461A9B199A67
:10533000049800F0B3F94519002706E003A81A9A6B
:10534000C05D199990476D1C7F1C02988742F5DB60
:10535000E0030CD521461A9B199A049800F09EF997
:10536000451904E01A9A3020199990476D1C00994C
:10537000481E00900029F5DC08E00D980D99007892
:10538000491C0D911A9A199990476D1C0199481E54
:1053900001900029F1DC63E109280100303132334A
:1053A0003435363738396162636465660000000061
:1053B000303132333435363738394142434445464B
:1053C0000000000000F05AF94519761C30780028DA
:1053D00000D0E2E528461BB0F0BD600700D40627E8
:1053E0001898C01DC108C90048680A680831C30F71
:1053F000DB071891190001D09CA108E0210501D517
:105400009BA104E0E10701D09AA100E09AA143002A
:1054100011985B08109165280CD006DC452809D04E
:1054200046281DD0472841D141E0662818D067287A
:105430003CD13CE00021112F01DB112000E0781C61
:105440000191009008A911A8FFF7E8FC13990591B4
:105450000021119A15927F1C12980197009150E03B
:105460000120C00703900120019008A9009711A80E
:10547000FFF7D4FC139A149905920022119B009215
:1054800012981593059A0192002901D0104602E066
:10549000791C40180190381A01D5019804E0404267
:1054A000401E0090781C0190C01B029043E0012F29
:1054B00000DA01270021112F01DD112000E038461C
:1054C0000191009008A911A8FFF7A8FC1399059174
:1054D000119A0021129815920091019721070CD47E
:1054E0000599B94201DB019900E00191012904DD30
:1054F000159A491E515C302906D0B84201DA011DC7
:1055000005DA0121029115E00199491EEDE7002815
:1055100005DC0099411800910199091A03E0019AEC
:10552000411C914200DD01910099401A401C0290FB
:105530000120C0070390200706D4029901988142F8
:1055400002DB0020C043029000206946C87707AF05
:10555000012103980337C907884224D00220119003
:105560002B201290039800280CDA404203902D2043
:10557000129007E00A210398FBF746F930317F1EAD
:10558000039039701199481E11900029F2DC03989C
:105590000028EFD1791E1298087030782021084039
:1055A0004530BF1E387006A8C01BC01D0390109860
:1055B0000078002800D00120019941180298C017F6
:1055C0000918039809180498401A401E0490E00333
:1055D00006D421461A9B199A049800F05FF84519E1
:1055E00010980078002803D01A9A199990476D1CDA
:1055F000E00324D521461A9B199A049800F04EF82E
:1056000045191CE00098002807DB0099059888429E
:1056100003DD1598405C199901E0199930201A9A18
:10562000904700986D1C401C00900298401E02900C
:10563000002804D11A9A2E20199990476D1C0199BF
:10564000481E01900029DDDC05E038781A9A7F1C9D
:10565000199990476D1C0399481E03900029F4DCAA
:1056600021461A9B199A0498ACE600002D00000010
:105670002B0000002000000000000000F8B50446E8
:1056800000251E461746880404D405E0394620202C
:10569000B0476D1C641EF9D52846F8BDFFB5044619
:1056A000002581B01E46C80301D5302700E0202721
:1056B000880404D505E038460399B0476D1C641E84
:1056C000F9D5284605B0F0BDF0B51FB494B08446B6
:1056D0000C460246179D169800904900680063002A
:1056E000490840080393002A01D0012600E0002663
:1056F0009E19FB4BF6185B109E422BD36E00009F49
:105700000196002F00D00127F719F54EF54BBE1971
:105710009E421FD3009E0346F34F334309D03B46BE
:105720009C4201D1002A04D0039B002A05D0012607
:1057300004E00020394619B0F0BD00269E19EB4B5D
:105740009E4207D8009F019E002F00D00127F61926
:105750009E4207D92B4660462146169AFFF724FB46
:1057600019B0F0BD0023002C29DAE14EB04226DA50
:10577000E04EB04201DB022321E0DB4EB0421EDBF3
:10578000DD4E070DBE19142E09DD3427BF1B009E08
:10579000FE400196BE40009FBE420BD00FE0009F2E
:1057A000002F0CD11427BF1B0646FE400196BE40B9
:1057B000864204D1019BDE07F60F02239B1B0E4697
:1057C000164318D1002D16DA002C03D0022B01D07D
:1057D000012B06D00220FFF71BFBFFF7DBFA19B005
:1057E000F0BD0220FFF714FBFFF7D4FA0122D20725
:1057F000514019B0F0BD009E002E61D1BC4EB042A8
:1058000020D1BE48844201D1002A08D0B648814246
:1058100009DB002D10DB1698294619B0F0BD0020D9
:10582000B14919B0F0BD002D06DA01222946D20790
:105830001698514019B0F0BDB149794408684968DB
:1058400019B0F0BDA84FB84225D1002D1FDA0029AC
:1058500004D0B14212D1002A09D018E0002A72D136
:10586000A349E20F0020D207114319B0F0BD002078
:10587000E20F0146D207114319B0F0BDB14206DA7A
:10588000234600203946FAF77BFE19B0F0BD1046DA
:10589000214619B0F0BDB14212DA0126B607B54271
:1058A00003D1234610461946EFE3964EB54207D181
:1058B000261E05DB1046314600F000FC19B0F0BD95
:1058C00067007F081646002A40D100290AD0884A7E
:1058D000914229D1002C0EDD002D1CDB0020114649
:1058E00019B0F0BD022B16D0002C14D0012B12D110
:1058F000002C14DB0FE0002C28DA002D09DB012B33
:1059000003D000207A4919B0F0BD00207E4919B0BB
:10591000F0BD012B03D00020014619B0F0BD0020DE
:105920000121C90719B0F0BD6F4A91420ED1002C78
:1059300001DA002B17D0022B06D00020C043FAF763
:10594000E1FE19B0F0BD7AE20120F8E7E217521C3F
:1059500094461A4307D000220692634C62465B1EAF
:105960001A4307D009E00120FFF752FAFFF720FAA7
:1059700019B0F0BD0022614C0692644A90427DDD70
:10598000634B644A98420ADD914202DC002D10DB31
:1059900025E05548814202DB002D0ADC1FE09142E0
:1059A00002DA002D05DB1AE04F4B994223DD002D72
:1059B00015DD0220FFF72CFAFFF702FA05460E4626
:1059C00000224B4B21460698FAF772FD08467100FB
:1059D0004908C00FC0070143284619B0F0BD022096
:1059E000FFF716FAFFF7F6F949004908E20FD20768
:1059F000114319B0F0BD002230463946FAF74AFD8E
:105A0000012205460E46D243FBF721F8424A434B9A
:105A1000FAF746FD2A463346FAF74AFD0022394B8B
:105A2000FAF73EFD07462A463346019110461946CD
:105A3000FAF73EFD3A46019BFAF73AFD0746032086
:105A400007912A46334640073549FAF731FD01915F
:105A50000890344A324B38460799FAF729FD074631
:105A60000291314A314B28463146FAF721FD3A4638
:105A7000029BFAF70FFD07460B4600E013E00246D3
:105A8000079101990898FAF761FC00250E4628460F
:105A9000019B089AFAF7FEFC3A46079BFAF700FDCD
:105AA00002460B468DE1012500202D05A94207DAAB
:105AB000352230463946FAF7CAFF06463420C0433D
:105AC0000A1512180C48084F101803900803000B11
:105AD000014639430491164988422BDC00202DE011
