:020000040000FA
:10000000D0042020D5000000D9000000DB00000053
:1000100000000000000000000000000000000000E0
:10002000000000000000000000000000DD000000F3
:100030000000000000000000DF000000E100000000
:10004000E3000000250E0000E3000000E3000000D4
:1000500011090000E3000000E3000000E3000000DD
:1000600000000000E3000000E300000000000000CA
:100070000000000041140000E3000000E91300004C
:10008000E3000000E300000041130000E300000073
:10009000E3000000E300000000000000000000009A
:1000A000E3000000E300000000000000000000008A
:1000B000E300000000000000E3000000E300000097
:1000C0000348854600F00CFC004800473917000043
:1000D000D004202003480047FEE7FEE7FEE7FEE7E6
:1000E000FEE7FEE7C1000000D2B201E00270401C52
:1000F000491EFBD270470022F6E710B513460A46A8
:1001000004461946FFF7F0FF204610BDF8B5024639
:100110004A40D40F42004B0052085B089A4202D278
:100120000246084611464A0023D0C30D4A00DDB2FC
:10013000120EAD1A202D35DA49020126490AF605BC
:100140008A19002C00D0524220214F1B1146B94081
:100150002A411018C20D9A4221D0002C17D0012D2F
:1001600008DCDA05801AD20F8019D207DBB200F062
:1001700066FAF8BDDA05801A012340001B06C01894
:1001800080185A428018CA0F1043490007E04908F6
:10019000C2071143DA05801A80194008801800F060
:1001A00046FAF8BD61000122511A001BF7E701224F
:1001B000D2075140AAE70122D2075040A6E70246E3
:1001C00070B54A40D30FDB0740002DD04A002AD03B
:1001D000010E140E000212020919400A520A841874
:1001E000E50104465443000A120A2E045043A419A0
:1001F0004219200CC543AA18120C0125AD03521C4C
:10020000521912047F39240400D0521C104301D427
:100210004000491EC2B20C06C0092018401C40080C
:10022000802A02D003E0002070BD40084000002971
:1002300000DA0020184370BDF0B507460846584064
:1002400087B0C00F049048000E4659004008490886
:10025000BC1A884105D2384631461E4617460B4621
:1002600002465800400810434CD0300D0390400522
:100270005900400D490D0590401A0290402872DA4D
:1002800018030121000B090508430190049800920E
:10029000002805D001995242002088410092019027
:1002A000029840210A1A0199009800F08CF905463D
:1002B0000C466B4607CB00F0A7F9C0197141039AB1
:1002C0000E0D0023D71756401A467A40164344D0E5
:1002D000049A002A2DD0029A012A039A15DC1205ED
:1002E000C01A914101263605001C7141D20F059EAE
:1002F000D2070093019202962A46234600F0E5F9C0
:1003000007B0F0BD38463146FAE71605224A0F46D7
:10031000B218C01AB74101210905001C4F4100184D
:100320007F41114618187941E20F10436D1964415D
:1003300013E0E2076D0815436408C2071443039AEB
:1003400001261205C01A91413605001C7141CE07E5
:10035000400830434908C01851412A46234600F05E
:10036000A7F9CDE7FFE7049801224000C117121A50
:1003700000238B4104983146C417381AA141EEE797
:1003800030B40124E407634030BC55E730B40124A5
:10039000E407614030BC4FE70000E0FFF0B51FB458
:1003A00088B00B990998002448400999C00F49006A
:1003B00049080991C0070B990090490049080B9121
:1003C00009990898A64608431CD00B990A98084337
:1003D00018D0099801244000420D4800410D0998A9
:1003E00024050003000B204309900B980003000B29
:1003F00020430B9050181C494018002201901446CD
:10040000104605E0002001460DB0F0BD032801DADA
:10041000034600E003239C46C11A0AAE0AE05F00CF
:1004200008ADED5B4F00F75B7D430027AA187C41C8
:10043000491C5B1E6145F2DD410004AB5A522104A8
:10044000120C0A43240C401C0828DFDB01980290A0
:100450000099704601910090059B049A07990698AF
:1004600000F033F9D0E700000DFCFFFFC217C10F09
:10047000504010B54018CA079623002100F0DFF85D
:1004800010BD00000EB5C217C10F5040CA0740187A
:100490000021054B0293019200910A460B4600F0A1
:1004A00014F903B000BD000033040000C20F410086
:1004B00040020123400ADB05D207090EC0187F293C
:1004C00001DA00207047962903DC9623591AC840A8
:1004D00001E096398840002AF4D04042704700007D
:1004E00070B5CD0F4A0009030123090B1B05194301
:1004F0000B4BED070024520D9A4201DA002070BD2B
:10050000074B34339A4203DC9A1A00F06CF802E08D
:100510000449511888402C43F1D0404270BD00007E
:10052000FF030000CDFBFFFFC20FD20740004008D1
:100530000BD0C10D0723DB01C91840020905400A91
:100540001143C2084007114370470020014670471D
:10055000CB0FDB07490010B5490802460A4307D014
:100560000A0D07240903E401090B121B002A01DC10
:10057000002010BDC900440F0C43C100E018D20593
:10058000801800F054F810BD70B50446002903D05F
:1005900000202022012310E0002801D00020C043C9
:1005A000C046C0460DE02546D5408D4205D30D46D8
:1005B0009540641B1D46954040191546521E002D5E
:1005C000F1DC214670BD10B5202A04DB0146203A3B
:1005D0009140002010BD914020239C1A0346E34027
:1005E0001943904010BD10B5202A04DB0846203A7C
:1005F000D040002110BD0B46D340D0402024A21A89
:1006000091400843194610BD10B5202A06DBCB17D0
:100610000846203A1041C1170B4306E00B46134130
:10062000D0402024A21A91400843194610BD002949
:1006300004DA401C490001D140084000704770B402
:100640000024050C05D11024000402D1002921D07A
:100650001124050E01D100020834050F01D100015B
:10066000241D850F01D18000A41C002801DB40005F
:10067000641C002908D020252E1B0D46F540A14002
:1006800000D001212943084301061B1B000ADB1D82
:1006900002D5002070BC7047DB05181880180029AF
:1006A000F8DA401C4900F5D170BC400840007047A2
:1006B00010B5002B08DA0024401C614192185B4100
:1006C0001A4301D14008400010BDF0B51FB482B0FC
:1006D00005460C0003D0084601F09CF902E001F049
:1006E00099F920300246009021462846FFF76BFF1B
:1006F000049B059A04460F4618431143084314D03F
:10070000184610431BD0009840210A1A1846059934
:10071000FFF769FF05460E46009A05990498FFF712
:1007200052FF084305D0012004E02046394607B0B7
:10073000F0BD0020C11705430E432C4337430099F9
:100740000E986305401A7905E40A00220C43FD0A5D
:100750000A3002D500200146E9E701051019694178
:100760000C9C0D9D00196941FFF7A2FFDFE7000017
:10077000F0B50C465C4085B0E40FE40703944C00F0
:10078000002664085900944649080246029622430E
:1007900021D062460A431ED06200570D4A000E0364
:1007A0002303550D012402462C492405781B1B0BFD
:1007B000360B401823432643614600901C46501ACE
:1007C000B44103D30098401C009002E092180098B6
:1007D0005B41002803DA0020014605B0F0BD00208F
:1007E000012109050746864611E064461D46141B93
:1007F000B54106D36546521BB341744607430C43CB
:10080000A646CD0740084908284392185B41054693
:100810000D43EAD11046184313D0604619465040A4
:100820007140084306D06046101AB34106D2012237
:10083000002306E000220123DB0702E00122D2436D
:100840005310009874460105381C6141029C039DB9
:1008500000196941FFF72CFFBFE70000FD0300000E
:1008600070B54B005B0803430BD04B005C0D0026BA
:1008700033466542B341D417AD1AA34102DB0020D1
:10088000014670BD12053018514170BD10B50029E8
:1008900004DB0124E40740428C412146002B04DBA9
:1008A0001C460123DB075242A3418B4200D1824206
:1008B00010BD000010B5002904DB0124E40740420C
:1008C0008C412146002B04DB1C460123DB075242EE
:1008D000A341994200D1904210BD000000000000E9
:1008E0001CB5094800900948019005460126009C66
:1008F00005E0E36807CC33430C3C98471034AC4226
:10090000F7D3FFF7E1FB00003C2200005C2200006F
:1009100004480068C0B2092802D1034801210170CF
:100920007047C0462010004060002020B0B50A7813
:10093000032313400B4A84580B4D2540EB18A92480
:1009400024061B198350072212064B6813401124FA
:10095000240205599543EA180251001949780161AA
:10096000B0BDC04608080000FCFFFF00811E091F43
:1009700000BFFCD270470000F0B582B07A4E834AC7
:100980008518884A821801923A4A83180A794C7964
:10099000394F002C23D00524E601202A00D1703ED7
:1009A000002A00D188269C683C4034439C60DC6867
:1009B0003C403443DC60AC686D4E3440AC60EC6865
:1009C0003440EC600024019EB460F4608F24E44362
:1009D0009E6926409E61DE692640DE61624E801976
:1009E0008E790C68202A009208D0191D002A15D192
:1009F000641E44601A683A40882415E0611E416014
:100A0000196839401D4A114319605968394011432A
:100A1000596001214C071A4F014607E06208426005
:100A20001A683A400524E40122431A600A683A40F1
:100A300022430A6029684E4A1140296069681140C2
:100A400069600021019A116051608F21C9431A69C0
:100A50000A401A615A690A405A6100990E43BD2141
:100A600031400268074B1340C918891C016002B06D
:100A7000F0BDC0467018000024F93FF001040000EA
:100A8000FFFFFFCF4000FFCF70B5374A82184B6899
:100A900053603E4BC3180878222857D8840001A51C
:100AA0002C59A746430B00004D0B0000430B0000E0
:100AB0004D0B00004D0B00004D0B00004D0B0000D6
:100AC0004D0B00004D0B00004D0B00004D0B0000C6
:100AD0004D0B00004D0B00004D0B00004D0B0000B6
:100AE0004D0B0000310B00004D0B0000310B0000DE
:100AF0004D0B00004D0B00004D0B00004D0B000096
:100B00004D0B00004D0B00004D0B00004D0B000085
:100B10004D0B00004D0B00004D0B00004D0B000075
:100B20004D0B0000310B00004D0B0000310B00009D
:100B3000032424071568A543012464072C191460B5
:100B400004E0032424071568A54315600C69D460EC
:100B5000CC68064D25401C68054E264074191C6063
:100B6000097A0143116070BD041800007777020014
:100B70008888FDFF10B507239B0419409200801858
:100B8000024A84589C436118815010BD30180000FF
:100B900010B5029CA400001911431943014A815069
:100BA00010BDC0465018000092008018014A8150C4
:100BB0007047C0461018000010B5012212038318B8
:100BC0000C789C604B7883508978014A815010BD25
:100BD0000C110000B0B51122120283580124A34366
:100BE00083508B780C881C438B882343094C1C4012
:100BF0008358094D1D402B1983508B79CC791C43A8
:100C0000097A21437E231940801842689A4351187B
:100C10004160B0BD18670000E798FDFF10B50122E4
:100C2000120383180C789C604978815010BD000035
:100C3000F0B578480188EB22D24316460B4601E016
:100C4000361D13D08719F6243D5B9BB2AB4204D905
:100C5000F8257F5BBB42F3D804E02B46F8257F5B89
:100C6000BB42EDD83B46EBE7121D0ED08618375B32
:100C700089B2B94203D2765BB142F5D303E039467B
:100C8000765BB142F0D33146EEE7C918490800233C
:100C90000A2201E0121D0833C41865898D420ED95D
:100CA000A5898D420BD9E5898D4208D9258A8D42C7
:100CB00005D2658A8D4202D2A58A8D4238D3E02BB7
:100CC0003DD0A5898D420ED9E5898D420BD9258A63
:100CD0008D4208D9658A8D4205D2A58A8D4202D2FD
:100CE000E58A8D4226D3E5898D420ED9258A8D422B
:100CF0000BD9658A8D4208D9A58A8D4205D2E58A2D
:100D00008D4202D2258B8D4216D3258A8D42C1D9C0
:100D1000658A8D42BED9A58A8D42BBD9E58A8D42AE
:100D2000B8D2258B8D42B5D2648B8C42B2D204E00E
:100D3000D21E02E0921E00E0521E374B5A80E6306F
:100D4000782201E0121F0838C3888B420ED2038933
:100D50008B420BD243898B4208D283898B4205D9BF
:100D6000C3898B4202D9038A8B424BD8D31E062BF0
:100D700036D384888C420ED2C4888C420BD204892C
:100D80008C4208D244898C4205D984898C4202D98C
:100D9000C4898C4238D844888C420ED284888C42D4
:100DA0000BD2C4888C4208D204898C4205D944896C
:100DB0008C4202D984898C4228D804888C42C1D2C2
:100DC00044888C42BED284888C42BBD2C4888C4278
:100DD000B8D904898C42B5D944898C42B2D916E07D
:100DE0000D488388408899B2091A0C2901DC00213A
:100DF00000E00121094A1160C018C0B2400808494A
:100E00000870F0BD134602E0531E00E0931E024836
:100E10008380E7E7D0002020600020207C00202095
:100E200081002020F0B58720C1031E480246103AF9
:100E3000126813460B401C4C23600123DD03D403CE
:100E40001A4C09D42A4213D01E042768184D2D6865
:100E500037420AD16D1C09E02768154E36682F42CB
:100E600001D1751E02E0751C00E06D1E104E35604C
:100E70009D05960309D42A420FD05B0424680D4ACD
:100E800012681C4206D0521E05E02368094A126807
:100E90002B42F8D0521C074B1A6002680A430260CA
:100EA000F0BDC04648100A404C03202080130A4081
:100EB000B8002020BC002020B0B504461F4D0328F8
:100EC00005D9084600F0DEFB032C09D9B0BDA0000F
:100ED000194A10582860084600F0D4FB032CF5D8B6
:100EE000A000154908582861B0BDC046002810D0A0
:100EF0000C4A13885B1C13809BB2834208D10329E0
:100F000004D888000C4908580C4908620020108059
:100F100070470329FCD8880007490858074908602A
:100F20007047C046D0012020032804D88000024921
:100F30000858024908607047E821000090320A40D2
:100F400010B50124A0070F49FFF7F0FC0E484168D7
:100F50000E4A0A4061045118416081680C4A0A40F7
:100F600082600C4900220A601821416121020A4A6C
:100F7000136A0B43136213680B4313600168214328
:100F8000016010BDF821000000110040FEFFECFFE1
:100F9000F8FFE0E08011004028100040B0B525497E
:100FA00084220A642448102303600A630222026038
:100FB00082230B65214A541C4C658B65CC65204B04
:100FC00081245C609C601C60CC629C649C65CC66E7
:100FD0004A641C4D1D665C665C641A645A611A6141
:100FE0009A619A630C604C60DA61D249164A0A61D0
:100FF00003230B60D21C0A6401218A07134B1C686F
:1010000014431C601A69124C14431C618722D203DA
:10101000104B1C6A14431C621C6814431C6002467B
:10102000303A0D4B1360036088020C490A68024392
:101030000A60B0BD04804240D0320A408100040002
:1010400084804240810001000030000290130A4079
:101050000510000028100A400108C10CA0330A4006
:1010600070B582B0B44C19492046FFF7A5FD184968
:101070002046FFF781FC00250095204629462A4698
:101080002B46FFF785FD204629462A46FFF772FDCD
:10109000204629462A46FFF787FD0126009620466E
:1010A00029462A462B46FFF773FD2046294632463D
:1010B000FFF760FD204629463246FFF775FD0548DB
:1010C00086600321016002B070BDC04600220000AE
:1010D00004220000003186400F48002101600320F7
:1010E000C1430E480246083A13680B40136001687A
:1010F000012291430160110203688B4303601103D5
:10110000001F02680A430260FF20000204490A68C7
:1011100082430A607047C04608030B4008010B4039
:1011200000E400E00548042101601F214160002126
:101130008160016805220A430260704710E000E008
:1011400010B5084C08492046FFF736FD07492046F0
:10115000FFF79AFC06480168012211430160054827
:10116000026010BD000086400C220000102200002A
:10117000281086400811864010B5154C15492046A8
:10118000FFF74CFD14492046FFF724FD0320C1035F
:10119000124802688A43026001692B4A0A40911C86
:1011A000016141690B220A4334218A43426141684B
:1011B0000122114043689343591841609102084B42
:1011C0001C680C431C6001681143016010BDC046DF
:1011D00000801040242200002622000000911040D0
:1011E0002890104010B5144C14492046FFF716FD06
:1011F00013492046FFF7EEFC0321CA031148036898
:10120000934303600269104B13401A330361426930
:101210000A433C218A4342614168012211404368EC
:101220009343591841609102084B1C680C431C60A1
:1012300001681143016010BD000010403022000021
:1012400032220000001110400000FFFF2810104063
:1012500080B500F01BF8FFF7A1FEFFF73DFFFFF799
:10126000FFFEFFF76DFFFFF787FFFFF7BBFFFFF7FD
:1012700067FEFFF757FFB820024900220A540249CF
:101280000A5480BD90022020D4012020F0B581B006
:101290000D480E4941600E4A51600E4B59600E4C8C
:1012A00061600E4D69600E4E71600E4F79600E499F
:1012B000016011601960216029603160396010207F
:1012C000FFF754FB01B0F0BD00080A40030000B175
:1012D00000280A4000288640000886400088104008
:1012E00000081040000800400100002670B50C46C0
:1012F00001460126300373030E4A012902DB136005
:10130000106102E01060136149420B4D0022284633
:10131000FFF74AFC31040948012C02DB0660016139
:1013200002E0016006616442012228462146FFF77F
:101330003BFC70BD90120A400020864090320A406B
:10134000F0B583B024480068000643D0234CE06B1E
:10135000216CA06200226163E2632264A26810181B
:10136000A060E0684018E06064200221FFF7BEFD45
:10137000A069FFF7D9F8054601900291E069FFF7EF
:10138000D3F8174A174BFFF709F806460F462846C9
:10139000029D294632463B46FEF7F2FFFFF7A0F8D2
:1013A000206330463946019A2B46FEF745FFFFF78A
:1013B00097F860624042A16A00F0D6F8E062206BC4
:1013C000616B4042494200F0FFF80146A063E06AC9
:1013D000FFF78CFF03B0F0BD201086407C0020207A
:1013E000CDCCCCCCCCCCF43F10B512480068C0B208
:1013F0000B281DD11049CA69544883887E2B13D805
:1014000083885C1C84800D4CE2540B68DB0708D099
:101410000B68DB0705D00B68DB0702D00B68DB0726
:10142000F3D1D2B28A6101E00021818001210170F3
:1014300010BDC0462090104008911040500320205D
:10144000F0B583B03F480068C0B20B2878D13E4861
:101450000068C1B27D2905D07B290AD13B49012210
:101460004A700AE03948C17B50290ED10121C17070
:101470005EE036494978012962D134498A788B186F
:101480001873501C887003B0F0BD417B23294FD0E6
:101490008778042F2FD300913D180B3581680024E5
:1014A000029128783038FEF7EDFF01900E46204675
:1014B000FEF7E8FF264A274BFEF770FF00F048FDD5
:1014C000019A3346FEF76AFF01900E460298FFF735
:1014D0002BF802460B4601983146FEF7ADFEFFF7AA
:1014E00037F801466D1E641C7F1EF8B20328D7D85A
:1014F000164881600099322917D031290BD0302944
:1015000016D18268154904461046FEF758FE01467A
:101510002046144A0BE08268104904461046FEF744
:101520004EFE014620460E4A01E081680A4A1160DB
:1015300000218160817041700C303221FEF7DBFDAB
:1015400003B0F0BD201010402411104020002020D6
:1015500071A379094F930A40940020206F12833AB7
:10156000100020200C002020F0B581B0441A2E4E2F
:1015700070687460201AFEF779FF01462B4F786877
:10158000FEF71DFE05462046FEF770FF014638684F
:10159000FEF715FE01462846FEF7B8FD0446306802
:1015A000FEF764FF01462046FEF7B0FDFEF77EFF22
:1015B00030601F49884202DC1E49884201DA3160EE
:1015C000084601B0F0BDC046F0B581B0441A164ED1
:1015D000F068F460201AFEF749FF0146134F78685F
:1015E000FEF7EDFD05462046FEF740FF0146386850
:1015F000FEF7E5FD01462846FEF788FD0446B06883
:10160000FEF734FF01462046FEF780FDFEF74EFF51
:10161000B0600749884202DC0649884201DAB160BD
:10162000084601B0F0BDC0466C0020201400202008
:101630007F0C000081F3FFFF012000020E490A68C1
:1016400002430A600D48017800290FD120BF0178BC
:1016500000290BD120BF0178002907D120BF0178D4
:10166000002903D120BF01780029EFD0044909687F
:101670000022027088B270470411004060002020F0
:1016800080625540B0B57D2109024143204803687E
:10169000262206E0E41A051F2D686419A2188A4262
:1016A00012D21C460368A34208D10368A34205D1A5
:1016B0000368A34202D10368A342F3D09C42E9D954
:1016C000E41AA2188A42ECD3B0BDC046B0B51049A6
:1016D0000B684001262206E0E41A0D1F2D686419EC
:1016E000A218824212D21C460B68A34208D10B6892
:1016F000A34205D10B68A34202D10B68A342F3D0E9
:101700009C42E9D9E41AA2188242ECD3B0BDC0468B
:1017100018E000E007490A68D20708D00A68D20733
:1017200005D00A68D20702D00A68D207F3D1C2B244
:101730008A6170470811104098B0FFF789FD904802
:101740000168012421430160E0038E4908606003C1
:10175000086002220A608C4908600A601020086054
:10176000A004086089A000F003FD0025642128463C
:10177000FFF7A2FB0D942046FFF7D6FB6320C04382
:101780000E90884C05E05170C8B2401CC821FFF78C
:1017900093FB20688006FCD43220FFF773FF20689B
:1017A000800612D40E9E633602E0206880060AD4BA
:1017B0006420FFF767FF761C0A2EF6D30020642111
:1017C000FFF77AFBF1E7092E0CD832212846FFF704
:1017D00073FB754A5078401CC1B203292946D2D800
:1017E0000146D0E70020C8210C90FFF765FB6E4C46
:1017F0006078401CFFF798FB41200006A0610D981F
:10180000C60540060F906A4D48E00D980871521CBD
:1018100015924A6148794038FEF728FE044662482E
:10182000076A0462644840682146FEF7C8FC1790C6
:1018300020463946FEF7BBFC5F498968FEF7BFFCCE
:101840001799FEF763FC5849C8610B4608330DCB66
:1018500013931490101817904C794F6A0846896AB0
:101860001291C16A1091036B416B1191806B0890CA
:101870001798099013980A9015980B90009201A957
:1018800091C11298049010980590069311980790B2
:101890004BA016990A46149B00F0ACF81920FFF7EC
:1018A000F1FE2E6005273846FFF710FF0F9C3F48DA
:1018B00004610A201790FFF709FF2E613846FFF7F1
:1018C00005FF3A4804601E20FFF700FF2E603846EF
:1018D000FFF7FCFE354804601798FFF7F7FE2E600F
:1018E0003846FFF7F3FE314804611798FFF7EEFE24
:1018F0002E616420FFF7EAFE80242E4F2E616420C3
:10190000FFF7E4FEFFF798FE2E60000938801420F0
:10191000FFF7DCFEBF1C641EF0D1FFF789F92249F6
:1019200008790A781692002A05D04A69002800D161
:101930006BE715926EE7002801D00C9808714B698F
:101940001D4807685F430F618868CA6814901018C3
:1019500017900E98C41B1798A0421593139702DA9C
:101960001648C86178E7129254006437A74203DA38
:101970007F24E405CC6101E00C98C861129A6BE702
:101980000438864080E200E000E100E053797320F3
:10199000696E697420646F6E652E204265657021E2
:1019A0000000000080330A407C00202090120A4092
:1019B00090320A40D000202008002020000080BF84
:1019C00025642C25642C2025642C2025642C2025BE
:1019D000642C25642C25642C25642C25642C25641A
:1019E0002C25642C25642C25642C25642C25640A64
:1019F000000000000FB410B503A9044B044A02987C
:101A000000F0C0F810BC08BC04B01847151700005F
:101A1000000020202021020C01D010211046020AD3
:101A200001D010460839020901D01046091F82086A
:101A300001D01046891E420801D0881E7047081A3E
:101A4000704700004900CA020243100000D0042081
:101A50004A0D01D001221043044A490D914201D19F
:101A600002210843012800D105207047FF0700002C
:101A7000F8B504464F1EC8000838211815461E4602
:101A8000086849683A4606239A4310D02A463346E6
:101A9000FEF784FC3A46D200083AA3181A687F1E63
:101AA0005B68FEF7C9FB06223B469343EED1022F4B
:101AB00023D0042F11D0062F2FD12A463346FEF70C
:101AC0006DFCE36AA26AFEF7B7FB2A463346FEF7CF
:101AD00065FC636A226AFEF7AFFB2A463346FEF7CF
:101AE0005DFCE369A269FEF7A7FB2A463346FEF7D1
:101AF00055FC63692269FEF79FFB2A463346FEF7D1
:101B00004DFCE368A268FEF797FB2A463346FEF7D2
:101B100045FC63682268FEF78FFBF8BD10B5012213
:101B2000FEF79EFE10BD000010B50721024A0020FE
:101B30000907FEF795FE10BD01030000034A10B52A
:101B400000201107FEF78CFE10BD000001FDFFFF15
:101B500002E008C8121F08C1002AFAD1704700002D
:101B60007047000000000000002001E001C1121FCA
:101B7000002AFBD17047000001490860704700004F
:101B800004002020FFB58DB00446002506E025287E
:101B90000AD0109A0F999047641C6D1C2078002879
:101BA000F5D1284611B0F0BD00270121484A009721
:101BB00000E00743641C23780846203B984010420D
:101BC000F7D120782E2817D1042007436078641CB1
:101BD0002A280CD10E98641C02C800910E900BE0CC
:101BE00000990A22514330394018641C0090207833
:101BF000014630390929F3D920780028D1D064284A
:101C000008D0692806D075281ED0109A0F999047E1
:101C10006D1C5BE00A200E99019001C90E9100280D
:101C200002DA40422D2102E0390504D52B216A4613
:101C30001172012103E0F90704D02021F7E70BAE70
:101C40000B910DE00021FAE70A200E99019001C9DD
:101C50000E91F7E70199FEF797FC3031761E31704F
:101C60000028F7D103A8801B20300190780701D508
:101C7000009801E0012000900199884201DD401A9E
:101C800000E000200027009006E002A8109AC05D46
:101C90000F9990476D1C7F1C0B988742F5DB04E081
:101CA000109A30200F9990476D1C0099481E0090A3
:101CB0000029F5DC05E03078109A761C0F999047E2
:101CC0006D1C0199481E01900029F4DC641C65E735
:101CD00009280100F0B54E00864BCF0F760887B07B
:101CE00005460C469E422ED38348864211D33003CC
:101CF000000B284304D02846FFF710FF07B0F0BDC3
:101D0000002F03D00020014607B0F0BD284607B0E1
:101D1000F0BD7A4A2846FEF7CDFD06D20220FFF735
:101D20002BFFFFF701FF07B0F0BD754A754B284642
:101D30002146FEF7ABFD06D20220FFF71DFFFFF79D
:101D4000FDFE07B0F0BD704886424AD930466F4963
:101D5000E20FD600884215D26D4878448019436856
:101D6000026828462146FEF70BFB02906948039162
:101D7000784481190868496800900120C01B0191CE
:101D8000C61B25E0644A654B28462146FEF706FB44
:101D9000634A7A4493191A685B68FEF74DFAFEF7B6
:101DA0009FFB0646FEF76EFB07465E4A5E4B0091C0
:101DB000FEF7F4FA2A462346FEF7E8FA039102906A
:101DC0005A4A5B4B38460099FEF7E8FA01910090B9
:101DD0000B46009A03990298FEF7D2FA05460C4684
:101DE00017E05448864213D2534A544B28462146A2
:101DF000FEF722FA524E00223346FEF75BFD07D271
:101E00000022334628462146FEF716FA07B0F0BDF9
:101E100000262A46234610461946FEF7BFFA074613
:101E2000024648480B46049105217844FFF720FEFE
:101E30003A46049BFEF7B2FA2A462346FEF7A6FA74
:101E40000691012189070746002E23D00246002073
:101E5000069BFEF795FA059104903A4628462146DE
:101E6000069BFEF79BFA059B049AFEF781FC019BFB
:101E7000009AFEF78BFA039B029AFEF781FA002282
:101E80002F4BFEF783FA304A96421EDB3205891843
:101E900007B0F0BD0B4600220699FEF771FA064620
:101EA00000913A4628462146069BFEF777FA3246CD
:101EB000009BFEF75DFC2A462346FEF761FA0022EE
:101EC0001F4BFEF763FA07B0F0BD7D233205DB053B
:101ED000D21889181D4AFEF7C3FC0D460446FFF7C9
:101EE000B1FD042801D1FFF729FE2046294607B09D
:101EF000F0BD0000422E86400000F07FEF39FAFE70
:101F000051302DD5104987C0422ED63FB2A2F03FA6
:101F1000420400003C040000FE822B654715F73F99
:101F2000FA0300000000E0FE422EE63F763C7935E1
:101F3000EF39EA3D0000303E9C7500883CE4377E76
:101F40000000F03F9203000003FCFFFF18FCFFFFBE
:101F5000F0B583B005000C4601D0012000E0002060
:101F6000204340003A4E4008301AC00F05D10022ED
:101F700033462846FEF78AFC05D128462146FFF75E
:101F8000CDFD03B0F0BD0022324B28462146FEF7BE
:101F90007DFC03D10020014603B0F0BD6A4628460F
:101FA000214600F09DF804460D4600222A4B019977
:101FB0000098FEF76BFC01D2284F0EE00022284B60
:101FC00001990098FEF776FC02D20127FF0204E097
:101FD00001990098FEF784FA0746224A224B2046D0
:101FE0002946FEF7DBF9FFF775FE3A4600F040F8A8
:101FF00004460D46FF2080001C493818884223D330
:102000000022134620462946FEF740FC06D1022056
:10201000FFF7B2FDFFF792FD03B0F0BD002233469B
:1020200020462946FEF732FC06D10220FFF7A4FD28
:10203000FFF77AFD03B0F0BD20462946FFF702FD09
:10204000042801D1FFF77AFD2046294603B0F0BDF0
:102050000000F07F0000F0FF0000A0C000F8FFFFCC
:102060000000A040EF39FAFE422EE63FFB070000D9
:1020700070B50546080DC04316460C4640052CD0E9
:10208000002213462846FEF701FC26D03246284699
:102090002146FEF7E5FB0546080DC0430C4640050A
:1020A00010D0002213462846FEF7F0FB15D102207F
:1020B000FFF762FDFFF742FD49004908E20FD20732
:1020C000114370BD0220FFF757FDFFF72DFD4900BA
:1020D0004908E20FD207114370BD2846214670BD62
:1020E000F8B54B00002801D0012400E000240125B0
:1020F0001C436D05EC4202D951601060F8BD1A4CCA
:102100005B0D1C19CB0F0027DB07142C16DA002CF3
:1021100002DA17605360F8BD144D0646E5400C46E0
:102120002C40044305D00B46AB43176053603A463E
:1021300017E01660516019463846F8BD332C05DCAF
:102140000025ED43143CE540284204D15160106065
:1021500019463846F8BD0346AB43136051601A4632
:102160000B46FEF70DF9F8BD01FCFFFFFFFF0F0066
:1021700010B5044601E0FFF7CDFA2078641C03494E
:102180000028F8D10A20FFF7C5FA10BD0000202072
:10219000000000000000E03F000000000000E0BF81
:1021A0000000E0FE422EE63F0000E0FE422EE6BFC9
:1021B000763C7935EF39EA3D763C7935EF39EABD41
:1021C0003E5555555555C53F93BDBE166CC166BFAE
:1021D0002CDE25AF6A56113FF16BD2C541BDBBBEA7
:1021E000D0A4BE726937663E0008000000000004FB
:1021F000000000080000400001050000000000038E
:1022000008000000800C0000200101000807C70042
:1022100002000000C70000000100000000000000F4
:102220000000000004000000180000000030000062
:1022300004000000180000000030000060220000D0
:102240000000202020000000501B00008022000021
:1022500020002020B0040000681B000000000000E7
:102260000000000000000000140500001283403D43
:102270004260E53B000020419A99993E0000000031
:04000005000000C136
:00000001FF
