:020000040000FA
:10000000C0042020D5000000D9000000DB00000063
:1000100000000000000000000000000000000000E0
:10002000000000000000000000000000DD000000F3
:100030000000000000000000DF000000E100000000
:10004000E300000039110000E3000000E3000000BD
:10005000A50A0000E3000000E3000000E300000048
:1000600000000000E3000000E300000000000000CA
:1000700000000000191A0000E30000009D190000B4
:10008000E3000000E3000000E5170000E3000000CB
:10009000E3000000E300000000000000000000009A
:1000A000E3000000E300000000000000000000008A
:1000B000E300000000000000E3000000E300000097
:1000C0000348854600F084FC00480047411E0000BC
:1000D000C004202003480047FEE7FEE7FEE7FEE7F6
:1000E000FEE7FEE7C1000000D2B201E00270401C52
:1000F000491EFBD270470022F6E710B513460A46A8
:1001000004461946FFF7F0FF204610BDF8B5024639
:100110004A40D40F42004B0052085B089A4202D278
:100120000246084611464A0023D0C30D4A00DDB2FC
:10013000120EAD1A202D35DA49020126490AF605BC
:100140008A19002C00D0524220214F1B1146B94081
:100150002A411018C20D9A4221D0002C17D0012D2F
:1001600008DCDA05801AD20F8019D207DBB200F062
:100170004CFBF8BDDA05801A012340001B06C018AD
:1001800080185A428018CA0F1043490007E04908F6
:10019000C2071143DA05801A80194008801800F060
:1001A0002CFBF8BD61000122511A001BF7E7012268
:1001B000D2075140AAE70122D2075040A6E70246E3
:1001C00070B54A40D30FDB0740002DD04A002AD03B
:1001D000010E140E000212020919400A520A841874
:1001E000E50104465443000A120A2E045043A419A0
:1001F0004219200CC543AA18120C0125AD03521C4C
:10020000521912047F39240400D0521C104301D427
:100210004000491EC2B20C06C0092018401C40080C
:10022000802A02D003E0002070BD40084000002971
:1002300000DA0020184370BD70B502464A40D50F61
:1002400040004A00ED0740085208002814D0002A58
:1002500012D0C40DD30D41020120C0055202490A3B
:10026000520AE41A091812187D34914201D3641C11
:1002700000E04900002C01DA002070BD002391420B
:1002800001D3891A0343400849000028F7D1002907
:100290000AD0914202D10121C90705E0914201D261
:1002A000012101E00121C943E005C018401900F017
:1002B000A4FA70BDF0B507460846584087B0C00F95
:1002C000049048000E46590040084908BC1A88416D
:1002D00005D2384631461E4617460B4602465800A0
:1002E000400810434CD0300D039040055900400D9C
:1002F000490D0590401A0290402872DA1803012136
:10030000000B09050843019004980092002805D0CD
:1003100001995242002088410092019002984021A8
:100320000A1A0199009800F034FA05460C466B460B
:1003300007CB00F04FFAC0197141039A0E0D00234C
:10034000D71756401A467A40164344D0049A002ADA
:100350002DD0029A012A039A15DC1205C01A914188
:1003600001263605001C7141D20F059ED20700936D
:10037000019202962A46234600F08DFA07B0F0BD9E
:1003800038463146FAE71605224A0F46B218C01A17
:10039000B74101210905001C4F4100187F4111465A
:1003A00018187941E20F10436D19644113E0E20718
:1003B0006D0815436408C2071443039A0126120509
:1003C000C01A91413605001C7141CE0740083043E8
:1003D0004908C01851412A46234600F04FFACDE79C
:1003E000FFE7049801224000C117121A00238B4135
:1003F00004983146C417381AA141EEE730B40124FD
:10040000E407634030BC55E730B40124E4076140A1
:1004100030BC4FE70000E0FFF0B51FB488B00B9987
:100420000998002448400999C00F490049080991DA
:10043000C0070B990090490049080B910999089849
:10044000A64608431CD00B990A98084318D009986F
:1004500001244000420D4800410D09982405000385
:10046000000B204309900B980003000B20430B90D6
:1004700050181C494018002201901446104605E00F
:10048000002001460DB0F0BD032801DA034600E06C
:1004900003239C46C11A0AAE0AE05F0008ADED5B7B
:1004A0004F00F75B7D430027AA187C41491C5B1E67
:1004B0006145F2DD410004AB5A522104120C0A439B
:1004C000240C401C0828DFDB01980290009970463C
:1004D00001910090059B049A0799069800F0DBF9BA
:1004E000D0E700000DFCFFFFF0B50C465C4085B086
:1004F000E40FE40703944C00002664085900944676
:10050000490802460296224321D062460A431ED081
:100510006200570D4A000E032303550D01240246C5
:100520002C492405781B1B0B360B4018234326430C
:10053000614600901C46501AB44103D30098401CF9
:10054000009002E0921800985B41002803DA002036
:10055000014605B0F0BD0020012109050746864689
:1005600011E064461D46141BB54106D36546521B77
:10057000B341744607430C43A646CD0740084908DB
:10058000284392185B4105460D43EAD110461843B3
:1005900013D06046194650407140084306D060466B
:1005A000101AB34106D20122002306E000220123E3
:1005B000DB0702E00122D243531000987446010584
:1005C000381C6141029C039D0019694100F056F9F5
:1005D000BFE70000FD030000C217C10F504010B577
:1005E0004018CA079623002100F00FF910BD000043
:1005F0000EB5C217C10F5040CA0740180021054B65
:100600000293019200910A460B4600F044F903B0B0
:1006100000BD000033040000C20F4100400201236E
:10062000400ADB05D207090EC0187F2901DA002035
:100630007047962903DC9623591AC84001E0963981
:100640008840002AF4D040427047000070B5CD0FBA
:100650004A0009030123090B1B0519430B4BED0746
:100660000024520D9A4201DA002070BD074B34334A
:100670009A4203DC9A1A00F09CF802E004495118EF
:1006800088402C43F1D0404270BD0000FF030000C1
:10069000CDFBFFFFC20FD207400040080BD0C10DB9
:1006A0000723DB01C91840020905400A1143C208AB
:1006B000400711437047002001467047CB0FDB070E
:1006C000490010B5490802460A4307D00A0D07241D
:1006D0000903E401090B121B002A01DC002010BDF4
:1006E000C900440F0C43C100E018D205801800F087
:1006F00084F810BD70B50446002903D000202022E4
:10070000012310E0002801D00020C043C046C046AD
:100710000DE02546D5408D4205D30D469540641B1E
:100720001D46954040191546521E002DF1DC21460C
:1007300070BDF0B51FB40646002082B005464024C7
:10074000019100901BE0019922460F46304600F0CF
:1007500030F8049A059B801A994110D31046194627
:10076000224600F016F8361A8F41019722460120E2
:100770000021009F00F00DF838184D4100902046F0
:10078000641E0028DFDC019B00982946324607B032
:10079000F0BD10B5202A04DB0146203A914000202C
:1007A00010BD914020239C1A0346E340194390401A
:1007B00010BD10B5202A04DB0846203AD0400021A5
:1007C00010BD0B46D340D0402024A21A91400843CC
:1007D000194610BD10B5202A06DBCB170846203A73
:1007E0001041C1170B4306E00B461341D0402024B3
:1007F000A21A91400843194610BD002904DA401C92
:10080000490001D140084000704770B40024050C35
:1008100005D11024000402D1002921D01124050E95
:1008200001D100020834050F01D10001241D850FFC
:1008300001D18000A41C002801DB4000641C0029B9
:1008400008D020252E1B0D46F540A14000D00121E7
:100850002943084301061B1B000ADB1D02D50020AB
:1008600070BC7047DB05181880180029F8DA401CA6
:100870004900F5D170BC40084000704710B5002B0E
:1008800008DA0024401C614192185B411A4301D1EF
:100890004008400010BDF0B51FB482B005460C0002
:1008A00003D0084601F022FC02E001F01FFC2030DA
:1008B0000246009021462846FFF76BFF049B059AED
:1008C00004460F4618431143084314D018461043FA
:1008D0001BD0009840210A1A18460599FFF769FFB6
:1008E00005460E46009A05990498FFF752FF084303
:1008F00005D0012004E02046394607B0F0BD0020B5
:10090000C11705430E432C43374300990E986305E6
:10091000401A7905E40A00220C43FD0A0A3002D588
:1009200000200146E9E70105101969410C9C0D9D65
:1009300000196941FFF7A2FFDFE770B54B005B08C4
:1009400003430BD04B005C0D002633466542B34198
:10095000D417AD1AA34102DB0020014670BD120579
:100960003018514170BD00004A0009030123090BF2
:100970001B0519430A4B10B5520D9A4202DA0020AA
:10098000014610BD064B34339A4203DC9A1AFFF736
:1009900010FF10BD034BD218FFF7FBFE10BD000087
:1009A000FF030000CDFBFFFF10B5002904DB01248D
:1009B000E40740428C412146002B04DB1C46012306
:1009C000DB075242A341994200D1904210BD000082
:1009D0001CB5094800900948019005460126009C75
:1009E00005E0E36807CC33430C3C98471034AC4235
:1009F000F7D3FFF769FB00004C3600006C360000AF
:100A0000FEB500231A461B1A8A4103DB002001466B
:100A100003B0F0BD4A000D0301212D0B0905520D55
:100A20000D43D10702D100186D41521E5110FF3104
:100A3000FF310131002704463E46384600970191B8
:100A40000246012100200905FFF7B3FEC3197141D9
:100A5000F818324684468E464A4161462846611A55
:100A6000904104D36046241A954176461F462419C6
:100A700000986D41401C00903428E1DDF9193046A2
:100A80007041091BA84103D20022D243134601E062
:100A90000022134601980105381C7141FFF7EEFE54
:100AA000B6E7000080B582B0EE48006801900848C3
:100AB0000068C0B2092802D10648012101700198DE
:100AC000E8490968814201D102B080BD01F0DEF839
:100AD00020100040B8012020B0B582B0EF4A126863
:100AE00001920A78032313400F4A84580F4D254082
:100AF000EB18A92424061B198350072212064B6801
:100B000013401124240205599543EA180251001993
:100B1000497801610198E1490968814201D102B037
:100B2000B0BD01F0B3F8C04608080000FCFFFF00AC
:100B300080B582B0D94909680191811E091F00BFA3
:100B4000FCD20198EE490968814201D102B080BD12
:100B500001F09CF8F0B585B0E94A126804920B796F
:100B60004A79002A2AD01E4A1E4C1F4F21252D01EA
:100B7000202B00D07035861802190192C219002B63
:100B800000D1882517684F4C27407F191760576898
:100B900027407D19556035688E4F3D40356075683A
:100BA0003D4075600025019C256065608F24E4430D
:100BB00015692540156155692540556102AA1371D3
:100BC0008B79537109680291114600F00FF804986F
:100BD000D7490968814201D105B0F0BD01F056F84E
:100BE000381800005818000078180000F0B585B0DB
:100BF000CF4A12680492754A82180292824BC61834
:100C00008D4BC21800922E4BC4180A7901910D68C1
:100C10002C4F202A03920AD0284BC018002A17D143
:100C20006B1E029A536023683B40882517E0681EBC
:100C3000029A506020683840234B18432060606857
:100C400038401843606001204507204F104608E0F7
:100C50006B08029A536023683B400525ED012B4346
:100C60002360009903683B402B4303603068594B75
:100C7000184030607068184070600020086048605C
:100C80008F20C0432369034023616369034063618C
:100C90000198407903990843BD21014010680C4B2D
:100CA0000340C818801C10600498A149096881425B
:100CB00001D105B0F0BD00F0E9FFC0467418000096
:100CC0007018000024F93FF001040000FFFFFFCF7F
:100CD0004000FFCF70B582B0954A126801923B4A3E
:100CE00082184B685360484BC3180878222857D89D
:100CF000840001A52C59A746970D0000A10D000006
:100D0000970D0000A10D0000A10D0000A10D000035
:100D1000A10D0000A10D0000A10D0000A10D00001B
:100D2000A10D0000A10D0000A10D0000A10D00000B
:100D3000A10D0000A10D0000850D0000A10D000017
:100D4000850D0000A10D0000A10D0000A10D000007
:100D5000A10D0000A10D0000A10D0000A10D0000DB
:100D6000A10D0000A10D0000A10D0000A10D0000CB
:100D7000A10D0000A10D0000850D0000A10D0000D7
:100D8000850D0000032424071568A543012464078A
:100D90002C19146004E0032424071568A54315608A
:100DA0000C69D460CC680A4D25401C68094E264069
:100DB00074191C60097A014311600198DD490968C2
:100DC000814201D102B070BD00F060FF0418000044
:100DD000777702008888FDFF10B582B0D54B1B687D
:100DE000019307239B04194092008018064A8458F7
:100DF0009C43611881500198FA490968814201D1E8
:100E000002B010BD00F042FF3018000010B582B0F3
:100E1000F44C24680194049CA40000191143194364
:100E2000054A81500198EF490968814201D102B019
:100E300010BD00F02BFFC0465018000080B582B0F6
:100E4000F94B1B68019392008018054A8150019864
:100E5000F5490968814201D102B080BD00F016FF5A
:100E6000101800001C00202010B582B0EE4A126855
:100E700001920122120383180C789C604B788350F6
:100E80008978054A81500198E7490968814201D172
:100E900002B010BD00F0FAFE0C1100001C00202072
:100EA000B0B582B0F64A126801921122120283583C
:100EB0000124A34383508B780C881C438B882343E5
:100EC0000D4C1C4083580D4D1D402B1983508B79C0
:100ED000CC791C43097A21437E231940801842684B
:100EE0009A43511841600198F3490968814201D140
:100EF00002B0B0BD00F0CAFE18670000E798FDFF21
:100F00001C00202010B582B0EB4A12680192012229
:100F1000120383180C789C60497881500198E64947
:100F20000968814201D102B010BD00F0AFFEC04699
:100F30001C002020F0B581B0DF48006800907848A0
:100F40000188EB22D24316460B4601E0361D0ED037
:100F50008719F6243D5B9BB2AB4200D82B46F8259F
:100F60007F5BBB42F2D83B46F0E7121D0AD08618E1
:100F7000375B89B2B94200D33946765BB142F4D3CC
:100F80003146F2E7C918490800230A2201E0121D80
:100F90000833C41865898D420ED9A5898D420BD9B5
:100FA000E5898D4208D9258A8D4205D2658A8D4210
:100FB00002D2A58A8D4238D3E02B3DD0A5898D423F
:100FC0000ED9E5898D420BD9258A8D4208D9658ACB
:100FD0008D4205D2A58A8D4202D2E58A8D4226D362
:100FE000E5898D420ED9258A8D420BD9658A8D42BD
:100FF00008D9A58A8D4205D2E58A8D4202D2258B79
:101000008D4216D3258A8D42C1D9658A8D42BED9BB
:10101000A58A8D42BBD9E58A8D42B8D2258B8D42F7
:10102000B5D2648B8C42B2D204E0D21E02E0921E92
:1010300000E0521E3B4B1A80E630782201E0121F7E
:101040000838C3888B420ED203898B420BD2438966
:101050008B4208D283898B4205D9C3898B4202D93E
:10106000038A8B4252D8D31E062B36D384888C42F7
:101070000ED2C4888C420BD204898C4208D2448997
:101080008C4205D984898C4202D9C4898C423FD8CC
:1010900044888C420ED284888C420BD2C4888C4205
:1010A00008D204898C4205D944898C4202D98489AA
:1010B0008C422FD804888C42C1D244888C42BED244
:1010C00084888C42BBD2C4888C42B8D904898C42B3
:1010D000B5D944898C42B2D91DE013480388114820
:1010E000008899B2091A0C2901DC002100E00121D5
:1010F0000E4A1160C018C0B240080D49087000982F
:10110000E6490968814209D101B0F0BD134602E009
:10111000531E00E0931E04480380E0E700F0B6FD94
:10112000200020202C0120202E0120205C012020E6
:10113000240120201C002020F0B581B0F148006877
:1011400000908720C10322480246103A12681346D5
:101150000B40204C23600123DD03D4031E4C09D433
:101160002A4213D01E0427681C4D2D6837420AD12D
:101170006D1C09E02768194E36682F4201D1751E93
:1011800002E0751C00E06D1E144E35609D0596034F
:1011900009D42A420FD05B042468114A12681C4209
:1011A00006D0521E05E023680D4A12682B42F8D083
:1011B000521C0B4B1A6002680A4302600098F44903
:1011C0000968814201D101B0F0BD00F05FFDC04669
:1011D00048100A403403202080130A4030012020A8
:1011E000340120201C002020B0B582B00446E8481D
:1011F000006801902F4D032C03D8A0002C4A1058F2
:101200002860084600F09AFD032C03D8A000284966
:10121000085828610198DE490968814201D102B06D
:10122000B0BD00F033FDC0461C00202080B582B068
:10123000D74A12680192002810D0104A13885B1C0C
:1012400013809BB2834210D1032904D88800184927
:101250000858184908620020108006E0032904D8C5
:10126000880013490858134908600198EA49096839
:10127000814201D102B080BD00F008FD380120207C
:101280001C00202080B582B0E34909680191032841
:1012900004D8800006490858064908600198DE49CC
:1012A0000968814201D102B080BD00F0EFFCC04668
:1012B000F835000090320A401C00202010B582B0A2
:1012C000F748006801900124A0071349FFF704FCC8
:1012D00012484168124A0A4061045118416081680D
:1012E000104A0A408260104900220A6018214161B8
:1012F00021020E4A136A0B43136213680B431360F7
:101300000168214301600198E5490968814201D1E2
:1013100002B010BD00F0BAFC083600000011004019
:10132000FEFFECFFF8FFE0E08011004028100040D5
:10133000B0B582B0F04800680190294984220A645F
:101340002848102303600A630222026082230B658F
:10135000254A541C4C658B65CC65244B81245C600C
:101360009C601C60CC629C649C65CC664A64204D89
:101370001D665C665C641A645A611A619A619A63BC
:101380000C604C60DA611B491B4A0A6103230B6045
:10139000D21C0A6401218A07184B1C6814431C6084
:1013A0001A69174C14431C618722D203154B1C6A1F
:1013B00014431C621C6814431C600246303A124BF2
:1013C00013600360880211490A6802430A600198A9
:1013D000E7490968814201D102B0B0BD00F056FC76
:1013E00004804240D0320A408100040084804240A0
:1013F0008100010090120A400030000290130A4060
:101400000510000028100A400108C10CA0330A4052
:1014100070B582B0F24800680190EF4C1C4920463C
:10142000FFF722FD1B492046FFF794FB002500959E
:10143000204629462A462B46FFF7E8FC2046294647
:101440002A46FFF7C9FC204629462A46FFF7F6FC44
:1014500001260096204629462A462B46FFF7D6FC51
:10146000204629463246FFF7B7FC20462946324639
:10147000FFF7E4FC08488660032101600198D84921
:101480000968814201D102B070BD00F0FFFBC04687
:101490001036000014360000003186401C00202069
:1014A00080B582B0CE4800680190134800210160E9
:1014B0000320C14311480246083A13680B401360E9
:1014C0000168012291430160110203688B430360AC
:1014D0001103001F02680A430260FF20000208494E
:1014E0000A6882430A600198BD490968814201D1B6
:1014F00002B080BD00F0CAFB08030B4008010B409E
:1015000000E400E01C00202080B582B0B4480068F0
:1015100001900A48042101601F214160002181607F
:10152000016805220A4302600198AD4909688142B9
:1015300001D102B080BD00F0A9FBC04610E000E080
:1015400010B582B0A648006801900C4C0C492046AA
:10155000FFF78AFC0B492046FFF7BCFB0A480168ED
:101560000122114301600948026001989C49096801
:10157000814201D102B010BD00F088FB000086401E
:101580001C360000203600002810864008118640D6
:101590001C00202010B582B0914800680190194CC1
:1015A00019492046FFF7AEFC18492046FFF778FCA2
:1015B0000320C103164802688A4302600169364A63
:1015C0000A40911C016141690B220A4334218A437C
:1015D00042614168012211404368934359184160B8
:1015E00091020C4B1C680C431C60016811430160A4
:1015F0000198E9490968814201D102B010BD00F0AB
:1016000045FBC046008010403436000036360000EE
:1016100000911040289010401C00202010B582B08E
:10162000FC4800680190184C18492046FFF76AFCF6
:1016300017492046FFF734FC0321CA031548036805
:10164000934303600269144B13401A3303614269E8
:101650000A433C218A4342614168012211404368A8
:1016600093435918416091020C4B1C680C431C6059
:101670000168114301600198E6490968814201D17E
:1016800002B010BD00F002FB000010404036000028
:1016900042360000001110400000FFFF28101040EB
:1016A0001C00202080B582B0DA480068019000F06C
:1016B00025F8FFF73DFEFFF7F3FEFFF7A9FEFFF762
:1016C0003FFFFFF767FFFFF7A9FFFFF7F7FDFFF702
:1016D0001BFFB820064900220A5406490A54019803
:1016E000CC490968814201D102B080BD00F0CEFA38
:1016F00078022020BC0120201C002020F0B581B001
:10170000C44800680090114811494160114A516075
:10171000114B5960114C6160114D6960114E71603F
:10172000114F7960114901601160196021602960D1
:10173000316039601020FFF7FBF90098B54909685E
:10174000814201D101B0F0BD00F0A0FA00080A40CA
:10175000030000B100280A400028864000088640A7
:1017600000881040000810400008004001000026DA
:101770001C00202070B582B00C460146FD48006870
:101780000190012630037303124A012902DB136022
:10179000106102E01060136149420F4D002228469B
:1017A000FFF74CFB31040D48012C02DB06600161A0
:1017B00002E0016006616442012228462146FFF7EB
:1017C0003DFB0198EB490968814201D102B070BD2F
:1017D00000F05CFA90120A400020864090320A40E5
:1017E0001C002020F0B581B0E24800680090564807
:1017F0000068000600D19DE054480168544E3160F5
:1018000054490A6800240C60534F3A600460642015
:101810000221FFF70BFD51480178514A1278002A46
:101820002CD0002905D1012101704E480178491CB6
:101830000170CA480068FEF72DFF05460E464A486B
:101840000068FEF727FF494A494BFEF7E5FD0746CA
:101850000C462A463346FEF72DFDFEF7F7FE0146FD
:101860004448016028460D4631463A462346FEF775
:10187000C5FDFEF7EBFE364E374F3DE0002900D0A8
:10188000047038480078002819D03B49096848435B
:101890003A4908603A4909683A4A1268511881423F
:1018A00010DDAE48046838492046FEF72FFCFEF7ED
:1018B000B3FE05462F4805600120810710E0A748C8
:1018C000006814E0A548046810DA01218907204661
:1018D000FEF71CFCFEF7A0FE0546264805602A49D7
:1018E0002046FEF713FCFEF797FE05E02046FEF7C4
:1018F00093FE204908600546244C20603168684208
:10190000494200F039F9224D286039682068404288
:1019100000F072F901461F4801602868FFF72AFFAE
:10192000306817490A6810180860386815490A684D
:10193000101808600098D4490968814201D101B0AB
:10194000F0BD00F0A3F9C0462010864030012020F1
:10195000B001202034012020B401202038032020B1
:101960005C0120205401202058012020CDCCCCCC7B
:10197000CCCCF43F44012020080020202801202066
:101980004C01202050012020000080BF4801202071
:101990003C012020400120201C00202010B582B0F6
:1019A000E5480068019016480068C0B20B281ED1B7
:1019B0001448C169144A13887E2B13D813885C1C01
:1019C0001480124AD1540268D20708D00268D207A4
:1019D00005D00268D20702D00268D207F3D1C9B29B
:1019E000816101E000201080094801210170019807
:1019F000E9490968814201D102B010BD00F046F901
:101A00002090104008911040BA0320203903202074
:101A1000B90320201C002020F0B585B0F6480068EE
:101A2000049047480068C0B20B287FD14548006841
:101A3000C1B27D2905D07B290BD14D4901220A7005
:101A40000BE04149C87850280ED148480121017067
:101A50005FE047490978012968D13C490A783A4B47
:101A60009854501C087061E04878232851D0374AB8
:101A70001678374F3E70042E33D3F0B232494118F6
:101A8000491E0D781178081AFEF7B2FD02460B4682
:101A90000020304901F048F8039002913878461E42
:101AA0003E70303D2846FEF7A3FD05460C462A4809
:101AB0000068FEF7EFFD0190009128462146039A49
:101AC000029BFEF7A9FC019A009BFEF7F3FBFEF7D1
:101AD000F5FD1E4A1C49204B1860F0B20328CCD8F3
:101AE0004878322811D0312808D0302811D11A482E
:101AF00000681B49FEF7A0FB1B4909E01648006877
:101B00001749FEF799FB174902E01348006813498B
:101B100008600E4800210170154801700C480170E2
:101B20000D48016008483221FEF7E5FA0498C349E0
:101B30000968814201D105B0F0BD00F0A7F8C046A8
:101B40002010104024111040680120209A0120200C
:101B50009B01202000002440600120209C012020C7
:101B600000007A4414002020180020203A01202090
:101B7000640120201C002020B0B582B0451A1C480A
:101B800001680560681AFEF727FD04462846FEF73F
:101B900023FD014637480068FEF711FB054636482D
:101BA00000682146FEF70BFB2946FEF7AFFA044614
:101BB000104D2868FEF710FD01462046FEF7A6FAF4
:101BC000FEF72AFD28609D49096801912C49884249
:101BD00002DC2C49884201DA296008460199974ABB
:101BE00012688A4201D102B0B0BD00F04FF8C04681
:101BF000A4012020A0012020B0B582B0451A1C48C5
:101C000001680560681AFEF7E7FC04462846FEF7FF
:101C1000E3FC014617480068FEF7D1FA054616486E
:101C200000682146FEF7CBFA2946FEF76FFA044614
:101C3000124D2868FEF7D0FC01462046FEF766FAF2
:101C4000FEF7EAFC28607D49096801910C49884249
:101C500002DC0C49884201DA296008460199774A7A
:101C600012688A4201D102B0B0BD00F00FF8C04640
:101C7000AC012020100020200C002020A8012020F2
:101C80007F0C000081F3FFFF1C00202002A42046EF
:101C900001F034FCFBE7C0463D3D3D3D3D3D3D3D53
:101CA0003D3D3D3D3D3D3D3D3D3D3D537461636B9F
:101CB00020736D617368696E672064657465637411
:101CC00065642E3D3D3D3D3D3D3D3D3D3D3D3D3D04
:101CD0000000000080B582B05848006801900120E3
:101CE000000212490A6802430A601148017800297B
:101CF0000DD120BF0178002909D120BF017800292A
:101D000005D120BF0178002901D120BFEEE70949A4
:101D10000968002202700198484A1268824202D182
:101D200088B202B080BDFFF7B1FFC0460411004089
:101D3000B8012020806255401C002020B0B582B040
:101D40003E49096801917D21090241432948036800
:101D5000262206E0E41A051F2D686419A2188A429B
:101D600010D21C460368A34208D10368A34205D1E0
:101D70000368A34202D10368A342F3D09C42E9D98D
:101D8000E41AEBE701982D490968814201D102B0BC
:101D9000B0BDFFF77BFFC0461C002020B0B582B06D
:101DA000264909680191400112490B68262206E084
:101DB000E41A0D1F2D686419A218824210D21C4625
:101DC0000B68A34208D10B68A34205D10B68A3425C
:101DD00002D10B68A342F3D09C42E9D9E41AEBE7A5
:101DE000019816490968814201D102B0B0BDFFF7E0
:101DF0004DFFC04618E000E01C00202080B582B0F6
:101E00000E49096801910C490A68D20708D00A688E
:101E1000D20705D00A68D20702D00A68D207F3D1E8
:101E2000C2B28A610199054A12688A4201D102B0A0
:101E300080BDFFF72BFFC046081110401C0020207A
:101E40008EB0FFF72FFC7A4801680124214301601E
:101E5000E003784908606003086002220A6076495E
:101E600008600A6010200860A004086073A001F0F8
:101E700045FB002564212846FFF7B6F90D9420465E
:101E8000FFF700FA734F744C05E02170C8B2401C94
:101E9000C821FFF7A9F938688006FCD43220FFF783
:101EA0004DFF386880061CD40A20C64303E0761C28
:101EB0003868800612D46420FFF740FF34460B34A4
:101EC0000A2CF4D300206421FFF78EF91E2CEED3E8
:101ED0007D20C1000020FFF787F9E8E7132E5E4C54
:101EE0000BD332212846FFF77FF92078401CC1B27E
:101EF00003292946C9D80146C7E70025C821284635
:101F0000FFF772F92078401CFFF7BCF953480570C1
:101F100041200006524908600D98C7054006089008
:101F2000514C1920FFF70AFF276005252846FFF7C7
:101F300035FF089E4B4806610A200D90FFF72EFFE3
:101F400027612846FFF72AFF464806601E20FFF754
:101F500025FF27602846FFF721FF424806600D98BD
:101F6000FFF71CFF27602846FFF718FF3D48066172
:101F70000D98FFF713FF27616420FFF70FFF8025FF
:101F80003A4E27616420FFF709FFFFF7A3FE2760A1
:101F9000000930801420FFF701FFB61C6D1EF0D140
:101FA000FEF7C8FF324800784038FEF715FB0546BB
:101FB0003048016805602846FEF7F9F82E4909689F
:101FC000FEF7FDF806462D4801682846FEF7F7F8AB
:101FD0003146FEF79BF82A4908602A4800780D90A0
:101FE0001E4800780C90284800680B90274800682D
:101FF0000A90274806682748006809902648036821
:102000002648006826490D6826490A78C1180090BC
:102010000B9801900A9802900396099804900591F4
:102020000695079220A00D990C9A00F04FF878E7DA
:102030000438864080E200E000E100E0537973203C
:10204000696E697420646F6E652E2042656570212B
:102050000000000080330A40BC0320203803202009
:102060009C01202090120A4090320A40200020203B
:1020700024012020200120201400202018002020EE
:10208000580120205C01202044012020480120200C
:102090003C012020400120204C0120205001202024
:1020A000280120205401202025642C25642C25643F
:1020B0002C25642C25642C25642C25642C25642C6B
:1020C00025642C25642C25640A0000000FB410B58B
:1020D00003A9044B044A029800F08AF910BC08BC1A
:1020E00004B01847FD1D0000000020202021020C34
:1020F00001D010211046020A01D010460839020909
:1021000001D01046091F820801D01046891E4208DE
:1021100001D0881E7047081A704700004900CA02A3
:102120000243100000D004204A0D01D001221043C8
:10213000044A490D914201D102210843012800D1EE
:1021400005207047FF070000F8B504464F1EC80081
:102150000838211815461E46086849683A4606237D
:102160009A4310D02A463346FEF756F93A46D20033
:10217000083AA3181A687F1E5B68FEF79BF80622D0
:102180003B469343EED1022F23D0042F11D0062FCC
:102190002FD12A463346FEF73FF9E36AA26AFEF7DB
:1021A00089F82A463346FEF737F9636A226AFEF752
:1021B00081F82A463346FEF72FF9E369A269FEF754
:1021C00079F82A463346FEF727F963692269FEF754
:1021D00071F82A463346FEF71FF9E368A268FEF756
:1021E00069F82A463346FEF717F963682268FEF756
:1021F00061F8F8BD002210B5134610460149FEF7FC
:1022000073F910BD0000F03F10B5FEF753F810BD94
:10221000002210B5134610461146FEF765F910BDB1
:1022200010B50721024A00200907FEF786FB10BD02
:1022300001030000034A10B500201107FEF77DFBE3
:1022400010BD000001FDFFFF02E008C8121F08C119
:10225000002AFAD17047000070470000000000001B
:10226000002001E001C1121F002AFBD170470000CD
:10227000014908607047000004002020F0B51FB439
:1022800086B00998089A030D0021024314D05148E2
:10229000514A1818504305141198012810981AD063
:1022A000281A401C00264D4F4D490096019104907C
:1022B000002812DA444211E01198012449A30128B0
:1022C00001D11098C1430698119A84600360C260DE
:1022D00041600BB0F0BD4042E4E704462105002018
:1022E0003F4A001C51410391029012E0E00707D0E1
:1022F00032463B4601990098FEF78EF80191009016
:1023000032463B4610461946FEF786F806460F460B
:102310006410002CEAD10498039B0028029A0999C2
:10232000089806DAFEF778F8019B009AFEF774F831
:1023300005E0FEF7D9F8019B009AFEF7D5F80446B0
:102340000E460022284BFEF72FFB03D80020C04387
:10235000014607E00022254B20463146FDF7AAFF43
:10236000FEF702FB102409E0002C0ADB0A220023FE
:10237000FEF7DFF9079B30321A55641E02460A4306
:10238000F2D11122641C079B121B1C19119B012BFB
:1023900003D0012308430ED10AE0084304D01120E2
:1023A00010900020119077E71098151A6D1E0BE021
:1023B0001098824202DD00236D1C03E0824201DAA4
:1023C00000236D1E002BEED0069811998260C1602B
:1023D00030C07EE701FCFFFF104D000000001440FC
:1023E0000000F03F300000000000F0430000E03F3C
:1023F000FFB597B00646002518E2252877D10024BE
:102400002746FD49049400E00443761C32780120FD
:10241000203A90400842F7D130782A280ED0022284
:10242000307801463039092916D804990A235943CE
:10243000303940181443761C0490F1E7189802C80C
:1024400004911890002904DA012040030443484213
:10245000049002200443761C30782E2814D10420E6
:1024600004437078761C2A2809D11898761C80C8F5
:10247000189009E00A214F43303FC719761C307885
:10248000014630390929F5D930786C2810D006DC9E
:102490004C281AD068280ED06A2817D104E0742876
:1024A00013D07A2812D110E00120400504430CE03B
:1024B0000121090501E0032109050C4371788142DE
:1024C00003D1012000052418761C761C3078119069
:1024D00066280BD013DC58287DD009DC00287BD07F
:1024E0004528F6D04628F4D047281AD1A5E118E0AF
:1024F000632835D0642870D0652812D19DE17028FA
:102500006CD008DC6728F1D069287BD06E280DD00C
:102510006F2806D1BAE073282ED0752871D078289C
:1025200059D01A9A199990476D1C7EE16002400FAC
:10253000022809D003280DD00428189801680DD06E
:102540000D60001D189070E11898EA1701680D6081
:102550004A60F6E7189801680D80F2E70D70F0E721
:1025600018986A4601781172001D18900020507268
:1025700002A80090012005E0189802C818900020D9
:102580000091C04361070DD5002101E00199491C6C
:102590000191B94212DA8142F8DB009A515C0029BC
:1025A000F4D10BE0002101E00199491C0191814225
:1025B000FADB019A0099895C0029F5D10199049808
:1025C0001A9B471A21463846199A00F097FA019942
:1025D000401945180BE04FE02CE113E04EE0009865
:1025E00000990078491C00911A9A1999904701980E
:1025F000401E0190401CF2D1214638461A9B199A80
:1026000010E137E00A200021009001916002410FA3
:10261000022907D0189A01CA1892C21794460329B2
:1026200008D00AE01898C01DC108C90005C9189152
:10263000944607E000B2C2179446042902D140B282
:10264000C1178C4600226146944506DA0A460021ED
:10265000404291418C462D2102E0210504D52B21D9
:102660006A461173012103E0E10701D02021F7E759
:10267000029155E00A200AE0102008E010200090A6
:102680000021042004430191082703E008200021D1
:10269000019100906002410F022907D0189A01CAE7
:1026A000189200229446032908D008E01898C01D0B
:1026B000C108C90005C91891944603E080B20429F5
:1026C00000D1C0B200210291210729D511997029AA
:1026D00006D0009A1021019B4A401A4305D00EE013
:1026E00040216A461173012108E06146014306D08A
:1026F00030216A4611731199517302210291009A97
:102700000821019B4A401A430AD16146014301D185
:10271000610705D530216A46117301217F1E0291A0
:102720001199582904D035A10E910DA90D910DE0F4
:1027300037A1F9E76146019B009AFDF7FAFF0E9B6E
:102740008C469B5C0D9A521E0D921370614601439C
:10275000F0D10D9805A9081A20300190600703D523
:1027600001200004844300E001270198874201DD35
:10277000381A00E0002001990090411802980918C9
:102780000498401A0490E00306D421461A9B199A33
:10279000049800F0B3F94519002706E003A81A9A37
:1027A000C05D199990476D1C7F1C02988742F5DB2C
:1027B000E0030CD521461A9B199A049800F09EF963
:1027C000451904E01A9A3020199990476D1C009918
:1027D000481E00900029F5DC08E00D980D9900785E
:1027E000491C0D911A9A199990476D1C0199481E20
:1027F00001900029F1DC63E1092801003031323316
:10280000343536373839616263646566000000002C
:102810003031323334353637383941424344454616
:102820000000000000F05AF94519761C30780028A5
:1028300000D0E2E528461BB0F0BD600700D40627B3
:102840001898C01DC108C90048680A680831C30F3C
:10285000DB071891190001D09CA108E0210501D5E2
:102860009BA104E0E10701D09AA100E09AA14300F6
:1028700011985B08109165280CD006DC452809D01A
:1028800046281DD0472841D141E0662818D0672846
:102890003CD13CE00021112F01DB112000E0781C2D
:1028A0000191009008A911A8FFF7E8FC1399059180
:1028B0000021119A15927F1C12980197009150E007
:1028C0000120C00703900120019008A9009711A8DA
:1028D000FFF7D4FC139A149905920022119B0092E1
:1028E00012981593059A0192002901D0104602E032
:1028F000791C40180190381A01D5019804E0404233
:10290000401E0090781C0190C01B029043E0012FF4
:1029100000DA01270021112F01DD112000E03846E7
:102920000191009008A911A8FFF7A8FC139905913F
:10293000119A0021129815920091019721070CD449
:102940000599B94201DB019900E00191012904DDFB
:10295000159A491E515C302906D0B84201DA011D92
:1029600005DA0121029115E00199491EEDE70028E1
:1029700005DC0099411800910199091A03E0019AB8
:10298000411C914200DD01910099401A401C0290C7
:102990000120C0070390200706D4029901988142C4
:1029A00002DB0020C043029000206946C87707AFD1
:1029B000012103980337C907884224D002201190CF
:1029C0002B201290039800280CDA404203902D200F
:1029D000129007E00A210398FDF78CFE30317F1E2C
:1029E000039039701199481E11900029F2DC039868
:1029F0000028EFD1791E1298087030782021084005
:102A00004530BF1E387006A8C01BC01D039010982B
:102A10000078002800D00120019941180298C017C1
:102A20000918039809180498401A401E0490E003FE
:102A300006D421461A9B199A049800F05FF84519AC
:102A400010980078002803D01A9A199990476D1CA5
:102A5000E00324D521461A9B199A049800F04EF8F9
:102A600045191CE00098002807DB0099059888426A
:102A700003DD1598405C199901E0199930201A9AE4
:102A8000904700986D1C401C00900298401E0290D8
:102A9000002804D11A9A2E20199990476D1C01998B
:102AA000481E01900029DDDC05E038781A9A7F1C69
:102AB000199990476D1C0399481E03900029F4DC76
:102AC00021461A9B199A0498ACE600002D000000DC
:102AD0002B0000002000000000000000F8B50446B4
:102AE00000251E461746880404D405E039462020F8
:102AF000B0476D1C641EF9D52846F8BDFFB50446E5
:102B0000002581B01E46C80301D5302700E02027EC
:102B1000880404D505E038460399B0476D1C641E4F
:102B2000F9D5284605B0F0BDF0B51FB494B0844681
:102B30000C460246179D16980090490068006300F5
:102B4000490840080393002A01D0012600E000262E
:102B50009E19FB4BF6185B109E422BD36E00009F14
:102B60000196002F00D00127F719F54EF54BBE193D
:102B70009E421FD3009E0346F34F334309D03B468A
:102B80009C4201D1002A04D0039B002A05D00126D3
:102B900004E00020394619B0F0BD00269E19EB4B29
:102BA0009E4207D8009F019E002F00D00127F619F2
:102BB0009E4207D92B4660462146169AFFF724FB12
:102BC00019B0F0BD0023002C29DAE14EB04226DA1C
:102BD000E04EB04201DB022321E0DB4EB0421EDBBF
:102BE000DD4E070DBE19142E09DD3427BF1B009ED4
:102BF000FE400196BE40009FBE420BD00FE0009FFA
:102C0000002F0CD11427BF1B0646FE400196BE4084
:102C1000864204D1019BDE07F60F02239B1B0E4662
:102C2000164318D1002D16DA002C03D0022B01D048
:102C3000012B06D00220FFF71BFBFFF7DBFA19B0D0
:102C4000F0BD0220FFF714FBFFF7D4FA0122D207F0
:102C5000514019B0F0BD009E002E61D1BC4EB04273
:102C600020D1BE48844201D1002A08D0B648814212
:102C700009DB002D10DB1698294619B0F0BD0020A5
:102C8000B14919B0F0BD002D06DA01222946D2075C
:102C90001698514019B0F0BDB149794408684968A7
:102CA00019B0F0BDA84FB84225D1002D1FDA002978
:102CB00004D0B14212D1002A09D018E0002A72D102
:102CC000A349E20F0020D207114319B0F0BD002044
:102CD000E20F0146D207114319B0F0BDB14206DA46
:102CE000234600203946FDF7FFFB19B0F0BD104622
:102CF000214619B0F0BDB14212DA0126B607B5423D
:102D000003D1234610461946EFE3964EB54207D14C
:102D1000261E05DB1046314600F000FC19B0F0BD60
:102D200067007F081646002A40D100290AD0884A49
:102D3000914229D1002C0EDD002D1CDB0020114614
:102D400019B0F0BD022B16D0002C14D0012B12D1DB
:102D5000002C14DB0FE0002C28DA002D09DB012BFE
:102D600003D000207A4919B0F0BD00207E4919B087
:102D7000F0BD012B03D00020014619B0F0BD0020AA
:102D80000121C90719B0F0BD6F4A91420ED1002C44
:102D900001DA002B17D0022B06D00020C043FDF72C
:102DA00027FC19B0F0BD7AE20120F8E7E217521CC7
:102DB00094461A4307D000220692634C62465B1E7B
:102DC0001A4307D009E00120FFF752FAFFF720FA73
:102DD00019B0F0BD0022614C0692644A90427DDD3C
:102DE000634B644A98420ADD914202DC002D10DBFD
:102DF00025E05548814202DB002D0ADC1FE09142AC
:102E000002DA002D05DB1AE04F4B994223DD002D3D
:102E100015DD0220FFF72CFAFFF702FA05460E46F1
:102E200000224B4B21460698FDF7F6FA0846710042
:102E30004908C00FC0070143284619B0F0BD022061
:102E4000FFF716FAFFF7F6F949004908E20FD20733
:102E5000114319B0F0BD002230463946FDF7CEFAD5
:102E6000012205460E46D243FDF767FD424A434B19
:102E7000FDF7CAFA2A463346FDF7CEFA0022394B4F
:102E8000FDF7C2FA07462A46334601911046194615
:102E9000FDF7C2FA3A46019BFDF7BEFA074603204A
:102EA00007912A46334640073549FDF7B5FA0191A7
:102EB0000890344A324B38460799FDF7ADFA074679
:102EC0000291314A314B28463146FDF7A5FA3A4680
:102ED000029BFDF793FA07460B4600E013E002461B
:102EE000079101990898FDF7E5F900250E46284657
:102EF000019B089AFDF782FA3A46079BFDF784FA90
:102F000002460B468DE1012500202D05A94207DA76
:102F1000352230463946FDF710FD06463420C043C1
:102F20000A1512180C48084F101803900803000BDC
:102F3000014639430491164988422BDC00202DE0DC
:102F4000FFFF1F00FFFF0F000000F03F0000E0FF49
:102F50000000F07F0000404301FCFFFF0000F0BFD5
:102F6000520900000000E03F0000F0FF0000E041D7
:102F70000000F043FFFFEF3F555555555555D53FE0
:102F80004715F73FFE822B6544DF5DF80BAE543EDC
:102F90008E980300FE49884202DA01200F9007E074
:102FA00000200F900398401C03900498401B04904D
:102FB000049909910F98F749C00079440D900818B9
:102FC0004368026830460999FDF718FA0191F24901
:102FD000089079440D9808184368026830460999AA
:102FE000FDF768F902460B4600203946FDF77CFAEA
:102FF00007910A90019B089AFDF70EFA1090E74896
:103000000F4600257844006804990C90481001216F
:10301000490708430F99890440180121C904411840
:103020000491DF4979440D980818436802680499AF
:103030000C98FDF7E3F93246099BFDF7E5F92A46BE
:103040003B46FDF7E9F90991064628463946049BB7
:103050000C9AFDF7E1F9019B089AFDF7D5F9324684
:10306000099BFDF7CBF9079B0A9AFDF7D5F90F915C
:10307000109A00903B4610461946FDF7CDF90646DA
:103080000246C8480B46079106217844FFF75CF8D2
:10309000079B32460191049010461946FDF7BCF992
:1030A000019B049AFDF7B8F9019106463B46284674
:1030B0001946109AFDF7FEF80F9B009AFDF7ACF940
:1030C0003246019BFDF7F6F82A463B4601910890EF
:1030D00010461946FDF7A0F902460B4607910A90E3
:1030E0000020B149FDF7E6F8019B089AFDF7E2F8E8
:1030F0000E462A46AC4B2846FDF780F9079B0A9AF4
:10310000FDF77CF9019B089AFDF77EF92A460991A3
:103110001290334610463946FDF77EF9019108902A
:103120003B46109A09991298FDF776F907460791E0
:1031300033462A460F990098FDF76EF93A46079BE9
:10314000FDF7B8F807460B46024607910199089823
:10315000FDF7B0F80E462846019B089AFDF74EF998
:103160003A46079BFDF750F90746072007912A4684
:10317000334640078D49FDF74FF9029000918C4A84
:103180008A4B38460799FDF747F9074601912A46C9
:10319000334688488849FDF73FF93A46019BFDF7D9
:1031A00089F8864A05467A440D98101843680268E3
:1031B0002846FDF77FF8089001910398FDF718FA6B
:1031C0000B910746019B089A00990298FDF772F847
:1031D0007B4A05467A440D981018436802682846D1
:1031E000FDF768F83A460B9BFDF764F800250E469C
:1031F0003A4628460B9BFDF701F9724A07467A4486
:103200000D981018436802683846FDF7F7F8009BE0
:10321000029AFDF7F3F8019B089AFDF7F5F80246CC
:103220000B461799002002900F461698FDF7F4F808
:10323000039100903B46029A17991698FDF7DEF825
:103240002A463346FDF7E8F8039B009AFDF732F86B
:1032500007910C902A46334639460298FDF7DCF870
:1032600006460F46079B0C9AFDF724F8564A0D4672
:10327000914220DB5242AA18024310D132463B460B
:10328000FDF7BCF803910890504A514B07990C98F0
:10329000FDF710F8039B089AFDF786FB1ED202206B
:1032A000FEF7E6FFFEF7BCFF49004908E20FD20730
:1032B000114319B0F0BD6A00464B52089A420DD333
:1032C000454AAA18024300D0B9E532463B46FDF70D
:1032D00095F8079B0C9AFDF767FBF5D96A00002368
:1032E00052083E480393110D3D4B09189A4223DDC5
:1032F00001221205491CCA4052195100490D0818F3
:1033000038497944096813468C463749C1408B4394
:1033100012030121120B090551181422101AC14081
:103320000391002D01DA4842039062463046394647
:10333000FDF764F806460F4632463B4607990C985F
:10334000FCF7B8FF00252A46284B28460B91FDF7CD
:1033500063F801910890264A264B28460B99FDF701
:103360005BF80291009032463B4628460B99FDF7E8
:1033700045F8079B0C9AFDF747F81F4A1F4BFDF7CE
:103380004BF8029B009AFCF795FF07460B4637E087
:103390007AB60B00AA05000092050000E8050000BF
:1033A000400500000A0500000000084009C7EE3F84
:1033B000FD033ADCF5015B14E02F3EBEDE030000A6
:1033C000A00300007603000000009040FE822B6501
:1033D0004715973C00CC904000346F3F01FCFFFF45
:1033E0000000E03FEA020000FFFF0F00432EE63F2F
:1033F000396CA80C615C20BEEF39FAFE422EE63F24
:103400000246079101990898FCF754FF0E460546BD
:10341000019B089AFCF7F2FF3A46079BFCF7F4FF82
:1034200007912A4633460C9010461946FCF7F4FFE4
:10343000074602462F480B460B9105217844FEF7BC
:1034400083FE3A460B9BFCF7E7FF2A463346FCF720
:10345000DBFF0746099128463146079B0C9AFCF78B
:10346000DBFF079B0C9AFCF725FF012301910890D5
:1034700000229B0738460999FCF7C0FF07910A9084
:103480003A4628463146099BFCF7C6FF079B0A9A35
:10349000FDF72AF8019B089AFCF7B0FF2A4633464D
:1034A000FCF7ACFF0022144BFCF7AEFF0546039877
:1034B0000E46000581190915002911DC2846314600
:1034C000039AFDF73AFAFEF729FE042801D1FEF728
:1034D000B1FE28463146039AFDF72FFA054600E073
:1034E00031180B462A4621460698FCF795FF19B07D
:1034F000F0BD0000880100000000F03F10B5044658
:1035000001E0FEF77BFC2078641C03490028F8D119
:103510000A20FEF773FC10BD00002020F8B5064617
:103520000C46FDF76DFA051E0F4600D00120014341
:1035300049000B484908411AC90F0DD0002E01D08F
:10354000012100E000210C4361004908401AC00F2E
:1035500002D10120FEF78CFE28463946F8BD000056
:103560000000F07F00000000000000000000F03FBD
:10357000000000000000F83F000000000000000014
:103580000000004003B8E23F00000000000000001F
:1035900006D0CF43EBFD4C3E033333333333E33FAD
:1035A000FFAB6FDBB66DDB3F4D268F515555D53FD9
:1035B00001411DA96074D13F65DBC9934A86CD3FA7
:1035C000EF4E454A287ECA3F3E5555555555C53F95
:1035D00093BDBE166CC166BF2CDE25AF6A56113F87
:1035E000F16BD2C541BDBBBED0A4BE726937663E89
:1035F00000000000000000000008000000000004BF
:103600000000000800004000010500000000000369
:1036100008000000800C0000200101000807C7001E
:1036200002000000C70000000100000000000000D0
:10363000000000000400000018000000003000003E
:103640000400000018000000003000007036000088
:1036500000002020200000004822000090360000DA
:1036600020002020A00400006022000000000000D4
:103670000000000000000000140500009A99993E27
:10368000000020414260E53B1283403DEFBEADDECD
:04000005000000C136
:00000001FF
