:020000040000FA
:10000000C8042020D5000000D9000000DB0000005B
:1000100000000000000000000000000000000000E0
:10002000000000000000000000000000DD000000F3
:100030000000000000000000DF000000E100000000
:10004000E3000000CD0D0000E3000000E30000002D
:1000500011090000E3000000E3000000E3000000DD
:1000600000000000E3000000E300000000000000CA
:1000700000000000B1130000E30000005D13000069
:10008000E3000000E3000000AD120000E300000008
:10009000E3000000E300000000000000000000009A
:1000A000E3000000E300000000000000000000008A
:1000B000E300000000000000E3000000E300000097
:1000C0000348854600F00CFC00480047F11600008C
:1000D000C804202003480047FEE7FEE7FEE7FEE7EE
:1000E000FEE7FEE7C1000000D2B201E00270401C52
:1000F000491EFBD270470022F6E710B513460A46A8
:1001000004461946FFF7F0FF204610BDF8B5024639
:100110004A40D40F42004B0052085B089A4202D278
:100120000246084611464A0023D0C30D4A00DDB2FC
:10013000120EAD1A202D35DA49020126490AF605BC
:100140008A19002C00D0524220214F1B1146B94081
:100150002A411018C20D9A4221D0002C17D0012D2F
:1001600008DCDA05801AD20F8019D207DBB200F062
:1001700066FAF8BDDA05801A012340001B06C01894
:1001800080185A428018CA0F1043490007E04908F6
:10019000C2071143DA05801A80194008801800F060
:1001A00046FAF8BD61000122511A001BF7E701224F
:1001B000D2075140AAE70122D2075040A6E70246E3
:1001C00070B54A40D30FDB0740002DD04A002AD03B
:1001D000010E140E000212020919400A520A841874
:1001E000E50104465443000A120A2E045043A419A0
:1001F0004219200CC543AA18120C0125AD03521C4C
:10020000521912047F39240400D0521C104301D427
:100210004000491EC2B20C06C0092018401C40080C
:10022000802A02D003E0002070BD40084000002971
:1002300000DA0020184370BDF0B507460846584064
:1002400087B0C00F049048000E4659004008490886
:10025000BC1A884105D2384631461E4617460B4621
:1002600002465800400810434CD0300D0390400522
:100270005900400D490D0590401A0290402872DA4D
:1002800018030121000B090508430190049800920E
:10029000002805D001995242002088410092019027
:1002A000029840210A1A0199009800F08CF905463D
:1002B0000C466B4607CB00F0A7F9C0197141039AB1
:1002C0000E0D0023D71756401A467A40164344D0E5
:1002D000049A002A2DD0029A012A039A15DC1205ED
:1002E000C01A914101263605001C7141D20F059EAE
:1002F000D2070093019202962A46234600F0E5F9C0
:1003000007B0F0BD38463146FAE71605224A0F46D7
:10031000B218C01AB74101210905001C4F4100184D
:100320007F41114618187941E20F10436D1964415D
:1003300013E0E2076D0815436408C2071443039AEB
:1003400001261205C01A91413605001C7141CE07E5
:10035000400830434908C01851412A46234600F05E
:10036000A7F9CDE7FFE7049801224000C117121A50
:1003700000238B4104983146C417381AA141EEE797
:1003800030B40124E407634030BC55E730B40124A5
:10039000E407614030BC4FE70000E0FFF0B51FB458
:1003A00088B00B990998002448400999C00F49006A
:1003B00049080991C0070B990090490049080B9121
:1003C00009990898A64608431CD00B990A98084337
:1003D00018D0099801244000420D4800410D0998A9
:1003E00024050003000B204309900B980003000B29
:1003F00020430B9050181C494018002201901446CD
:10040000104605E0002001460DB0F0BD032801DADA
:10041000034600E003239C46C11A0AAE0AE05F00CF
:1004200008ADED5B4F00F75B7D430027AA187C41C8
:10043000491C5B1E6145F2DD410004AB5A522104A8
:10044000120C0A43240C401C0828DFDB01980290A0
:100450000099704601910090059B049A07990698AF
:1004600000F033F9D0E700000DFCFFFFC217C10F09
:10047000504010B54018CA079623002100F0DFF85D
:1004800010BD00000EB5C217C10F5040CA0740187A
:100490000021054B0293019200910A460B4600F0A1
:1004A00014F903B000BD000033040000C20F410086
:1004B00040020123400ADB05D207090EC0187F293C
:1004C00001DA00207047962903DC9623591AC840A8
:1004D00001E096398840002AF4D04042704700007D
:1004E00070B5CD0F4A0009030123090B1B05194301
:1004F0000B4BED070024520D9A4201DA002070BD2B
:10050000074B34339A4203DC9A1A00F06CF802E08D
:100510000449511888402C43F1D0404270BD00007E
:10052000FF030000CDFBFFFFC20FD20740004008D1
:100530000BD0C10D0723DB01C91840020905400A91
:100540001143C2084007114370470020014670471D
:10055000CB0FDB07490010B5490802460A4307D014
:100560000A0D07240903E401090B121B002A01DC10
:10057000002010BDC900440F0C43C100E018D20593
:10058000801800F054F810BD70B50446002903D05F
:1005900000202022012310E0002801D00020C043C9
:1005A000C046C0460DE02546D5408D4205D30D46D8
:1005B0009540641B1D46954040191546521E002D5E
:1005C000F1DC214670BD10B5202A04DB0146203A3B
:1005D0009140002010BD914020239C1A0346E34027
:1005E0001943904010BD10B5202A04DB0846203A7C
:1005F000D040002110BD0B46D340D0402024A21A89
:1006000091400843194610BD10B5202A06DBCB17D0
:100610000846203A1041C1170B4306E00B46134130
:10062000D0402024A21A91400843194610BD002949
:1006300004DA401C490001D140084000704770B402
:100640000024050C05D11024000402D1002921D07A
:100650001124050E01D100020834050F01D100015B
:10066000241D850F01D18000A41C002801DB40005F
:10067000641C002908D020252E1B0D46F540A14002
:1006800000D001212943084301061B1B000ADB1D82
:1006900002D5002070BC7047DB05181880180029AF
:1006A000F8DA401C4900F5D170BC400840007047A2
:1006B00010B5002B08DA0024401C614192185B4100
:1006C0001A4301D14008400010BDF0B51FB482B0FC
:1006D00005460C0003D0084601F094FA02E001F050
:1006E00091FA20300246009021462846FFF76BFF22
:1006F000049B059A04460F4618431143084314D03F
:10070000184610431BD0009840210A1A1846059934
:10071000FFF769FF05460E46009A05990498FFF712
:1007200052FF084305D0012004E02046394607B0B7
:10073000F0BD0020C11705430E432C4337430099F9
:100740000E986305401A7905E40A00220C43FD0A5D
:100750000A3002D500200146E9E701051019694178
:100760000C9C0D9D00196941FFF7A2FFDFE7000017
:10077000F0B50C465C4085B0E40FE40703944C00F0
:10078000002664085900944649080246029622430E
:1007900021D062460A431ED06200570D4A000E0364
:1007A0002303550D012402462C492405781B1B0BFD
:1007B000360B401823432643614600901C46501ACE
:1007C000B44103D30098401C009002E092180098B6
:1007D0005B41002803DA0020014605B0F0BD00208F
:1007E000012109050746864611E064461D46141B93
:1007F000B54106D36546521BB341744607430C43CB
:10080000A646CD0740084908284392185B41054693
:100810000D43EAD11046184313D0604619465040A4
:100820007140084306D06046101AB34106D2012237
:10083000002306E000220123DB0702E00122D2436D
:100840005310009874460105381C6141029C039DB9
:1008500000196941FFF72CFFBFE70000FD0300000E
:1008600070B54B005B0803430BD04B005C0D0026BA
:1008700033466542B341D417AD1AA34102DB0020D1
:10088000014670BD12053018514170BD10B50029E8
:1008900004DB0124E40740428C412146002B04DBA9
:1008A0001C460123DB075242A3418B4200D1824206
:1008B00010BD000010B5002904DB0124E40740420C
:1008C0008C412146002B04DB1C460123DB075242EE
:1008D000A341994200D1904210BD000000000000E9
:1008E0001CB5094800900948019005460126009C66
:1008F00005E0E36807CC33430C3C98471034AC4226
:10090000F7D3FFF7E1FB00002C2400004C2400008B
:1009100004480068C0B2092802D1034801210170CF
:100920007047C0462010004060002020B0B50A7813
:10093000032313400B4A84580B4D2540EB18A92480
:1009400024061B198350072212064B6813401124FA
:10095000240205599543EA180251001949780161AA
:10096000B0BDC04608080000FCFFFF00811E091F43
:1009700000BFFCD270470000F0B582B07A4E834AC7
:100980008518884A821801923A4A83180A794C7964
:10099000394F002C23D00524E601202A00D1703ED7
:1009A000002A00D188269C683C4034439C60DC6867
:1009B0003C403443DC60AC686D4E3440AC60EC6865
:1009C0003440EC600024019EB460F4608F24E44362
:1009D0009E6926409E61DE692640DE61624E801976
:1009E0008E790C68202A009208D0191D002A15D192
:1009F000641E44601A683A40882415E0611E416014
:100A0000196839401D4A114319605968394011432A
:100A1000596001214C071A4F014607E06208426005
:100A20001A683A400524E40122431A600A683A40F1
:100A300022430A6029684E4A1140296069681140C2
:100A400069600021019A116051608F21C9431A69C0
:100A50000A401A615A690A405A6100990E43BD2141
:100A600031400268074B1340C918891C016002B06D
:100A7000F0BDC0467018000024F93FF001040000EA
:100A8000FFFFFFCF4000FFCF70B5374A82184B6899
:100A900053603E4BC3180878222857D8840001A51C
:100AA0002C59A746430B00004D0B0000430B0000E0
:100AB0004D0B00004D0B00004D0B00004D0B0000D6
:100AC0004D0B00004D0B00004D0B00004D0B0000C6
:100AD0004D0B00004D0B00004D0B00004D0B0000B6
:100AE0004D0B0000310B00004D0B0000310B0000DE
:100AF0004D0B00004D0B00004D0B00004D0B000096
:100B00004D0B00004D0B00004D0B00004D0B000085
:100B10004D0B00004D0B00004D0B00004D0B000075
:100B20004D0B0000310B00004D0B0000310B00009D
:100B3000032424071568A543012464072C191460B5
:100B400004E0032424071568A54315600C69D460EC
:100B5000CC68064D25401C68054E264074191C6063
:100B6000097A0143116070BD041800007777020014
:100B70008888FDFF10B507239B0419409200801858
:100B8000024A84589C436118815010BD30180000FF
:100B900010B5029CA400001911431943014A815069
:100BA00010BDC0465018000092008018014A8150C4
:100BB0007047C0461018000010B5012212038318B8
:100BC0000C789C604B7883508978014A815010BD25
:100BD0000C110000B0B51122120283580124A34366
:100BE00083508B780C881C438B882343094C1C4012
:100BF0008358094D1D402B1983508B79CC791C43A8
:100C0000097A21437E231940801842689A4351187B
:100C10004160B0BD18670000E798FDFF10B50122E4
:100C2000120383180C789C604978815010BD000035
:100C3000F0B563480188EB22D24316460B4601E02B
:100C4000361D13D08719F6243D5B9BB2AB4204D905
:100C5000F8257F5BBB42F3D804E02B46F8257F5B89
:100C6000BB42EDD83B46EBE7121D0ED08618375B32
:100C700089B2B94203D2765BB142F5D303E039467B
:100C8000765BB142F0D33146EEE7C9184A0800233B
:100C90000F2103E0891C1B1DD42B25D0C418258BE4
:100CA00095420ED9658B95420BD9A58B954208D9F3
:100CB000E58B954205D2258C954202D2658C9542F2
:100CC0006BD3658B9542E5D9A58B9542E2D9E58B2F
:100CD0009542DFD9258C9542DCD2658C9542D9D2DC
:100CE000A48C9442D6D200E07621D2306E2301E06B
:100CF0001B1F0838C48894420ED2048994420BD238
:100D00004489944208D28489944205D9C489944282
:100D100002D9048A944245D8848894420ED2C48869
:100D200094420BD20489944208D24489944205D952
:100D30008489944202D9C489944230D84488944228
:100D40000ED2848894420BD2C488944208D204897B
:100D5000944205D94489944202D98489944220D886
:100D60005C1F062C13D304889442C1D24488944259
:100D7000BED284889442BBD2C4889442B8D9048934
:100D80009442B5D944899442B2D9DB1E0AE00520C9
:100D9000421A0C2A0ADC002209E0491EA5E75B1E64
:100DA00000E09B1E98B2421A0C2AF4DD0122054B8A
:100DB0001A604018C0B2400803490870F0BDC04630
:100DC000C8002020780020207D002020F0B587205A
:100DD000C1031E480246103A126813460B401C4CD1
:100DE00023600123DD03D4031A4C09D42A4213D013
:100DF0001E042768184D2D6837420AD16D1C09E082
:100E00002768154E36682F4201D1751E02E0751C09
:100E100000E06D1E104E35609D05960309D42A42F0
:100E20000FD05B0424680D4A12681C4206D0521E83
:100E300005E02368094A12682B42F8D0521C074B80
:100E40001A6002680A430260F0BDC04648100A40BA
:100E50004003202080130A40A8002020B00020205A
:100E6000B0B50446104D032805D9084600F0E6FB4E
:100E7000032C09D9B0BDA0000A4A105828600846C2
:100E800000F0DCFB032CF5D8A000064908582861C7
:100E9000B0BDC046032804D8800002490858024962
:100EA00008607047D823000090320A4010B5012432
:100EB000A0070F49FFF73AFD0E4841680E4A0A4065
:100EC00061045118416081680C4A0A4082600C49F3
:100ED00000220A601821416121020A4A136A0B4369
:100EE000136213680B43136001682143016010BD56
:100EF000E823000000110040FEFFECFFF8FFE0E0F7
:100F00008011004028100040B0B5254984220A64B1
:100F10002448102303600A630222026082230B65C7
:100F2000214A541C4C658B65CC65204B1A64812486
:100F30005C609C601C60CC629C649C65CC664A646E
:100F4000DA611B4D1D665C665C645A611A619A61C8
:100F50009A630C604C60D249164A0A6103230B6005
:100F6000D21C0A6401218A07134B1C6814431C60BD
:100F70001A69124C14431C618722D203104B1C6A5D
:100F800014431C621C6814431C600246303A0D4B2B
:100F90001360036088020C490A6802430A60B0BD0E
:100FA00004804240D0320A408100040084804240E4
:100FB000810001000030000290130A40051000007B
:100FC00028100A400108C10CA0330A4070B582B055
:100FD000B44C19492046FFF7EFFD18492046FFF7AA
:100FE000CBFC00250095204629462A462B46FFF7D4
:100FF000CFFD204629462A46FFF7BCFD204629465C
:101000002A46FFF7D1FD01260096204629462A46AA
:101010002B46FFF7BDFD204629463246FFF7AAFDC5
:10102000204629463246FFF7BFFD0548866003216A
:10103000016002B070BDC046F0230000F423000040
:10104000003186400F48002101600320C1430E4853
:101050000246083A13680B4013600168012291436D
:101060000160110203688B4303601103001F0268D3
:101070000A430260FF20000204490A6882430A60B2
:101080007047C04608030B4008010B4000E400E035
:101090000548042101601F21416000218160016831
:1010A00005220A430260704710E000E010B5084CCA
:1010B00008492046FFF780FD07492046FFF7E4FC7A
:1010C000064801680122114301600548026010BD15
:1010D00000008640FC230000002400002810864009
:1010E0000811864010B5154C15492046FFF796FDAE
:1010F00014492046FFF76EFD0320C1031248026821
:101100008A43026001692B4A0A40911C01614169CE
:101110000B220A4334218A43426141680122114073
:1011200043689343591841609102084B1C680C4373
:101130001C6001681143016010BDC0460080104072
:101140001424000016240000009110402890104044
:1011500010B5144C14492046FFF760FD1349204692
:10116000FFF738FD0321CA03114803689343036066
:101170000269104B13401A33036142690A433C2150
:101180008A434261416801221140436893435918E0
:1011900041609102084B1C680C431C6001681143BC
:1011A000016010BD00001040202400002224000037
:1011B000001110400000FFFF2810104080B500F023
:1011C0001BF8FFF7A1FEFFF73DFFFFF7FFFEFFF75C
:1011D0006DFFFFF787FFFFF7BBFFFFF767FEFFF726
:1011E00057FFB820024900220A5402490A5480BD20
:1011F00084022020C8012020F0B581B00D480E499E
:1012000041600E4A51600E4B59600E4C61600E4DAC
:1012100069600E4E71600E4F79600E490160116079
:10122000196021602960316039601020FFF79EFB52
:1012300001B0F0BD00080A40030000B100280A40D8
:1012400000288640000886400088104000081040B2
:10125000000800400100002670B50C46014601263A
:10126000300373030E4A012902DB1360106102E0B0
:101270001060136149420B4D00222846FFF794FC91
:1012800031040948012C02DB0660016102E00160C3
:1012900006616442012228462146FFF785FC70BDA5
:1012A00090120A400020864090320A40F0B583B088
:1012B00026480068000646D0254C226B02926263E5
:1012C000A06B0021A163E0632163A1688918A1607C
:1012D000E1680918E160A1698918A161E16908184C
:1012E000E061206AFFF720F9064600900191606AEC
:1012F000FFF71AF9174A184BFFF750F807460D4643
:101300003046019E31463A462B46FFF739F8FFF743
:10131000E7F8A06438462946009A3346FEF78CFF6A
:10132000FFF7DEF820644042029900F0D5F86064CF
:10133000E16BA06C4042494200F0FEF80146E064D7
:10134000606CFFF789FF03B0F0BDC04620108640F7
:10135000780020209A9999999999F93F10B51248E7
:101360000068C0B20B281DD1E049CA695348838880
:101370007E2B13D883885C1C84800C4CE2540B6851
:10138000DB0708D00B68DB0705D00B68DB0702D052
:101390000B68DB07F3D1D2B28A6101E000218180C2
:1013A0000121017010BDC046209010404403202050
:1013B000F0B583B03F480068C0B20B2878D13E48F2
:1013C0000068C1B27D2905D07B290AD13B490122A1
:1013D0004A700AE03948C17B50290ED10121C17001
:1013E0005EE036494978012962D134498A788B1800
:1013F0001873501C887003B0F0BD417B23294FD077
:101400008778042F2FD300913D180B358168002475
:10141000029128783038FFF735F801900E462046C3
:10142000FFF730F8264A274BFEF7B8FF00F088FE9A
:10143000019A3346FEF7B2FF01900E460298FFF77D
:1014400073F802460B4601983146FEF7F5FEFFF7AA
:101450007FF801466D1E641C7F1EF8B20328D7D8A2
:10146000164881600099322917D031290BD03029D4
:1014700016D18268154904461046FEF7A0FE0146C3
:101480002046144A0BE08268104904461046FEF7D5
:1014900096FE014620460E4A01E081680A4A116024
:1014A00000218160817041700C303221FEF723FEF3
:1014B00003B0F0BD20101040241110402000202067
:1014C00071A379094F930A40980020206F12833A44
:1014D0001400202010002020F0B581B0441A2E4EB8
:1014E00070687460201AFEF7C1FF01462B4F7868C0
:1014F000FEF765FE05462046FEF7B8FF0146386850
:10150000FEF75DFE01462846FEF700FE0446306801
:10151000FEF7ACFF01462046FEF7F8FDFEF7C6FFDA
:1015200030601F49884202DC1E49884201DA31607E
:10153000084601B0F0BDC046F0B581B0441A164E61
:10154000F068F460201AFEF791FF0146134F7868A7
:10155000FEF735FE05462046FEF788FF014638684F
:10156000FEF72DFE01462846FEF7D0FD0446B06882
:10157000FEF77CFF01462046FEF7C8FDFEF796FF0A
:10158000B0600749884202DC0649884201DAB1604E
:10159000084601B0F0BDC046680020201800202099
:1015A0007F0C000081F3FFFF012000020E490A6852
:1015B00002430A600D48017800290FD120BF01784D
:1015C00000290BD120BF0178002907D120BF017865
:1015D000002903D120BF01780029EFD00449096810
:1015E0000022027088B27047041100406000202081
:1015F00080625540B0B57D210902414332480368FD
:10160000262206E0E41A051F2D686419A2188A42F2
:1016100012D21C460368A34208D10368A34205D135
:101620000368A34202D10368A342F3D09C42E9D9E4
:10163000E41AA2188A42ECD3B0BDC046B0B57D21F1
:101640000902414320480368262206E0E41A051FE8
:101650002D686419A2188A4212D21C460368A3425C
:1016600008D10368A34205D10368A34202D10368ED
:10167000A342F3D09C42E9D9E41AA2188A42ECD3DF
:10168000B0BDC046B0B510490B684001262206E047
:10169000E41A0D1F2D686419A218824212D21C464A
:1016A0000B68A34208D10B68A34205D10B68A34283
:1016B00002D10B68A342F3D09C42E9D9E41AA218E4
:1016C0008242ECD3B0BDC04618E000E007490A688A
:1016D000D20708D00A68D20705D00A68D20702D01C
:1016E0000A68D207F3D1C2B28A61704708911040EC
:1016F00088B0FFF763FDDD480168012421430160E4
:10170000E003DB4908606003086002220A60D949EF
:1017100008600A6010200860A0040860D6A000F0ED
:101720001FFE002564212846FFF79AFB06942046F9
:10173000FFF7B0FB0795EC43D54ED64F08E0B962F2
:10174000D5A000F04FFAB86A401CC821FFF788FB0B
:1017500030688006FCD43220FFF770FF30688006C6
:1017600012D4274602E0306880060AD46420FFF7CE
:1017700065FF7F1C0A2FF6D300206421FFF770FB62
:10178000F1E7092FF54F15D8B86A002825460CD483
:10179000002032273946FFF763FB3846EF4FFFF74B
:1017A00029FF6D1CB86A8542F2DB02280799C6DC66
:1017B000411CC4E70020C8210390FFF751FBB86A21
:1017C000401CFFF767FBE64838620698C4054006F0
:1017D0000490E64D2BE078794038FEF747FE074647
:1017E000DE48C66AC762E34880683946FEF7E7FC10
:1017F00007903846D94F3146FEF7D9FCDD49C96814
:10180000FEF7DDFC0799FEF781FC7862012138794B
:1018100007903E4614364CCE7F799819404200908E
:1018200001970292F31AE9A0079A00F0DBF9192058
:10183000FFF704FF2C6005273846FFF723FF049EBF
:10184000C94806610A200790FFF71CFF2C61384643
:10185000FFF718FFC44806601E200590FFF712FF2F
:101860002C603846FFF70EFFBF4806600798FFF769
:1018700009FF2C603846FFF705FFBB480661079853
:10188000FFF700FF2C616420FFF7FCFE8026B84FB5
:101890002C616420FFF7F6FEFFF786FE2C6000093E
:1018A00038801420FFF7EEFEBF1C761EF0D1FFF744
:1018B000BFF9AA4F39784A424A41B86A0028069BC4
:1018C00000D11346002B76D00128A0D178690228D8
:1018D00000D1E9E03879002911D0002832D1B86967
:1018E000F969081AA3494968490088421BDAA9A086
:1018F00000F078F938793978002927D129E00028D3
:1019000020D0B869F969401840429A490968814273
:1019100040DDA5A000F066F90120387038793978EB
:10192000002913D115E094A000F01AFD7869401C3D
:1019300078610321039E3046FFF792FABE61FE6193
:101940000698387138793978002902D0002800D0FB
:1019500041E74A424A410240012A04D13F200006A1
:101960007862039953E7002900D00698002804D034
:1019700093A000F0F5FC397849E73A46143207CADB
:101980008E4B5843386150180599C94388420DDC85
:10199000BF20E4E70020B861F86138710321FFF748
:1019A0005FFA387939780029D0D1D2E71F28D5DA03
:1019B000039979622BE7039E7E626A4D2846294689
:1019C000FFF74AFC642430462146FFF749FA2846CF
:1019D0002946FFF741FC30462146FFF741FA2846E9
:1019E0002946FFF739FC30462146FFF739FA2846E9
:1019F0002946FFF731FC30462146FFF731FA2846E9
:101A00002946FFF729FC30462146FFF729FA2846E8
:101A10002946FFF721FC30462146FFF721FA2846E8
:101A20002946FFF719FC30462146FFF719FA2846E8
:101A30002946FFF711FC30462146FFF711FA2846E8
:101A40002946FFF709FC30462146FFF709FA2846E8
:101A50002946FFF701FC30462146FFF701FA3E62B6
:101A600030463146FFF7F8FBFEE7C04604388640B3
:101A700080E200E000E100E053797320696E697450
:101A800020646F6E652E20426565702100000000A5
:101A900080330A4078002020547261636B5F6E755A
:101AA0006D3A20256400000000247C622D4D2846FC
:101AB0002946FFF7D1FB642620463146FFF7D0F9CF
:101AC00028462946FFF7C8FB20463146FFF7C8F9EC
:101AD00028462946FFF7C0FB20463146FFF7C0F9EC
:101AE00028462946FFF7B8FB20463146FFF7B8F9EC
:101AF00028462946FFF7B0FB20463146FFF7B0F9EC
:101B000028462946FFF7A8FB20463146FFF7A8F9EB
:101B100028462946FFF7A0FB20463146FFF7A0F9EB
:101B200028462946FFF798FB20463146FFF798F9EB
:101B300028462946FFF790FB20463146FFF790F9EB
:101B400028462946FFF788FB20463146FFF788F9EB
:101B50003C6220462146FFF77FFBFEE7780020200D
:101B600000002041B80B000090120A4090320A4059
:101B7000C800202008002020537461746520636829
:101B8000616E67656420746F20434344206D6F6409
:101B90006500000077726F6E676C79206F6E6C69FC
:101BA0006E652C200000000074656D706F726172AC
:101BB00079206F66666C696E652C2000F604000063
:101BC000464154414C204552524F520025642C2529
:101BD000642C2025642C2025642C2025642C2025B1
:101BE000640A00000FB410B503A9044B044A02981C
:101BF00000F0C0F810BC08BC04B01847CD160000B7
:101C0000000020202021020C01D010211046020AE1
:101C100001D010460839020901D01046091F820878
:101C200001D01046891E420801D0881E7047081A4C
:101C3000704700004900CA020243100000D004208F
:101C40004A0D01D001221043044A490D914201D1AD
:101C500002210843012800D105207047FF0700003A
:101C6000F8B504464F1EC8000838211815461E4610
:101C7000086849683A4606239A4310D02A463346F4
:101C8000FEF78CFB3A46D200083AA3181A687F1E6A
:101C90005B68FEF7D1FA06223B469343EED1022F52
:101CA00023D0042F11D0062F2FD12A463346FEF71A
:101CB00075FBE36AA26AFEF7BFFA2A463346FEF7CF
:101CC0006DFB636A226AFEF7B7FA2A463346FEF7CF
:101CD00065FBE369A269FEF7AFFA2A463346FEF7D1
:101CE0005DFB63692269FEF7A7FA2A463346FEF7D1
:101CF00055FBE368A268FEF79FFA2A463346FEF7D3
:101D00004DFB63682268FEF797FAF8BD10B5012213
:101D1000FEF7A6FD10BD000010B50721024A002005
:101D20000907FEF79DFD10BD01030000034A10B531
:101D300000201107FEF794FD10BD000001FDFFFF1C
:101D400002E008C8121F08C1002AFAD1704700003B
:101D50007047000000000000002001E001C1121FD8
:101D6000002AFBD17047000001490860704700005D
:101D700004002020FFB58DB00446002506E025288C
:101D80000AD0109A0F999047641C6D1C2078002887
:101D9000F5D1284611B0F0BD00270121484A00972F
:101DA00000E00743641C23780846203B984010421B
:101DB000F7D120782E2817D1042007436078641CBF
:101DC0002A280CD10E98641C02C800910E900BE0DA
:101DD00000990A22514330394018641C0090207841
:101DE000014630390929F3D920780028D1D0642858
:101DF00008D0692806D075281ED0109A0F999047F0
:101E00006D1C5BE00A200E99019001C90E9100281B
:101E100002DA40422D2102E0390504D52B216A4621
:101E20001172012103E0F90704D02021F7E70BAE7E
:101E30000B910DE00021FAE70A200E99019001C9EB
:101E40000E91F7E70199FEF79FFB3031761E317056
:101E50000028F7D103A8801B20300190780701D516
:101E6000009801E0012000900199884201DD401AAC
:101E700000E000200027009006E002A8109AC05D54
:101E80000F9990476D1C7F1C0B988742F5DB04E08F
:101E9000109A30200F9990476D1C0099481E0090B1
:101EA0000029F5DC05E03078109A761C0F999047F0
:101EB0006D1C0199481E01900029F4DC641C65E743
:101EC00009280100F0B54E00864BCF0F760887B089
:101ED00005460C469E422ED38348864211D33003DA
:101EE000000B284304D02846FFF710FF07B0F0BDD1
:101EF000002F03D00020014607B0F0BD284607B0F0
:101F0000F0BD7A4A2846FEF7D5FC06D20220FFF73C
:101F10002BFFFFF701FF07B0F0BD754A754B284650
:101F20002146FEF7B3FC06D20220FFF71DFFFFF7A4
:101F3000FDFE07B0F0BD704886424AD930466F4971
:101F4000E20FD600884215D26D4878448019436864
:101F5000026828462146FEF713FA02906948039169
:101F6000784481190868496800900120C01B0191DC
:101F7000C61B25E0644A654B28462146FEF70EFA4B
:101F8000634A7A4493191A685B68FEF755F9FEF7BD
:101F9000A7FA0646FEF776FA07465E4A5E4B0091C0
:101FA000FEF7FCF92A462346FEF7F0F9039102906A
:101FB0005A4A5B4B38460099FEF7F0F901910090C0
:101FC0000B46009A03990298FEF7DAF905460C468B
:101FD00017E05448864213D2534A544B28462146B0
:101FE000FEF72AF9524E00223346FEF763FC07D271
:101FF0000022334628462146FEF71EF907B0F0BD01
:1020000000262A46234610461946FEF7C7F907461A
:10201000024648480B46049105217844FFF720FE0C
:102020003A46049BFEF7BAF92A462346FEF7AEF974
:102030000691012189070746002E23D00246002081
:10204000069BFEF79DF9059104903A4628462146E5
:10205000069BFEF7A3F9059B049AFEF789FB019BFB
:10206000009AFEF793F9039B029AFEF789F9002282
:102070002F4BFEF78BF9304A96421EDB320589184A
:1020800007B0F0BD0B4600220699FEF779F9064627
:1020900000913A4628462146069BFEF77FF93246D4
:1020A000009BFEF765FB2A462346FEF769F90022EE
:1020B0001F4BFEF76BF907B0F0BD7D233205DB0542
:1020C000D21889181D4AFEF7CBFB0D460446FFF7D0
:1020D000B1FD042801D1FFF729FE2046294607B0AB
:1020E000F0BD0000422E86400000F07FEF39FAFE7E
:1020F00051302DD5104987C0422ED63FB2A2F03FB5
:10210000420400003C040000FE822B654715F73FA7
:10211000FA0300000000E0FE422EE63F763C7935EF
:10212000EF39EA3D0000303E9C7500883CE4377E84
:102130000000F03F9203000003FCFFFF18FCFFFFCC
:10214000F0B583B005000C4601D0012000E000206E
:10215000204340003A4E4008301AC00F05D10022FB
:1021600033462846FEF792FB05D128462146FFF765
:10217000CDFD03B0F0BD0022324B28462146FEF7CC
:1021800085FB03D10020014603B0F0BD6A46284616
:10219000214600F09DF804460D4600222A4B019985
:1021A0000098FEF773FB01D2284F0EE00022284B67
:1021B00001990098FEF77EFB02D20127FF0204E09E
:1021C00001990098FEF78CF90746224A224B2046D7
:1021D0002946FEF7E3F8FFF775FE3A4600F040F8AF
:1021E00004460D46FF2080001C493818884223D33E
:1021F0000022134620462946FEF748FB06D102205E
:10220000FFF7B2FDFFF792FD03B0F0BD00223346A9
:1022100020462946FEF73AFB06D10220FFF7A4FD2F
:10222000FFF77AFD03B0F0BD20462946FFF702FD17
:10223000042801D1FFF77AFD2046294603B0F0BDFE
:102240000000F07F0000F0FF0000A0C000F8FFFFDA
:102250000000A040EF39FAFE422EE63FFB070000E7
:1022600070B50546080DC04316460C4640052CD0F7
:10227000002213462846FEF709FB26D032462846A0
:102280002146FEF7EDFA0546080DC0430C46400511
:1022900010D0002213462846FEF7F8FA15D1022086
:1022A000FFF762FDFFF742FD49004908E20FD20740
:1022B000114370BD0220FFF757FDFFF72DFD4900C8
:1022C0004908E20FD207114370BD2846214670BD70
:1022D000F8B54B00002801D0012400E000240125BE
:1022E0001C436D05EC4202D951601060F8BD1A4CD8
:1022F0005B0D1C19CB0F0027DB07142C16DA002C02
:1023000002DA17605360F8BD144D0646E5400C46EE
:102310002C40044305D00B46AB43176053603A464C
:1023200017E01660516019463846F8BD332C05DCBD
:102330000025ED43143CE540284204D15160106073
:1023400019463846F8BD0346AB43136051601A4640
:102350000B46FEF715F8F8BD01FCFFFFFFFF0F006D
:1023600010B5044601E0FFF7B1F92078641C034979
:102370000028F8D10A20FFF7A9F910BD000020209D
:10238000000000000000E03F000000000000E0BF8F
:102390000000E0FE422EE63F0000E0FE422EE6BFD7
:1023A000763C7935EF39EA3D763C7935EF39EABD4F
:1023B0003E5555555555C53F93BDBE166CC166BFBC
:1023C0002CDE25AF6A56113FF16BD2C541BDBBBEB5
:1023D000D0A4BE726937663E000800000000000409
:1023E000000000080000400001050000000000039C
:1023F00008000000800C0000200101000807C70051
:10240000020000008F010000010000000000000039
:102410000000000004000000180000000030000070
:1024200004000000180000000030000050240000EC
:102430000000202020000000401D0000702400004B
:1024400020002020A8040000581D0000000000000B
:10245000000000000000000014050000B80B0000A0
:102460005839343D4260E53B000020419A99993E3D
:04000005000000C136
:00000001FF
