:020000040000FA
:10000000A8042020D5000000D9000000DB0000007B
:1000100000000000000000000000000000000000E0
:10002000000000000000000000000000DD000000F3
:100030000000000000000000DF000000E100000000
:10004000E3000000A9100000E3000000E30000004E
:100050005D0A0000E3000000E3000000E300000090
:1000600000000000E3000000E300000000000000CA
:10007000000000005D160000E3000000FD15000018
:10008000E3000000E300000059150000E300000059
:10009000E3000000E300000000000000000000009A
:1000A000E3000000E300000000000000000000008A
:1000B000E300000000000000E3000000E300000097
:1000C0000348854600F050FC0048004775190000C1
:1000D000A804202003480047FEE7FEE7FEE7FEE70E
:1000E000FEE7FEE7C1000000D2B201E00270401C52
:1000F000491EFBD270470022F6E710B513460A46A8
:1001000004461946FFF7F0FF204610BDF8B5024639
:100110004A40D40F42004B0052085B089A4202D278
:100120000246084611464A0023D0C30D4A00DDB2FC
:10013000120EAD1A202D35DA49020126490AF605BC
:100140008A19002C00D0524220214F1B1146B94081
:100150002A411018C20D9A4221D0002C17D0012D2F
:1001600008DCDA05801AD20F8019D207DBB200F062
:100170009EFAF8BDDA05801A012340001B06C0185C
:1001800080185A428018CA0F1043490007E04908F6
:10019000C2071143DA05801A80194008801800F060
:1001A0007EFAF8BD61000122511A001BF7E7012217
:1001B000D2075140AAE70122D2075040A6E70246E3
:1001C00070B54A40D30FDB0740002DD04A002AD03B
:1001D000010E140E000212020919400A520A841874
:1001E000E50104465443000A120A2E045043A419A0
:1001F0004219200CC543AA18120C0125AD03521C4C
:10020000521912047F39240400D0521C104301D427
:100210004000491EC2B20C06C0092018401C40080C
:10022000802A02D003E0002070BD40084000002971
:1002300000DA0020184370BD70B502464A40D50F61
:1002400040004A00ED0740085208002814D0002A58
:1002500012D0C40DD30D41020120C0055202490A3B
:10026000520AE41A091812187D34914201D3641C11
:1002700000E04900002C01DA002070BD002391420B
:1002800001D3891A0343400849000028F7D1002907
:100290000AD0914202D10121C90705E0914201D261
:1002A000012101E00121C943E005C018401900F017
:1002B000F6F970BDF0B507460846584087B0C00F44
:1002C000049048000E46590040084908BC1A88416D
:1002D00005D2384631461E4617460B4602465800A0
:1002E000400810434CD0300D039040055900400D9C
:1002F000490D0590401A0290402872DA1803012136
:10030000000B09050843019004980092002805D0CD
:1003100001995242002088410092019002984021A8
:100320000A1A0199009800F097F905460C466B46A9
:1003300007CB00F0A1F9C0197141039A0E0D0023FB
:10034000D71756401A467A40164344D0049A002ADA
:100350002DD0029A012A039A15DC1205C01A914188
:1003600001263605001C7141D20F059ED20700936D
:10037000019202962A46234600F0DFF907B0F0BD4D
:1003800038463146FAE71605224A0F46B218C01A17
:10039000B74101210905001C4F4100187F4111465A
:1003A00018187941E20F10436D19644113E0E20718
:1003B0006D0815436408C2071443039A0126120509
:1003C000C01A91413605001C7141CE0740083043E8
:1003D0004908C01851412A46234600F0A1F9CDE74B
:1003E000FFE7049801224000C117121A00238B4135
:1003F00004983146C417381AA141EEE730B40124FD
:10040000E407634030BC55E730B40124E4076140A1
:1004100030BC4FE70000E0FFF0B51FB488B00B9987
:100420000998002448400999C00F490049080991DA
:10043000C0070B990090490049080B910999089849
:10044000A64608431CD00B990A98084318D009986F
:1004500001244000420D4800410D09982405000385
:10046000000B204309900B980003000B20430B90D6
:1004700050181C494018002201901446104605E00F
:10048000002001460DB0F0BD032801DA034600E06C
:1004900003239C46C11A0AAE0AE05F0008ADED5B7B
:1004A0004F00F75B7D430027AA187C41491C5B1E67
:1004B0006145F2DD410004AB5A522104120C0A439B
:1004C000240C401C0828DFDB01980290009970463C
:1004D00001910090059B049A0799069800F02DF968
:1004E000D0E700000DFCFFFFC217C10F504010B550
:1004F0004018CA079623002100F0D9F810BD00006B
:100500000EB5C217C10F5040CA0740180021054B55
:100510000293019200910A460B4600F00EF903B0D7
:1005200000BD000033040000C20F4100400201235F
:10053000400ADB05D207090EC0187F2901DA002026
:100540007047962903DC9623591AC84001E0963972
:100550008840002AF4D040427047C20FD2074000C2
:1005600040080BD0C10D0723DB01C9184002090563
:10057000400A1143C208400711437047002001465A
:100580007047CB0FDB07490010B5490802460A4304
:1005900007D00A0D07240903E401090B121B002AE6
:1005A00001DC002010BDC900440F0C43C100E0185D
:1005B000D205801800F073F810BD70B5044600290C
:1005C00003D000202022012310E0002801D00020C9
:1005D000C043C046C0460DE02546D5408D4205D3F8
:1005E0000D469540641B1D46954040191546521E08
:1005F000002DF1DC214670BDF0B51FB40646002089
:1006000082B005464024019100901BE001992246EA
:100610000F46304600F0C0F9049A059B801A9941B4
:1006200010D310461946224600F016F8361A8F41AC
:100630000197224601200021009F00F00DF8381894
:100640004D4100902046641E0028DFDC019B00988D
:100650002946324607B0F0BD10B5202A04DB01461A
:10066000203A9140002010BD914020239C1A03465F
:10067000E3401943904010BD10B5202A06DBCB178C
:100680000846203A1041C1170B4306E00B461341C0
:10069000D0402024A21A91400843194610BD0029D9
:1006A00004DA401C490001D140084000704770B492
:1006B0000024050C05D11024000402D1002921D00A
:1006C0001124050E01D100020834050F01D10001EB
:1006D000241D850F01D18000A41C002801DB4000EF
:1006E000641C002908D020252E1B0D46F540A14092
:1006F00000D001212943084301061B1B000ADB1D12
:1007000002D5002070BC7047DB051818801800293E
:10071000F8DA401C4900F5D170BC40084000704731
:1007200010B5002B08DA0024401C614192185B418F
:100730001A4301D14008400010BDF0B51FB482B08B
:1007400005460C0003D0084601F0B4F902E001F0C0
:10075000B1F920300246009021462846FFF77CFF81
:10076000049B059A04460F4618431143084314D0CE
:10077000184610431BD0009840210A1A18460599C4
:1007800000F00AF905460E46009A05990498FFF70D
:1007900063FF084305D0012004E02046394607B036
:1007A000F0BD0020C11705430E432C433743009989
:1007B0000E986305401A7905E40A00220C43FD0AED
:1007C0000A3002D500200146E9E701051019694108
:1007D0000C9C0D9D00196941FFF7A2FFDFE70000A7
:1007E000F0B50C465C4085B0E40FE40703944C0080
:1007F000002664085900944649080246029622439E
:1008000021D062460A431ED06200570D4A000E03F3
:100810002303550D012402462C492405781B1B0B8C
:10082000360B401823432643614600901C46501A5D
:10083000B44103D30098401C009002E09218009845
:100840005B41002803DA0020014605B0F0BD00201E
:10085000012109050746864611E064461D46141B22
:10086000B54106D36546521BB341744607430C435A
:10087000A646CD0740084908284392185B41054623
:100880000D43EAD11046184313D060461946504034
:100890007140084306D06046101AB34106D20122C7
:1008A000002306E000220123DB0702E00122D243FD
:1008B0005310009874460105381C6141029C039D49
:1008C00000196941FFF72CFFBFE70000FD0300009E
:1008D00070B54B005B0803430BD04B005C0D00264A
:1008E00033466542B341D417AD1AA34102DB002061
:1008F000014670BD12053018514170BD4A00090310
:100900000123090B1B0519430A4B10B5520D9A42DE
:1009100002DA0020014610BD064B34339A4203DC54
:100920009A1A00F039F810BD034BD218FFF794FE65
:1009300010BD0000FF030000CDFBFFFF10B5002934
:1009400004DB0124E40740428C412146002B04DBF8
:100950001C460123DB075242A341994200D1904239
:1009600010BD0000000000001CB5094800900948B7
:10097000019005460126009C05E0E36807CC33435F
:100980000C3C98471034AC42F7D3FFF79DFB0000B6
:10099000E42F00000430000010B5202A04DB0846D4
:1009A000203AD040002110BD0B46D340D040202437
:1009B000A21A91400843194610BDFEB500231A46FD
:1009C0001B1A8A4103DB0020014603B0F0BD4A0038
:1009D0000D0301212D0B0905520D0D43D10702D145
:1009E00000186D41521E5110FF31FF3101310027B7
:1009F00004463E46384600970191024601210020F8
:100A00000905FFF7C9FFC3197141F818324684463A
:100A10008E464A4161462846611A904104D3604699
:100A2000241A954176461F46241900986D41401CB2
:100A300000903428E1DDF91930467041091BA841C6
:100A400003D20022D243134601E00022134601984C
:100A50000105381C7141FFF763FEB6E704480068E2
:100A6000C0B2092802D10348012101707047C04675
:100A700020100040A4012020F0B587B0264801785E
:100A80004A424A410270254E3078012824D1244838
:100A90000068324D2946FFF792FBFFF745FD0446FB
:100AA0002F4800682946FFF78AFBFFF73DFD054602
:100AB0002C480068FFF738FD034600270097019790
:100AC000029703970497059727A021462A4600F02E
:100AD000E1FF377007B0F0BD11480068FFF73DFD3A
:100AE0000B46104A116806910F4A12680F4C217884
:100AF0000F4D2D680F4E36680F4F3F680F4C24681E
:100B00000095019602970394049005930CA0069B10
:100B100000F0C0FF07B0F0BD200120203A012020E6
:100B2000180020209C0120204401202028012020A2
:100B30003C01202048012020A0012020400120204D
:100B40002564202564202564202564202564202533
:100B5000642025642025660A0D00000000007A4408
:100B600014002020100020207B4325643A25643A9D
:100B700025643A25643A25643A25643A25643A2581
:100B8000643A25647D240000B0B50A78032313403D
:100B90000B4A84580B4D2540EB18A92424061B1939
:100BA0008350072212064B68134011242402055972
:100BB0009543EA180251001949780161B0BDC04659
:100BC00008080000FCFFFF00811E091F00BFFCD2C7
:100BD00070470000F0B583B00B794A79002A2AD01B
:100BE0001A4A1B4C1B4F21252D01202B00D070359C
:100BF000861802190092C219002B00D188251768A7
:100C0000464C27407F191760576827407D1955606B
:100C10003568804F3D40356075683D407560002502
:100C2000009C256065608F24E443156925401561AB
:100C300055692540556101AA13718B795371096873
:100C40000191114600F008F803B0F0BD381800001B
:100C50005818000078180000F0B584B06B4A82186C
:100C60000292734BC618784BC21800922A4BC418D4
:100C70000A7901910D68294F202A03920AD0254B49
:100C8000C018002A17D16B1E029A536023683B409C
:100C9000882517E0681E029A506020683840204B73
:100CA00018432060606838401843606001204507A1
:100CB0001C4F104608E06B08029A536023683B40C3
:100CC0000525ED012B432360009903683B402B432E
:100CD000036030684F4B1840306070681840706097
:100CE0000020086048608F20C043236903402361CF
:100CF0006369034063610198407903990843BD210A
:100D000001401068084B0340C818801C106004B0F4
:100D1000F0BDC046741800007018000024F93FF0C0
:100D200001040000FFFFFFCF4000FFCF70B5374A3E
:100D300082184B6853603E4BC3180878222857D856
:100D4000840001A52C59A746E70D0000F10D000015
:100D5000E70D0000F10D0000F10D0000F10D0000A5
:100D6000F10D0000F10D0000F10D0000F10D00008B
:100D7000F10D0000F10D0000F10D0000F10D00007B
:100D8000F10D0000F10D0000D50D0000F10D000087
:100D9000D50D0000F10D0000F10D0000F10D000077
:100DA000F10D0000F10D0000F10D0000F10D00004B
:100DB000F10D0000F10D0000F10D0000F10D00003B
:100DC000F10D0000F10D0000D50D0000F10D000047
:100DD000D50D0000032424071568A54301246407EA
:100DE0002C19146004E0032424071568A54315603A
:100DF0000C69D460CC68064D25401C68054E264021
:100E000074191C60097A0143116070BD0418000058
:100E1000777702008888FDFF10B507239B041940EF
:100E200092008018024A84589C436118815010BD7A
:100E30003018000010B5029CA4000019114319439A
:100E4000014A815010BDC046501800009200801821
:100E5000014A81507047C0461018000010B50122A9
:100E6000120383180C789C604B7883508978014A70
:100E7000815010BD0C110000B0B511221202835830
:100E80000124A34383508B780C881C438B88234315
:100E9000094C1C408358094D1D402B1983508B79F8
:100EA000CC791C43097A21437E231940801842687B
:100EB0009A4351184160B0BD18670000E798FDFFE4
:100EC00010B50122120383180C789C604978815078
:100ED00010BD0000F0B570480188EB22D2431646E1
:100EE0000B4601E0361D0ED08719F6243D5B9BB200
:100EF000AB4200D82B46F8257F5BBB42F2D83B467D
:100F0000F0E7121D0AD08618375B89B2B94200D3C8
:100F10003946765BB142F4D33146F2E7C918490845
:100F200000230A2201E0121D0833C41865898D428E
:100F30000ED9A5898D420BD9E5898D4208D9258A1C
:100F40008D4205D2658A8D4202D2A58A8D4238D360
:100F5000E02B3DD0A5898D420ED9E5898D420BD974
:100F6000258A8D4208D9658A8D4205D2A58A8D428F
:100F700002D2E58A8D4226D3E5898D420ED9258A93
:100F80008D420BD9658A8D4208D9A58A8D4205D23A
:100F9000E58A8D4202D2258B8D4216D3258A8D4259
:100FA000C1D9658A8D42BED9A58A8D42BBD9E58A51
:100FB0008D42B8D2258B8D42B5D2648B8C42B2D291
:100FC00004E0D21E02E0921E00E0521E334B1A8053
:100FD000E630782201E0121F0838C3888B420ED217
:100FE00003898B420BD243898B4208D283898B427F
:100FF00005D9C3898B4202D9038A8B4243D8D31EB9
:10100000062B36D384888C420ED2C4888C420BD2F5
:1010100004898C4208D244898C4205D984898C4247
:1010200002D9C4898C4230D844888C420ED284883C
:101030008C420BD2C4888C4208D204898C4205D9D8
:1010400044898C4202D984898C4220D804888C42FD
:10105000C1D244888C42BED284888C42BBD2C48820
:101060008C42B8D904898C42B5D944898C42B2D912
:101070000EE00B480378094800781818C0B2400801
:1010800008490870F0BD134602E0531E00E0931EAD
:1010900003480380EFE7C046200020202A012020DB
:1010A0002C01202028012020F0B58720C1031E48F4
:1010B0000246103A126813460B401C4C2360012371
:1010C000DD03D4031A4C09D42A4213D01E04276826
:1010D000184D2D6837420AD16D1C09E02768154E5E
:1010E00036682F4201D1751E02E0751C00E06D1EAE
:1010F000104E35609D05960309D42A420FD05B043B
:1011000024680D4A12681C4206D0521E05E023686E
:10111000094A12682B42F8D0521C074B1A60026829
:101120000A430260F0BDC04648100A402003202058
:1011300080130A40300120203401202000280CD0E8
:1011400008490A88521C0A8092B2824204D10020C7
:101150000880434801210161704741480121016035
:101160007047C0463801202010B50124A0070F4960
:10117000FFF70AFD0E4841680E4A0A406104511803
:10118000416081680C4A0A4082600C4900220A6072
:101190001821416121020A4A136A0B431362136842
:1011A0000B43136001682143016010BDA02F0000B4
:1011B00000110040FEFFECFFF8FFE0E0801100406E
:1011C0002810004010B5214984220A6420481023C9
:1011D00003600A630222026082230B651D4A541CCD
:1011E0004C658B65CC651C4B0B601C4B1A648124D1
:1011F0004C675C609C601C60CC629C649C655A611E
:101200001A619A619A631649164A0A600A630121B3
:101210008A07154B1C6814431C601A69134C14434D
:101220001C618722D203124B1C6A14431C621C6887
:1012300014431C600246303A0E4B13600360880270
:101240000D490A6802430A6010BDC046048042404E
:10125000D0320A40810004008100010084804240B5
:10126000A0120A400130000290130A40051000004D
:1012700028100A4001208100A0330A4070B582B0D6
:10128000B34C19492046FFF7E9FD18492046FFF7FE
:10129000A1FC00250095204629462A462B46FFF74B
:1012A000C9FD204629462A46FFF7B6FD20462946B5
:1012B0002A46FFF7CBFD01260096204629462A46FE
:1012C0002B46FFF7B7FD204629463246FFF7A4FD1F
:1012D000204629463246FFF7B9FD054886600321BE
:1012E000016002B070BDC046A82F0000AC2F000006
:1012F000003186400F48002101600320C1430E48A1
:101300000246083A13680B401360016801229143BA
:101310000160110203688B4303601103001F026820
:101320000A430260FF20000204490A6882430A60FF
:101330007047C04608030B4008010B4000E400E082
:101340000548042101601F2141600021816001687E
:1013500005220A430260704710E000E010B5084C17
:1013600008492046FFF77AFD07492046FFF7DEFCD3
:10137000064801680122114301600548026010BD62
:1013800000008640B42F0000B82F000028108640CF
:101390000811864010B5144C14492046FFF790FD03
:1013A00013492046FFF768FD0321CA03114803686B
:1013B0009343036002692A4B13401A330361426965
:1013C0000A433C218A43426141680122114043683B
:1013D0009343591841609102074B1C680C431C60F1
:1013E00001681143016010BD00801040CC2F000047
:1013F000CE2F0000009110402890104010B5144CE2
:1014000014492046FFF75CFD13492046FFF734FDE1
:101410000321CA0311480368934303600269104B18
:1014200013401A33036142690A433C218A434261F3
:101430004168012211404368934359184160910269
:10144000084B1C680C431C6001681143016010BD0F
:1014500000001040D82F0000DA2F000000111040CB
:101460000000FFFF2810104080B500F01BF8FFF7C8
:10147000A9FEFFF73FFFFFF701FFFFF76FFFFFF741
:1014800089FFFFF7BBFFFFF76FFEFFF759FFB8209B
:10149000024900220A5402490A5480BD64022020F5
:1014A000A8012020F0B581B00D480E4941600E4AD8
:1014B00051600E4B59600E4C61600E4D69600E4ECE
:1014C00071600E4F79600E490160116019602160F2
:1014D0002960316039601020FFF776FB01B0F0BD64
:1014E00000080A40030000B100280A400028864096
:1014F00000088640008810400008104000080040A6
:101500000100002670B50C46014601263003730326
:101510000E4A012902DB1060136102E013601061C2
:1015200049420B4D00222846FFF790FC3104094840
:10153000012C02DB0160066102E006600161644289
:10154000012228462146FFF781FC70BD90120A4017
:101550000020864090320A40F0B581B01D480068F6
:10156000000634D01C4801681C4F39601C490A68C9
:1015700000230B601B490A6003606420FFF7DEFD57
:10158000834804681848056820462946FEF7BEFDD2
:10159000FEF7CAFF06461548066020462946FEF7B4
:1015A00006FEFEF7C1FF124C20607042396800F061
:1015B000F7F8104D28600B4801682068404200F0A1
:1015C00023F901460C4801602868FFF79BFF01B032
:1015D000F0BDC04620108640300120209C01202014
:1015E00034012020A00120204C0120204401202093
:1015F000480120203C0120204001202010B5124845
:101600000068C0B20B281ED11048C169104A138867
:101610007E2B13D813885C1C14800E4AD1540268A8
:10162000D20708D00268D20705D00268D20702D0DC
:101630000268D207F3D1C9B2816101E000201080B5
:1016400005480121017010BD209010400891104004
:10165000A603202024032020A4032020F0B585B079
:1016600044480068C0B20B2800D080E042480068BF
:10167000C1B27D2905D07B290BD1484901220A70CE
:101680000BE03E49C87850280FD143480121017032
:1016900060E042490978012969D139490A78374B14
:1016A0009854501C087005B0F0BD4878232851D0DC
:1016B000334A1678334F3E70042E33D3F0B22F499D
:1016C0004118491E0D781178081AFEF719FF0246D5
:1016D0000B4600202C4900F00BFF04900391387852
:1016E000461E3E70303D2846FEF70AFF05460C4672
:1016F00026480068FEF731FF0290019128462146F6
:10170000049A039BFEF788FE029A019BFEF7D2FD26
:10171000FEF737FF1A4A19491C4B1860F0B203282C
:10172000CCD84878322811D0312808D0302811D1AF
:10173000164800681749FEF77FFDD44909E01348B1
:1017400000681449FEF778FDCF4902E00F480068B1
:101750000F4908600A4800210170104801700948CB
:1017600001700A48016005483221FEF7C4FC05B04B
:10177000F0BDC04620101040241110405801202018
:101780008A0120208B0120200000244050012020CD
:101790001000202000007A443A012020540120202B
:1017A000B0B5451A164801680560681AFEF79CFE38
:1017B00004462846FEF798FE01462C480068FEF7CE
:1017C000FEFC05462A4800682146FEF7F8FC29463B
:1017D000FEF79CFC04460B4D2868FEF785FE01468B
:1017E0002046FEF793FCFEF79FFE286022498842C0
:1017F00002DC2249884201DA29600846B0BDC046B1
:10180000900120208C012020B0B5451A16480168AF
:101810000560681AFEF768FE04462846FEF764FE77
:10182000014612480068FEF7CAFC054610480068E9
:101830002146FEF7C4FC2946FEF768FC04460D4D20
:101840002868FEF751FE01462046FEF75FFCFEF7D2
:101850006BFE28600849884202DC0849884201DAA8
:1018600029600846B0BDC046980120200C00202009
:1018700008002020940120207F0C000081F3FFFF4E
:10188000012000020D490A6802430A600C480178F1
:1018900000290DD120BF0178002909D120BF01788E
:1018A000002905D120BF0178002901D120BFEEE732
:1018B000044909680022027088B270470411004090
:1018C000A401202080625540B0B57D21090241432A
:1018D0001E480368262206E0E41A051F2D686419D5
:1018E000A2188A4210D21C460368A34208D103689A
:1018F000A34205D10368A34202D10368A342F3D0F7
:101900009C42E9D9E41AEBE7B0BDC046B0B50F4937
:101910000B684001262206E0E41A0D1F2D686419A9
:10192000A218824210D21C460B68A34208D10B6851
:10193000A34205D10B68A34202D10B68A342F3D0A6
:101940009C42E9D9E41AEBE7B0BDC04618E000E0DC
:1019500007490A68D20708D00A68D20705D00A6882
:10196000D20702D00A68D207F3D1C2B28A617047A7
:101970000811104082B0FFF777FD3B490A6801204B
:1019800002430A60C103394A116041031160022316
:101990001360374A116013601021116081041160D7
:1019A000C60540060090344F3E6005242046FFF7F0
:1019B000ADFF009D2F4805610A200190FFF7A6FFAB
:1019C0003E612046FFF7A2FF2A4805601E20FFF770
:1019D0009DFF3E602046FFF799FF2648056001986D
:1019E000FFF794FF3E602046FFF790FF2148056116
:1019F0000198FFF78BFF3E616420FFF787FF80248B
:101A00001E4D3E616420FFF781FFFFF739FF3E6006
:101A1000000928801420FFF779FFAD1C641EF0D167
:101A2000FFF758FA164800784038FEF75DFD044687
:101A30001448016804602046FEF7B9FB12490968A2
:101A4000FEF7BDFB0546114801682046FEF7B7FBCF
:101A50002946FEF75BFB0E490860FFF70DF80520ED
:101A6000FFF732FFA0E7C0460438864080E200E07E
:101A700000E100E090120A4090320A40200020204D
:101A800028012020240120201400202018002020DC
:101A90004C0120200FB410B503A9044B044A02984E
:101AA00000F08AF910BC08BC04B0184751190000B6
:101AB000000020202021020C01D010211046020A33
:101AC00001D010460839020901D01046091F8208CA
:101AD00001D01046891E420801D0881E7047081A9E
:101AE000704700004900CA020243100000D00420E1
:101AF0004A0D01D001221043044A490D914201D1FF
:101B000002210843012800D105207047FF0700008B
:101B1000F8B504464F1EC8000838211815461E4661
:101B2000086849683A4606239A4310D02A46334645
:101B3000FEF772FC3A46D200083AA3181A687F1ED4
:101B40005B68FEF7B7FB06223B469343EED1022FBC
:101B500023D0042F11D0062F2FD12A463346FEF76B
:101B60005BFCE36AA26AFEF7A5FB2A463346FEF752
:101B700053FC636A226AFEF79DFB2A463346FEF752
:101B80004BFCE369A269FEF795FB2A463346FEF754
:101B900043FC63692269FEF78DFB2A463346FEF754
:101BA0003BFCE368A268FEF785FB2A463346FEF756
:101BB00033FC63682268FEF77DFBF8BD002210B598
:101BC000134610460149FEF70BFE10BD0000F03F22
:101BD00010B5FEF76FFB10BD002210B5134610467E
:101BE0001146FEF7FDFD10BD10B50721024A002089
:101BF0000907FEF76DFE10BD01030000034A10B592
:101C000000201107FEF764FE10BD000001FDFFFF7C
:101C100002E008C8121F08C1002AFAD1704700006C
:101C20007047000000000000002001E001C1121F09
:101C3000002AFBD17047000001490860704700008E
:101C400004002020F0B51FB486B00998089A030D4F
:101C50000021024314D05148514A1818504305142A
:101C60001198012810981AD0281A401C00264D4FB0
:101C70004D49009601910490002812DA444211E087
:101C80001198012449A3012801D11098C143069855
:101C9000119A84600360C26041600BB0F0BD4042A5
:101CA000E4E70446210500203F4A001C514103910E
:101CB000029012E0E00707D032463B4601990098B7
:101CC000FEF7AAFB0191009032463B4610461946AA
:101CD000FEF7A2FB06460F466410002CEAD10498DA
:101CE000039B0028029A0999089806DAFEF794FBEC
:101CF000019B009AFEF790FB05E0FEF771FD019B4A
:101D0000009AFEF76DFD04460E460022284BFEF7B2
:101D100015FE03D80020C043014607E00022254BF2
:101D200020463146FEF7C6FAFEF7E8FD102409E02A
:101D3000002C0ADB0A220023FEF75EFC079B3032F0
:101D40001A55641E02460A43F2D11122641C079BF5
:101D5000121B1C19119B012B03D0012308430ED128
:101D60000AE0084304D0112010900020119077E77A
:101D70001098151A6D1E0BE01098824202DD0023A8
:101D80006D1C03E0824201DA00236D1E002BEED0B1
:101D9000069811998260C16030C07EE701FCFFFFA8
:101DA000104D0000000014400000F03F3000000023
:101DB0000000F0430000E03FFFB597B00646002565
:101DC00018E2252877D100242746FD49049400E035
:101DD0000443761C32780120203A90400842F7D123
:101DE00030782A280ED0022230780146303909296D
:101DF00016D804990A235943303940181443761CE5
:101E00000490F1E7189802C804911890002904DAA8
:101E10000120400304434842049002200443761CFE
:101E200030782E2814D1042004437078761C2A2898
:101E300009D11898761C80C8189009E00A214F43F0
:101E4000303FC719761C3078014630390929F5D959
:101E500030786C2810D006DC4C281AD068280ED0B8
:101E60006A2817D104E0742813D07A2812D110E020
:101E70000120400504430CE00121090501E0032194
:101E800009050C437178814203D101200005241813
:101E9000761C761C3078119066280BD013DC5828FD
:101EA0007DD009DC00287BD04528F6D04628F4D028
:101EB00047281AD1A5E118E0632835D0642870D0EE
:101EC000652812D19DE170286CD008DC6728F1D01C
:101ED00069287BD06E280DD06F2806D1BAE0732810
:101EE0002ED0752871D0782859D01A9A1999904710
:101EF0006D1C7EE16002400F022809D003280DD03E
:101F00000428189801680DD00D60001D189070E12C
:101F10001898EA1701680D604A60F6E7189801689A
:101F20000D80F2E70D70F0E718986A46017811729B
:101F3000001D18900020507202A80090012005E0BA
:101F4000189802C8189000200091C04361070DD571
:101F5000002101E00199491C0191B94212DA814244
:101F6000F8DB009A515C0029F4D10BE0002101E07C
:101F70000199491C01918142FADB019A0099895C1F
:101F80000029F5D1019904981A9B471A2146384631
:101F9000199A00F097FA0199401945180BE04FE0A3
:101FA0002CE113E04EE0009800990078491C009164
:101FB0001A9A199990470198401E0190401CF2D13D
:101FC000214638461A9B199A10E137E00A20002171
:101FD000009001916002410F022907D0189A01CAAE
:101FE0001892C2179446032908D00AE01898C01D19
:101FF000C108C90005C91891944607E000B2C2178C
:102000009446042902D140B2C1178C460022614691
:10201000944506DA0A460021404291418C462D2122
:1020200002E0210504D52B216A461173012103E04A
:10203000E10701D02021F7E7029155E00A200AE0EC
:10204000102008E01020009000210420044301919A
:10205000082703E008200021019100906002410F51
:10206000022907D0189A01CA18920022944603291F
:1020700008D008E01898C01DC108C90005C918910A
:10208000944603E080B2042900D1C0B2002102913D
:10209000210729D51199702906D0009A1021019B9A
:1020A0004A401A4305D00EE040216A4611730121CF
:1020B00008E06146014306D030216A461173119948
:1020C000517302210291009A0821019B4A401A4350
:1020D0000AD16146014301D1610705D530216A4625
:1020E000117301217F1E02911199582904D035A145
:1020F0000E910DA90D910DE037A1F9E76146019B05
:10210000009AFEF779FA0E9B8C469B5C0D9A521E44
:102110000D92137061460143F0D10D9805A9081A7C
:1021200020300190600703D501200004844300E0C3
:1021300001270198874201DD381A00E0002001994B
:1021400000904118029809180498401A0490E0037E
:1021500006D421461A9B199A049800F0B3F9451940
:10216000002706E003A81A9AC05D199990476D1CD4
:102170007F1C02988742F5DBE0030CD521461A9BB1
:10218000199A049800F09EF9451904E01A9A302033
:10219000199990476D1C0099481E00900029F5DCA4
:1021A00008E00D980D990078491C0D911A9A19991B
:1021B00090476D1C0199481E01900029F1DC63E1F4
:1021C000092801003031323334353637383961620D
:1021D00063646566000000003031323334353637D1
:1021E00038394142434445460000000000F05AF9A6
:1021F0004519761C3078002800D0E2E528461BB04F
:10220000F0BD600700D406271898C01DC108C9009A
:1022100048680A680831C30FDB071891190001D01C
:102220009CA108E0210501D59BA104E0E10701D0B4
:102230009AA100E09AA1430011985B0810916528CB
:102240000CD006DC452809D046281DD0472841D1AE
:1022500041E0662818D067283CD13CE00021112FCE
:1022600001DB112000E0781C0191009008A911A861
:10227000FFF7E8FC139905910021119A15927F1C34
:1022800012980197009150E00120C00703900120AF
:10229000019008A9009711A8FFF7D4FC139A14998C
:1022A00005920022119B009212981593059A0192B3
:1022B000002901D0104602E0791C40180190381A1C
:1022C00001D5019804E04042401E0090781C019026
:1022D000C01B029043E0012F00DA01270021112FDB
:1022E00001DD112000E038460191009008A911A8F5
:1022F000FFF7A8FC13990591119A002112981592E5
:102300000091019721070CD40599B94201DB01998D
:1023100000E00191012904DD159A491E515C302924
:1023200006D0B84201DA011D05DA0121029115E05B
:102330000199491EEDE7002805DC0099411800913C
:102340000199091A03E0019A411C914200DD0191B3
:102350000099401A401C02900120C00703902007FA
:1023600006D402990198814202DB0020C04302900A
:1023700000206946C87707AF012103980337C907D2
:10238000884224D0022011902B201290039800281C
:102390000CDA404203902D20129007E00A210398A6
:1023A000FEF70BF930317F1E039039701199481EEA
:1023B00011900029F2DC03980028EFD1791E1298C1
:1023C00008703078202108404530BF1E387006A8BC
:1023D000C01BC01D039010980078002800D0012079
:1023E000019941180298C017091803980918049810
:1023F000401A401E0490E00306D421461A9B199A05
:10240000049800F05FF8451910980078002803D070
:102410001A9A199990476D1CE00324D521461A9BFE
:10242000199A049800F04EF845191CE0009800280D
:1024300007DB00990598884203DD1598405C1999DF
:1024400001E0199930201A9A904700986D1C401CA1
:1024500000900298401E0290002804D11A9A2E2063
:10246000199990476D1C0199481E01900029DDDCE7
:1024700005E038781A9A7F1C199990476D1C0399CA
:10248000481E03900029F4DC21461A9B199A0498EF
:10249000ACE600002D0000002B0000002000000032
:1024A00000000000F8B5044600251E4617468804C3
:1024B00004D405E039462020B0476D1C641EF9D5D0
:1024C0002846F8BDFFB50446002581B01E46C80366
:1024D00001D5302700E02027880404D505E03846E0
:1024E0000399B0476D1C641EF9D5284605B0F0BDB0
:1024F000F0B51FB494B084460C460246179D16985A
:102500000090490068006300490840080393002ACE
:1025100001D0012600E000269E19FB4BF6185B1047
:102520009E422BD36E00009F0196002F00D0012702
:10253000F719F54EF54BBE199E421FD3009E034678
:10254000F34F334309D03B469C4201D1002A04D0CB
:10255000039B002A05D0012604E00020394619B06B
:10256000F0BD00269E19EB4B9E4207D8009F019EAE
:10257000002F00D00127F6199E4207D92B4660464E
:102580002146169AFFF724FB19B0F0BD0023002C5A
:1025900029DAE14EB04226DAE04EB04201DB0223F6
:1025A00021E0DB4EB0421EDBDD4E070DBE19142EBE
:1025B00009DD3427BF1B009EFE400196BE40009FF0
:1025C000BE420BD00FE0009F002F0CD11427BF1B81
:1025D0000646FE400196BE40864204D1019BDE07BE
:1025E000F60F02239B1B0E46164318D1002D16DA58
:1025F000002C03D0022B01D0012B06D00220FFF7C4
:102600001BFBFFF7DBFA19B0F0BD0220FFF714FB4C
:10261000FFF7D4FA0122D207514019B0F0BD009E55
:10262000002E61D1BC4EB04220D1BE48844201D1BF
:10263000002A08D0B648814209DB002D10DB16982D
:10264000294619B0F0BD0020B14919B0F0BD002DE8
:1026500006DA01222946D2071698514019B0F0BD7A
:10266000B14979440868496819B0F0BDA84FB8422B
:1026700025D1002D1FDA002904D0B14212D1002A41
:1026800009D018E0002A72D1A349E20F0020D20736
:10269000114319B0F0BD0020E20F0146D2071143EB
:1026A00019B0F0BDB14206DA234600203946FEF7E4
:1026B00097F819B0F0BD1046214619B0F0BDB142EF
:1026C00012DA0126B607B54203D123461046194651
:1026D000EFE3964EB54207D1261E05DB1046314684
:1026E00000F0F0FB19B0F0BD67007F081646002A25
:1026F00040D100290AD0884A914229D1002C0EDD10
:10270000002D1CDB0020114619B0F0BD022B16D0A5
:10271000002C14D0012B12D1002C14DB0FE0002C64
:1027200028DA002D09DB012B03D000207A4919B0EB
:10273000F0BD00207E4919B0F0BD012B03D0002070
:10274000014619B0F0BD00200121C90719B0F0BD44
:102750006F4A91420ED1002C01DA002B17D0022BC8
:1027600006D00020C043FDF7CBFE19B0F0BD7AE2E1
:102770000120F8E7E217521C94461A4307D00022C2
:102780000692634C62465B1E1A4307D009E00120A3
:10279000FFF752FAFFF720FA19B0F0BD0022614CA2
:1027A0000692644A90427DDD634B644A98420ADD9A
:1027B000914202DC002D10DB25E05548814202DB0E
:1027C000002D0ADC1FE0914202DA002D05DB1AE041
:1027D0004F4B994223DD002D15DD0220FFF72CFA27
:1027E000FFF702FA05460E4600224B4B214606989B
:1027F000FDF712FE084671004908C00FC0070143EB
:10280000284619B0F0BD0220FFF716FAFFF7F6F9D7
:1028100049004908E20FD207114319B0F0BD002268
:1028200030463946FDF7EAFD012205460E46D24301
:10283000FEF74EF8424A434BFDF7E6FD2A46334683
:10284000FDF7EAFD0022394BFDF7DEFD07462A467B
:102850003346019110461946FDF7DEFD3A46019BCD
:10286000FDF7DAFD0746032007912A463346400765
:102870003549FDF7D1FD01910890344A324B384675
:102880000799FDF7C9FD07460291314A314B2846A9
:102890003146FDF7C1FD3A46029BFDF7AFFD074605
:1028A0000B4600E013E00246079101990898FDF7F6
:1028B00001FD00250E462846019B089AFDF79EFD66
:1028C0003A46079BFDF7A0FD02460B468DE1012528
:1028D00000202D05A94207DA352230463946FDF79A
:1028E000F7FF06463420C0430A1512180C48084F5B
:1028F000101803900803000B014639430491164950
:1029000088422BDC00202DE0FFFF1F00FFFF0F009F
:102910000000F03F0000E0FF0000F07F00004043B7
:1029200001FCFFFF0000F0BF320900000000E03FA3
:102930000000F0FF0000E0410000F043FFFFEF3F28
:10294000555555555555D53F4715F73FFE822B65D3
:1029500044DF5DF80BAE543E8E980300FE4988427A
:1029600002DA01200F9007E000200F900398401C2E
:1029700003900498401B0490049909910F98F7491B
:10298000C00079440D9008184368026830460999E0
:10299000FDF734FD0191F249089079440D9808182B
:1029A0004368026830460999FDF784FC02460B46ED
:1029B00000203946FDF714FF07910A90019B089A01
:1029C000FDF72AFD1090E7480F460025784400687F
:1029D00004990C9048100121490708430F99890474
:1029E00040180121C90441180491DF4979440D9828
:1029F00008184368026804990C98FDF7FFFC3246FA
:102A0000099BFDF701FD2A463B46FDF705FD0991AF
:102A1000064628463946049B0C9AFDF7FDFC019BAF
:102A2000089AFDF7F1FC3246099BFDF7E7FC079B8E
:102A30000A9AFDF7F1FC0F91109A00903B46104660
:102A40001946FDF7E9FC06460246C8480B460791C1
:102A500006217844FFF75CF8079B32460191049009
:102A600010461946FDF7D8FC019B049AFDF7D4FCEB
:102A7000019106463B4628461946109AFDF71AFC76
:102A80000F9B009AFDF7C8FC3246019BFDF712FC34
:102A90002A463B460191089010461946FDF7BCFCBA
:102AA00002460B4607910A900020B149FDF702FC4F
:102AB000019B089AFDF7FEFB0E462A46AC4B2846C2
:102AC000FDF79CFC079B0A9AFDF798FC019B089A6E
:102AD000FDF79AFC2A460991129033461046394672
:102AE000FDF79AFC019108903B46109A09991298BB
:102AF000FDF792FC0746079133462A460F99009846
:102B0000FDF78AFC3A46079BFDF7D4FB07460B46C8
:102B10000246079101990898FDF7CCFB0E4628461E
:102B2000019B089AFDF76AFC3A46079BFDF76CFC8F
:102B30000746072007912A46334640078D49FDF78F
:102B40006BFC029000918C4A8A4B38460799FDF73E
:102B500063FC074601912A46334688488849FDF7B9
:102B60005BFC3A46019BFDF7A5FB864A05467A4485
:102B70000D981018436802682846FDF79BFB0890E3
:102B800001910398FDF7BCFC0B910746019B089A45
:102B900000990298FDF78EFB7B4A05467A440D9812
:102BA0001018436802682846FDF784FB3A460B9BE1
:102BB000FDF780FB00250E463A4628460B9BFDF7A5
:102BC0001DFC724A07467A440D9810184368026843
:102BD0003846FDF713FC009B029AFDF70FFC019BA2
:102BE000089AFDF711FC02460B4617990020029047
:102BF0000F461698FDF710FC039100903B46029A91
:102C000017991698FDF7FAFB2A463346FDF704FCA0
:102C1000039B009AFDF74EFB07910C902A46334622
:102C200039460298FDF7F8FB06460F46079B0C9ABB
:102C3000FDF740FB564A0D46914220DB5242AA184E
:102C4000024310D132463B46FDF7D8FB0391089072
:102C5000504A514B07990C98FDF72CFB039B089A9F
:102C6000FDF76CFE1ED20220FEF7E6FFFEF7BCFF6A
:102C700049004908E20FD207114319B0F0BD6A00BC
:102C8000464B52089A420DD3454AAA18024300D037
:102C9000B9E532463B46FDF7B1FB079B0C9AFDF7C1
:102CA0004DFEF5D96A00002352083E480393110DEA
:102CB0003D4B09189A4223DD01221205491CCA40E6
:102CC00052195100490D08183849794409681346CA
:102CD0008C463749C1408B4312030121120B090571
:102CE00051181422101AC1400391002D01DA4842F4
:102CF0000390624630463946FDF780FB06460F4694
:102D000032463B4607990C98FDF7D4FA00252A462F
:102D1000284B28460B91FDF77FFB01910890264A2E
:102D2000264B28460B99FDF777FB0291009032461F
:102D30003B4628460B99FDF761FB079B0C9AFDF774
:102D400063FB1F4A1F4BFDF767FB029B009AFDF7D1
:102D5000B1FA07460B4637E07AB60B008A05000049
:102D600072050000C805000020050000EA0400000C
:102D70000000084009C7EE3FFD033ADCF5015B1493
:102D8000E02F3EBEBE03000080030000560300009B
:102D900000009040FE822B654715973C00CC904088
:102DA00000346F3F01FCFFFF0000E03FCA0200005B
:102DB000FFFF0F00432EE63F396CA80C615C20BE7C
:102DC000EF39FAFE422EE63F024607910199089834
:102DD000FDF770FA0E460546019B089AFDF70EFBBB
:102DE0003A46079BFDF710FB07912A4633460C90A5
:102DF00010461946FDF710FB074602462F480B46C2
:102E00000B9105217844FEF783FE3A460B9BFDF7B4
:102E100003FB2A463346FDF7F7FA07460991284691
:102E20003146079B0C9AFDF7F7FA079B0C9AFDF7C2
:102E300041FA01230191089000229B073846099925
:102E4000FDF7DCFA07910A903A4628463146099B7D
:102E5000FDF7E2FA079B0A9AFDF7C2FC019B089A6C
:102E6000FDF7CCFA2A463346FDF7C8FA0022144B88
:102E7000FDF7CAFA054603980E46000581190915A3
:102E8000002911DC28463146039AFDF721FDFEF7A3
:102E900029FE042801D1FEF7B1FE28463146039AE7
:102EA000FDF716FD054600E031180B462A4621467F
:102EB0000698FDF7B1FA19B0F0BD000068010000F6
:102EC0000000F03FF8B506460C46FDF776FD051EFE
:102ED0000F4600D00120014349000B484908411A20
:102EE000C90F0DD0002E01D0012100E000210C43BC
:102EF00061004908401AC00F02D10120FEF79CFE74
:102F000028463946F8BD00000000F07F00000000B0
:102F1000000000000000F03F000000000000F83F4B
:102F200000000000000000000000004003B8E23F85
:102F3000000000000000000006D0CF43EBFD4C3E37
:102F4000033333333333E33FFFAB6FDBB66DDB3F2C
:102F50004D268F515555D53F01411DA96074D13F74
:102F600065DBC9934A86CD3FEF4E454A287ECA3F6E
:102F70003E5555555555C53F93BDBE166CC166BFF0
:102F80002CDE25AF6A56113FF16BD2C541BDBBBEE9
:102F9000D0A4BE726937663E000000000000000049
:102FA000010500000000000308000000800C000084
:102FB000200101000807C70002000000C700000050
:102FC00001000000000000000000000004000000FC
:102FD000180000000030000004000000180000008D
:102FE0000030000008300000000020202000000019
:102FF000101C000028300000200020208804000061
:10300000281C00000000000000000000000000007C
:103010009A99993E000020410000A0404260E53BA3
:08302000508D173D0000000077
:04000005000000C136
:00000001FF
