:020000040000FA
:10000000A8042020D5000000D9000000DB0000007B
:1000100000000000000000000000000000000000E0
:10002000000000000000000000000000DD000000F3
:100030000000000000000000DF000000E100000000
:10004000E3000000C90F0000E3000000E30000002F
:10005000BD090000E3000000E3000000E300000031
:1000600000000000E3000000E300000000000000CA
:10007000000000007D150000E30000001D150000D9
:10008000E3000000E300000079140000E30000003A
:10009000E3000000E300000000000000000000009A
:1000A000E3000000E300000000000000000000008A
:1000B000E300000000000000E3000000E300000097
:1000C0000348854600F000FC0048004795180000F2
:1000D000A804202003480047FEE7FEE7FEE7FEE70E
:1000E000FEE7FEE7C1000000D2B201E00270401C52
:1000F000491EFBD270470022F6E710B513460A46A8
:1001000004461946FFF7F0FF204610BDF8B5024639
:100110004A40D40F42004B0052085B089A4202D278
:100120000246084611464A0023D0C30D4A00DDB2FC
:10013000120EAD1A202D35DA49020126490AF605BC
:100140008A19002C00D0524220214F1B1146B94081
:100150002A411018C20D9A4221D0002C17D0012D2F
:1001600008DCDA05801AD20F8019D207DBB200F062
:100170006EFAF8BDDA05801A012340001B06C0188C
:1001800080185A428018CA0F1043490007E04908F6
:10019000C2071143DA05801A80194008801800F060
:1001A0004EFAF8BD61000122511A001BF7E7012247
:1001B000D2075140AAE70122D2075040A6E70246E3
:1001C00070B54A40D30FDB0740002DD04A002AD03B
:1001D000010E140E000212020919400A520A841874
:1001E000E50104465443000A120A2E045043A419A0
:1001F0004219200CC543AA18120C0125AD03521C4C
:10020000521912047F39240400D0521C104301D427
:100210004000491EC2B20C06C0092018401C40080C
:10022000802A02D003E0002070BD40084000002971
:1002300000DA0020184370BD70B502464A40D50F61
:1002400040004A00ED0740085208002814D0002A58
:1002500012D0C40DD30D41020120C0055202490A3B
:10026000520AE41A091812187D34914201D3641C11
:1002700000E04900002C01DA002070BD002391420B
:1002800001D3891A0343400849000028F7D1002907
:100290000AD0914202D10121C90705E0914201D261
:1002A000012101E00121C943E005C018401900F017
:1002B000C6F970BDF0B507460846584087B0C00F74
:1002C000049048000E46590040084908BC1A88416D
:1002D00005D2384631461E4617460B4602465800A0
:1002E000400810434CD0300D039040055900400D9C
:1002F000490D0590401A0290402872DA1803012136
:10030000000B09050843019004980092002805D0CD
:1003100001995242002088410092019002984021A8
:100320000A1A0199009800F067F905460C466B46D9
:1003300007CB00F071F9C0197141039A0E0D00232B
:10034000D71756401A467A40164344D0049A002ADA
:100350002DD0029A012A039A15DC1205C01A914188
:1003600001263605001C7141D20F059ED20700936D
:10037000019202962A46234600F0AFF907B0F0BD7D
:1003800038463146FAE71605224A0F46B218C01A17
:10039000B74101210905001C4F4100187F4111465A
:1003A00018187941E20F10436D19644113E0E20718
:1003B0006D0815436408C2071443039A0126120509
:1003C000C01A91413605001C7141CE0740083043E8
:1003D0004908C01851412A46234600F071F9CDE77B
:1003E000FFE7049801224000C117121A00238B4135
:1003F00004983146C417381AA141EEE730B40124FD
:10040000E407634030BC55E730B40124E4076140A1
:1004100030BC4FE70000E0FFF0B51FB488B00B9987
:100420000998002448400999C00F490049080991DA
:10043000C0070B990090490049080B910999089849
:10044000A64608431CD00B990A98084318D009986F
:1004500001244000420D4800410D09982405000385
:10046000000B204309900B980003000B20430B90D6
:1004700050181C494018002201901446104605E00F
:10048000002001460DB0F0BD032801DA034600E06C
:1004900003239C46C11A0AAE0AE05F0008ADED5B7B
:1004A0004F00F75B7D430027AA187C41491C5B1E67
:1004B0006145F2DD410004AB5A522104120C0A439B
:1004C000240C401C0828DFDB01980290009970463C
:1004D00001910090059B049A0799069800F0FDF899
:1004E000D0E700000DFCFFFFC217C10F504010B550
:1004F0004018CA079623002100F0A9F810BD00009B
:100500000EB5C217C10F5040CA0740180021054B55
:100510000293019200910A460B4600F0DEF803B008
:1005200000BD000033040000C20F4100400201235F
:10053000400ADB05D207090EC0187F2901DA002026
:100540007047962903DC9623591AC84001E0963972
:100550008840002AF4D040427047C20FD2074000C2
:1005600040080BD0C10D0723DB01C9184002090563
:10057000400A1143C208400711437047002001465A
:100580007047CB0FDB07490010B5490802460A4304
:1005900007D00A0D07240903E401090B121B002AE6
:1005A00001DC002010BDC900440F0C43C100E0185D
:1005B000D205801800F043F810BD70B5044600293C
:1005C00003D000202022012310E0002801D00020C9
:1005D000C043C046C0460DE02546D5408D4205D3F8
:1005E0000D469540641B1D46954040191546521E08
:1005F000002DF1DC214670BD10B5202A04DB014638
:10060000203A9140002010BD914020239C1A0346BF
:10061000E3401943904010BD10B5202A06DBCB17EC
:100620000846203A1041C1170B4306E00B46134120
:10063000D0402024A21A91400843194610BD002939
:1006400004DA401C490001D140084000704770B4F2
:100650000024050C05D11024000402D1002921D06A
:100660001124050E01D100020834050F01D100014B
:10067000241D850F01D18000A41C002801DB40004F
:10068000641C002908D020252E1B0D46F540A140F2
:1006900000D001212943084301061B1B000ADB1D72
:1006A00002D5002070BC7047DB051818801800299F
:1006B000F8DA401C4900F5D170BC40084000704792
:1006C00010B5002B08DA0024401C614192185B41F0
:1006D0001A4301D14008400010BDF0B51FB482B0EC
:1006E00005460C0003D0084601F074F902E001F061
:1006F00071F920300246009021462846FFF77CFF22
:10070000049B059A04460F4618431143084314D02E
:10071000184610431BD0009840210A1A1846059924
:1007200000F0EAF805460E46009A05990498FFF78E
:1007300063FF084305D0012004E02046394607B096
:10074000F0BD0020C11705430E432C4337430099E9
:100750000E986305401A7905E40A00220C43FD0A4D
:100760000A3002D500200146E9E701051019694168
:100770000C9C0D9D00196941FFF7A2FFDFE7000007
:10078000F0B50C465C4085B0E40FE40703944C00E0
:1007900000266408590094464908024602962243FE
:1007A00021D062460A431ED06200570D4A000E0354
:1007B0002303550D012402462C492405781B1B0BED
:1007C000360B401823432643614600901C46501ABE
:1007D000B44103D30098401C009002E092180098A6
:1007E0005B41002803DA0020014605B0F0BD00207F
:1007F000012109050746864611E064461D46141B83
:10080000B54106D36546521BB341744607430C43BA
:10081000A646CD0740084908284392185B41054683
:100820000D43EAD11046184313D060461946504094
:100830007140084306D06046101AB34106D2012227
:10084000002306E000220123DB0702E00122D2435D
:100850005310009874460105381C6141029C039DA9
:1008600000196941FFF72CFFBFE70000FD030000FE
:1008700070B54B005B0803430BD04B005C0D0026AA
:1008800033466542B341D417AD1AA34102DB0020C1
:10089000014670BD12053018514170BD10B50029D8
:1008A00004DB0124E40740428C412146002B04DB99
:1008B0001C460123DB075242A341994200D19042DA
:1008C00010BD0000000000001CB509480090094858
:1008D000019005460126009C05E0E36807CC334300
:1008E0000C3C98471034AC42F7D3FFF7EDFB000007
:1008F000A4270000C427000010B5202A04DB084606
:10090000203AD040002110BD0B46D340D0402024D7
:10091000A21A91400843194610BDFEB500231A469D
:100920001B1A8A4103DB0020014603B0F0BD4A00D8
:100930000D0301212D0B0905520D0D43D10702D1E5
:1009400000186D41521E5110FF31FF310131002757
:1009500004463E4638460097019102460121002098
:100960000905FFF7C9FFC3197141F81832468446DB
:100970008E464A4161462846611A904104D360463A
:10098000241A954176461F46241900986D41401C53
:1009900000903428E1DDF91930467041091BA84167
:1009A00003D20022D243134601E0002213460198ED
:1009B0000105381C7141FFF783FEB6E70448006863
:1009C000C0B2092802D10348012101707047C04616
:1009D00020100040A4012020F0B587B01C48017809
:1009E0004A424A4102701B4E3078012824D12248E5
:1009F0000068224D2946FFF7E2FBFFF795FD04460C
:100A00001F4800682946FFF7DAFBFFF78DFD054612
:100A10001C480068FFF788FD0346002700970197F0
:100A2000029703970497059717A021462A4600F0DE
:100A3000C1FF377007B0F0BD074803680748026878
:100A40000748017807A000F0B5FF07B0F0BDC04629
:100A5000200120203A012020A00120209C012020FC
:100A6000280120207B412525643A25643A25643AF3
:100A700025647D24000000001800202000007A4436
:100A800014002020100020207B4325643A25643A7E
:100A900025643A25643A25643A25643A25643A2562
:100AA000643A25647D240000B0B50A78032313401E
:100AB0000B4A84580B4D2540EB18A92424061B191A
:100AC0008350072212064B68134011242402055953
:100AD0009543EA180251001949780161B0BDC0463A
:100AE00008080000FCFFFF00811E091F00BFFCD2A8
:100AF00070470000F0B583B00B794A79002A2AD0FC
:100B00001A4A1B4C1B4F21252D01202B00D070357C
:100B1000861802190092C219002B00D18825176887
:100B2000464C27407F191760576827407D1955604C
:100B30003568804F3D40356075683D4075600025E3
:100B4000009C256065608F24E4431569254015618C
:100B500055692540556101AA13718B795371096854
:100B60000191114600F008F803B0F0BD38180000FC
:100B70005818000078180000F0B584B06B4A82184D
:100B80000292734BC618784BC21800922A4BC418B5
:100B90000A7901910D68294F202A03920AD0254B2A
:100BA000C018002A17D16B1E029A536023683B407D
:100BB000882517E0681E029A506020683840204B54
:100BC0001843206060683840184360600120450782
:100BD0001C4F104608E06B08029A536023683B40A4
:100BE0000525ED012B432360009903683B402B430F
:100BF000036030684F4B1840306070681840706078
:100C00000020086048608F20C043236903402361AF
:100C10006369034063610198407903990843BD21EA
:100C200001401068084B0340C818801C106004B0D5
:100C3000F0BDC046741800007018000024F93FF0A1
:100C400001040000FFFFFFCF4000FFCF70B5374A1F
:100C500082184B6853603E4BC3180878222857D837
:100C6000840001A52C59A746070D0000110D0000B6
:100C7000070D0000110D0000110D0000110D000006
:100C8000110D0000110D0000110D0000110D0000EC
:100C9000110D0000110D0000110D0000110D0000DC
:100CA000110D0000110D0000F50C0000110D0000E9
:100CB000F50C0000110D0000110D0000110D0000D9
:100CC000110D0000110D0000110D0000110D0000AC
:100CD000110D0000110D0000110D0000110D00009C
:100CE000110D0000110D0000F50C0000110D0000A9
:100CF000F50C0000032424071568A54301246407AC
:100D00002C19146004E0032424071568A54315601A
:100D10000C69D460CC68064D25401C68054E264001
:100D200074191C60097A0143116070BD0418000039
:100D3000777702008888FDFF10B507239B041940D0
:100D400092008018024A84589C436118815010BD5B
:100D50003018000010B5029CA4000019114319437B
:100D6000014A815010BDC046501800009200801802
:100D7000014A81507047C0461018000010B501228A
:100D8000120383180C789C604B7883508978014A51
:100D9000815010BD0C110000B0B511221202835811
:100DA0000124A34383508B780C881C438B882343F6
:100DB000094C1C408358094D1D402B1983508B79D9
:100DC000CC791C43097A21437E231940801842685C
:100DD0009A4351184160B0BD18670000E798FDFFC5
:100DE00010B50122120383180C789C604978815059
:100DF00010BD0000F0B570480188EB22D2431646C2
:100E00000B4601E0361D0ED08719F6243D5B9BB2E0
:100E1000AB4200D82B46F8257F5BBB42F2D83B465D
:100E2000F0E7121D0AD08618375B89B2B94200D3A9
:100E30003946765BB142F4D33146F2E7C918490826
:100E400000230A2201E0121D0833C41865898D426F
:100E50000ED9A5898D420BD9E5898D4208D9258AFD
:100E60008D4205D2658A8D4202D2A58A8D4238D341
:100E7000E02B3DD0A5898D420ED9E5898D420BD955
:100E8000258A8D4208D9658A8D4205D2A58A8D4270
:100E900002D2E58A8D4226D3E5898D420ED9258A74
:100EA0008D420BD9658A8D4208D9A58A8D4205D21B
:100EB000E58A8D4202D2258B8D4216D3258A8D423A
:100EC000C1D9658A8D42BED9A58A8D42BBD9E58A32
:100ED0008D42B8D2258B8D42B5D2648B8C42B2D272
:100EE00004E0D21E02E0921E00E0521E334B1A8034
:100EF000E630782201E0121F0838C3888B420ED2F8
:100F000003898B420BD243898B4208D283898B425F
:100F100005D9C3898B4202D9038A8B4243D8D31E99
:100F2000062B36D384888C420ED2C4888C420BD2D6
:100F300004898C4208D244898C4205D984898C4228
:100F400002D9C4898C4230D844888C420ED284881D
:100F50008C420BD2C4888C4208D204898C4205D9B9
:100F600044898C4202D984898C4220D804888C42DE
:100F7000C1D244888C42BED284888C42BBD2C48801
:100F80008C42B8D904898C42B5D944898C42B2D9F3
:100F90000EE00B480378094800781818C0B24008E2
:100FA00008490870F0BD134602E0531E00E0931E8E
:100FB00003480380EFE7C046200020202A012020BC
:100FC0002C01202028012020F0B58720C1031E48D5
:100FD0000246103A126813460B401C4C2360012352
:100FE000DD03D4031A4C09D42A4213D01E04276807
:100FF000184D2D6837420AD16D1C09E02768154E3F
:1010000036682F4201D1751E02E0751C00E06D1E8E
:10101000104E35609D05960309D42A420FD05B041B
:1010200024680D4A12681C4206D0521E05E023684F
:10103000094A12682B42F8D0521C074B1A6002680A
:101040000A430260F0BDC04648100A402003202039
:1010500080130A40300120203401202000280CD0C9
:1010600008490A88521C0A8092B2824204D10020A8
:101070000880434801210161704741480121016016
:101080007047C0463801202010B50124A0070F4941
:10109000FFF70AFD0E4841680E4A0A4061045118E4
:1010A000416081680C4A0A4082600C4900220A6053
:1010B0001821416121020A4A136A0B431362136823
:1010C0000B43136001682143016010BD60270000DD
:1010D00000110040FEFFECFFF8FFE0E0801100404F
:1010E0002810004010B5214984220A6420481023AA
:1010F00003600A630222026082230B651D4A541CAE
:101100004C658B65CC651C4B0B601C4B1A648124B1
:101110004C675C609C601C60CC629C649C655A61FE
:101120001A619A619A631649164A0A600A63012194
:101130008A07154B1C6814431C601A69134C14432E
:101140001C618722D203124B1C6A14431C621C6868
:1011500014431C600246303A0E4B13600360880251
:101160000D490A6802430A6010BDC046048042402F
:10117000D0320A4081000400810001008480424096
:10118000A0120A400130000290130A40051000002E
:1011900028100A4001208100A0330A4070B582B0B7
:1011A000B34C19492046FFF7E9FD18492046FFF7DF
:1011B000A1FC00250095204629462A462B46FFF72C
:1011C000C9FD204629462A46FFF7B6FD2046294696
:1011D0002A46FFF7CBFD01260096204629462A46DF
:1011E0002B46FFF7B7FD204629463246FFF7A4FD00
:1011F000204629463246FFF7B9FD0548866003219F
:10120000016002B070BDC046682700006C27000076
:10121000003186400F48002101600320C1430E4881
:101220000246083A13680B4013600168012291439B
:101230000160110203688B4303601103001F026801
:101240000A430260FF20000204490A6882430A60E0
:101250007047C04608030B4008010B4000E400E063
:101260000548042101601F2141600021816001685F
:1012700005220A430260704710E000E010B5084CF8
:1012800008492046FFF77AFD07492046FFF7DEFCB4
:10129000064801680122114301600548026010BD43
:1012A0000000864074270000782700002810864040
:1012B0000811864010B5144C14492046FFF790FDE4
:1012C00013492046FFF768FD0321CA03114803684C
:1012D0009343036002692A4B13401A330361426946
:1012E0000A433C218A43426141680122114043681C
:1012F0009343591841609102074B1C680C431C60D2
:1013000001681143016010BD008010408C2700006F
:101310008E270000009110402890104010B5144C0A
:1013200014492046FFF75CFD13492046FFF734FDC2
:101330000321CA0311480368934303600269104BF9
:1013400013401A33036142690A433C218A434261D4
:10135000416801221140436893435918416091024A
:10136000084B1C680C431C6001681143016010BDF0
:1013700000001040982700009A270000001110403C
:101380000000FFFF2810104080B500F01BF8FFF7A9
:10139000A9FEFFF73FFFFFF701FFFFF76FFFFFF722
:1013A00089FFFFF7BBFFFFF76FFEFFF759FFB8207C
:1013B000024900220A5402490A5480BD64022020D6
:1013C000A8012020F0B581B00D480E4941600E4AB9
:1013D00051600E4B59600E4C61600E4D69600E4EAF
:1013E00071600E4F79600E490160116019602160D3
:1013F0002960316039601020FFF776FB01B0F0BD45
:1014000000080A40030000B100280A400028864076
:101410000008864000881040000810400008004086
:101420000100002670B50C46014601263003730307
:101430000E4A012902DB1060136102E013601061A3
:1014400049420B4D00222846FFF790FC3104094821
:10145000012C02DB0160066102E00660016164426A
:10146000012228462146FFF781FC70BD90120A40F8
:101470000020864090320A40F0B581B01D480068D7
:10148000000634D01C4801681C4F39601C490A68AA
:1014900000230B601B490A6003606420FFF7DEFD38
:1014A000834805681848066828463146FEF72EFE30
:1014B000FFF73AF804461548046028463146FEF71F
:1014C00076FEFFF731F8124D28603968204600F0AB
:1014D000F7F8104C20600B4801682868404200F083
:1014E00023F901460C4801602068FFF79BFF01B01B
:1014F000F0BDC04620108640300120209C012020F5
:1015000034012020A00120204C0120204401202073
:10151000480120203C0120204001202010B5124825
:101520000068C0B20B281ED11048C169104A138848
:101530007E2B13D813885C1C14800E4AD154026889
:10154000D20708D00268D20705D00268D20702D0BD
:101550000268D207F3D1C9B2816101E00020108096
:1015600005480121017010BD2090104008911040E5
:10157000A603202024032020A4032020F0B585B05A
:1015800044480068C0B20B2800D080E042480068A0
:10159000C1B27D2905D07B290BD1484901220A70AF
:1015A0000BE03E49C87850280FD143480121017013
:1015B00060E042490978012969D139490A78374BF5
:1015C0009854501C087005B0F0BD4878232851D0BD
:1015D000334A1678334F3E70042E33D3F0B22F497E
:1015E0004118491E0D781178081AFEF789FF024646
:1015F0000B4600202C4900F05DFB049003913878E5
:10160000461E3E70303D2846FEF77AFF05460C46E2
:1016100026480068FEF7A1FF029001912846214666
:10162000049A039BFEF7F8FE029A019BFEF742FE26
:10163000FEF7A7FF1A4A19491C4B1860F0B203289D
:10164000CCD84878322811D0312808D0302811D190
:10165000164800681749FEF7EFFDD44909E0134822
:1016600000681449FEF7E8FDCF4902E00F48006822
:101670000F4908600A4800210170104801700948AC
:1016800001700A48016005483221FEF734FD05B0BB
:10169000F0BDC046201010402411104058012020F9
:1016A0008A0120208B0120200000244050012020AE
:1016B0001000202000007A443A012020540120200C
:1016C000B0B5451A164801680560681AFEF70CFFA8
:1016D00004462846FEF708FF01462C480068FEF73E
:1016E0006EFD05462A4800682146FEF768FD29463A
:1016F000FEF70CFD04460B4D2868FEF7F5FE01468B
:101700002046FEF703FDFEF70FFF286022498842BE
:1017100002DC2249884201DA29600846B0BDC04691
:10172000900120208C012020B0B5451A1648016890
:101730000560681AFEF7D8FE04462846FEF7D4FE78
:10174000014612480068FEF73AFD05461048006859
:101750002146FEF734FD2946FEF7D8FC04460D4D20
:101760002868FEF7C1FE01462046FEF7CFFCFEF7D3
:10177000DBFE28600849884202DC0849884201DA19
:1017800029600846B0BDC046980120200C002020EA
:1017900008002020940120207F0C000081F3FFFF2F
:1017A000012000020D490A6802430A600C480178D2
:1017B00000290DD120BF0178002909D120BF01786F
:1017C000002905D120BF0178002901D120BFEEE713
:1017D000044909680022027088B270470411004071
:1017E000A401202080625540B0B57D21090241430B
:1017F0001E480368262206E0E41A051F2D686419B6
:10180000A2188A4210D21C460368A34208D103687A
:10181000A34205D10368A34202D10368A342F3D0D7
:101820009C42E9D9E41AEBE7B0BDC046B0B50F4918
:101830000B684001262206E0E41A0D1F2D6864198A
:10184000A218824210D21C460B68A34208D10B6832
:10185000A34205D10B68A34202D10B68A342F3D087
:101860009C42E9D9E41AEBE7B0BDC04618E000E0BD
:1018700007490A68D20708D00A68D20705D00A6863
:10188000D20702D00A68D207F3D1C2B28A61704788
:101890000811104082B0FFF777FD3B490A6801202C
:1018A00002430A60C103394A1160410311600223F7
:1018B0001360374A116013601021116081041160B8
:1018C000C60540060090344F3E6005242046FFF7D1
:1018D000ADFF009D2F4805610A200190FFF7A6FF8C
:1018E0003E612046FFF7A2FF2A4805601E20FFF751
:1018F0009DFF3E602046FFF799FF2648056001984E
:10190000FFF794FF3E602046FFF790FF21480561F6
:101910000198FFF78BFF3E616420FFF787FF80246B
:101920001E4D3E616420FFF781FFFFF739FF3E60E7
:10193000000928801420FFF779FFAD1C641EF0D148
:10194000FFF758FA164800784038FEF7CDFD0446F8
:101950001448016804602046FEF729FC1249096812
:10196000FEF72DFC0546114801682046FEF727FCCE
:101970002946FEF7CBFB0E490860FFF72DF805203E
:10198000FFF732FFA0E7C0460438864080E200E05F
:1019900000E100E090120A4090320A40200020202E
:1019A00028012020240120201400202018002020BD
:1019B0004C0120200FB410B503A9044B044A02982F
:1019C00000F0D0F810BC08BC04B018477118000033
:1019D000000020202021020C01D010211046020A14
:1019E00001D010460839020901D01046091F8208AB
:1019F00001D01046891E420801D0881E7047081A7F
:101A0000704700004900CA020243100000D00420C1
:101A10004A0D01D001221043044A490D914201D1DF
:101A200002210843012800D105207047FF0700006C
:101A3000F8B504464F1EC8000838211815461E4642
:101A4000086849683A4606239A4310D02A46334626
:101A5000FEF7E2FC3A46D200083AA3181A687F1E45
:101A60005B68FEF727FC06223B469343EED1022F2C
:101A700023D0042F11D0062F2FD12A463346FEF74C
:101A8000CBFCE36AA26AFEF715FC2A463346FEF752
:101A9000C3FC636A226AFEF70DFC2A463346FEF752
:101AA000BBFCE369A269FEF705FC2A463346FEF754
:101AB000B3FC63692269FEF7FDFB2A463346FEF755
:101AC000ABFCE368A268FEF7F5FB2A463346FEF757
:101AD000A3FC63682268FEF7EDFBF8BD002210B599
:101AE000134610460149FEF74BFE10BD0000F03FC3
:101AF00010B5FEF7DFFB10BD002210B513461046EF
:101B00001146FEF73DFE10BD10B50721024A002028
:101B10000907FEF7ADFE10BD01030000034A10B532
:101B200000201107FEF7A4FE10BD000001FDFFFF1D
:101B300002E008C8121F08C1002AFAD1704700004D
:101B40007047000000000000002001E001C1121FEA
:101B5000002AFBD17047000001490860704700006F
:101B600004002020FFB58DB00446002506E025289E
:101B70000AD0109A0F999047641C6D1C2078002899
:101B8000F5D1284611B0F0BD00270121484A009741
:101B900000E00743641C23780846203B984010422D
:101BA000F7D120782E2817D1042007436078641CD1
:101BB0002A280CD10E98641C02C800910E900BE0EC
:101BC00000990A22514330394018641C0090207853
:101BD000014630390929F3D920780028D1D064286A
:101BE00008D0692806D075281ED0109A0F99904702
:101BF0006D1C5BE00A200E99019001C90E9100282E
:101C000002DA40422D2102E0390504D52B216A4633
:101C10001172012103E0F90704D02021F7E70BAE90
:101C20000B910DE00021FAE70A200E99019001C9FD
:101C30000E91F7E70199FEF7C0FC3031761E317046
:101C40000028F7D103A8801B20300190780701D528
:101C5000009801E0012000900199884201DD401ABE
:101C600000E000200027009006E002A8109AC05D66
:101C70000F9990476D1C7F1C0B988742F5DB04E0A1
:101C8000109A30200F9990476D1C0099481E0090C3
:101C90000029F5DC05E03078109A761C0F99904702
:101CA0006D1C0199481E01900029F4DC641C65E755
:101CB00009280100F0B51FB494B084460C460246D2
:101CC000179D169800904900680063004908400875
:101CD0000393002A01D0012600E000269E19FB4B49
:101CE000F6185B109E422BD36E00009F0196002FCA
:101CF00000D00127F719F54EF54BBE199E421FD3B0
:101D0000009E0346F34F334309D03B469C4201D12A
:101D1000002A04D0039B002A05D0012604E00020FD
:101D2000394619B0F0BD00269E19EB4B9E4207D8EC
:101D3000009F019E002F00D00127F6199E4207D96F
:101D40002B4660462146169AFFF7D2FE19B0F0BD29
:101D50000023002C29DAE14EB04226DAE04EB042F0
:101D600001DB022321E0DB4EB0421EDBDD4E070D1E
:101D7000BE19142E09DD3427BF1B009EFE400196BC
:101D8000BE40009FBE420BD00FE0009F002F0CD141
:101D90001427BF1B0646FE400196BE40864204D172
:101DA000019BDE07F60F02239B1B0E46164318D13C
:101DB000002D16DA002C03D0022B01D0012B06D007
:101DC0000220FFF7C9FEFFF789FE19B0F0BD02201F
:101DD000FFF7C2FEFFF782FE0122D207514019B081
:101DE000F0BD009E002E61D1BC4EB04220D1BE4855
:101DF000844201D1002A08D0B648814209DB002D77
:101E000010DB1698294619B0F0BD0020B14919B071
:101E1000F0BD002D06DA01222946D207169851405E
:101E200019B0F0BDB14979440868496819B0F0BDEE
:101E3000A84FB84225D1002D1FDA002904D0B142A5
:101E400012D1002A09D018E0002A72D1A349E20F6A
:101E50000020D207114319B0F0BD0020E20F014667
:101E6000D207114319B0F0BDB14206DA2346002073
:101E70003946FEF785FC19B0F0BD1046214619B071
:101E8000F0BDB14212DA0126B607B54203D12346AE
:101E900010461946EFE3964EB54207D1261E05DBE4
:101EA0001046314600F0F0FB19B0F0BD67007F0826
:101EB0001646002A40D100290AD0884A914229D1E9
:101EC000002C0EDD002D1CDB0020114619B0F0BDEA
:101ED000022B16D0002C14D0012B12D1002C14DBB5
:101EE0000FE0002C28DA002D09DB012B03D00020A5
:101EF0007A4919B0F0BD00207E4919B0F0BD012B20
:101F000003D00020014619B0F0BD00200121C9070F
:101F100019B0F0BD6F4A91420ED1002C01DA002BAE
:101F200017D0022B06D00020C043FEF7E9FA19B003
:101F3000F0BD7AE20120F8E7E217521C94461A43FA
:101F400007D000220692634C62465B1E1A4307D0FC
:101F500009E00120FFF700FEFFF7CEFD19B0F0BD4C
:101F60000022614C0692644A90427DDD634B644AD4
:101F700098420ADD914202DC002D10DB25E0554835
:101F8000814202DB002D0ADC1FE0914202DA002DC3
:101F900005DB1AE04F4B994223DD002D15DD0220B1
:101FA000FFF7DAFDFFF7B0FD05460E4600224B4B6A
:101FB00021460698FEF730FA084671004908C00F1E
:101FC000C0070143284619B0F0BD0220FFF7C4FD49
:101FD000FFF7A4FD49004908E20FD207114319B0E9
:101FE000F0BD002230463946FEF708FA01220546C8
:101FF0000E46D243FEF73CFC424A434BFEF704FA3E
:102000002A463346FEF708FA0022394BFEF7FCF960
:1020100007462A463346019110461946FEF7FCF959
:102020003A46019BFEF7F8F90746032007912A4636
:10203000334640073549FEF7EFF901910890344ADD
:10204000324B38460799FEF7E7F907460291314AC5
:10205000314B28463146FEF7DFF93A46029BFEF740
:10206000CDF907460B4600E013E0024607910199BF
:102070000898FEF71FF900250E462846019B089A8E
:10208000FEF7BCF93A46079BFEF7BEF902460B463F
:102090008DE1012500202D05A94207DA35223046C1
:1020A0003946FEF7E5FB06463420C0430A151218F0
:1020B0000C48084F101803900803000B01463943E1
:1020C0000491164988422BDC00202DE0FFFF1F0001
:1020D000FFFF0F000000F03F0000E0FF0000F07F76
:1020E0000000404301FCFFFF0000F0BF2E0900008C
:1020F0000000E03F0000F0FF0000E0410000F0437E
:10210000FFFFEF3F555555555555D53F4715F73FFF
:10211000FE822B6544DF5DF80BAE543E8E980300C3
:10212000FE49884202DA01200F9007E000200F905C
:102130000398401C03900498401B04900499099153
:102140000F98F749C00079440D9008184368026859
:1021500030460999FEF752F90191F2490890794405
:102160000D9808184368026830460999FEF7A2F8EE
:1021700002460B4600203946FEF702FB07910A9003
:10218000019B089AFEF748F91090E7480F46002592
:102190007844006804990C904810012149070843CD
:1021A0000F99890440180121C90441180491DF499D
:1021B00079440D9808184368026804990C98FEF752
:1021C0001DF93246099BFEF71FF92A463B46FEF7EA
:1021D00023F90991064628463946049B0C9AFEF7D6
:1021E0001BF9019B089AFEF70FF93246099BFEF78F
:1021F00005F9079B0A9AFEF70FF90F91109A0090C4
:102200003B4610461946FEF707F906460246C848FF
:102210000B46079106217844FFF70AFC079B3246DC
:102220000191049010461946FEF7F6F8019B049AB6
:10223000FEF7F2F8019106463B4628461946109AE9
:10224000FEF738F80F9B009AFEF7E6F83246019B3E
:10225000FEF730F82A463B46019108901046194691
:10226000FEF7DAF802460B4607910A900020B149C2
:10227000FEF720F8019B089AFEF71CF80E462A4646
:10228000AC4B2846FEF7BAF8079B0A9AFEF7B6F859
:10229000019B089AFEF7B8F82A4609911290334636
:1022A00010463946FEF7B8F8019108903B46109A5F
:1022B00009991298FEF7B0F80746079133462A4667
:1022C0000F990098FEF7A8F83A46079BFDF7F2FF32
:1022D00007460B460246079101990898FDF7EAFF69
:1022E0000E462846019B089AFEF788F83A46079B57
:1022F000FEF78AF80746072007912A46334640072B
:102300008D49FEF789F8029000918C4A8A4B384635
:102310000799FEF781F8074601912A463346884817
:102320008849FEF779F83A46019BFDF7C3FF864AD4
:1023300005467A440D981018436802682846FDF750
:10234000B9FF089001910398FEF7DAF80B91074660
:10235000019B089A00990298FDF7ACFF7B4A05465D
:102360007A440D981018436802682846FDF7A2FFCA
:102370003A460B9BFDF79EFF00250E463A4628463F
:102380000B9BFEF73BF8724A07467A440D981018EB
:10239000436802683846FEF731F8009B029AFEF760
:1023A0002DF8019B089AFEF72FF802460B46179965
:1023B000002002900F461698FEF72EF80391009029
:1023C0003B46029A17991698FEF718F82A463346A4
:1023D000FEF722F8039B009AFDF76CFF07910C9023
:1023E0002A46334639460298FEF716F806460F4647
:1023F000079B0C9AFDF75EFF564A0D46914220DB83
:102400005242AA18024310D132463B46FDF7F6FF6E
:1024100003910890504A514B07990C98FDF74AFFD9
:10242000039B089AFEF73AFA1ED20220FFF794FBAC
:10243000FFF76AFB49004908E20FD207114319B0C0
:10244000F0BD6A00464B52089A420DD3454AAA187D
:10245000024300D0B9E532463B46FDF7CFFF079B6C
:102460000C9AFEF71BFAF5D96A00002352083E4881
:102470000393110D3D4B09189A4223DD01221205E9
:10248000491CCA4052195100490D0818384979446D
:10249000096813468C463749C1408B43120301211A
:1024A000120B090551181422101AC1400391002D76
:1024B00001DA48420390624630463946FDF79EFFF6
:1024C00006460F4632463B4607990C98FDF7F2FE4A
:1024D00000252A46284B28460B91FDF79DFF0191C8
:1024E0000890264A264B28460B99FDF795FF029146
:1024F000009032463B4628460B99FDF77FFF079B2D
:102500000C9AFDF781FF1F4A1F4BFDF785FF029BC9
:10251000009AFDF7CFFE07460B4637E07AB60B0070
:10252000860500006E050000C40500001C050000C3
:10253000E60400000000084009C7EE3FFD033ADC56
:10254000F5015B14E02F3EBEBA0300007C030000DF
:102550005203000000009040FE822B654715973C17
:1025600000CC904000346F3F01FCFFFF0000E03FD3
:10257000C6020000FFFF0F00432EE63F396CA80C97
:10258000615C20BEEF39FAFE422EE63F024607911B
:1025900001990898FDF78EFE0E460546019B089AA4
:1025A000FDF72CFF3A46079BFDF72EFF07912A46C1
:1025B00033460C9010461946FDF72EFF074602469B
:1025C0002F480B460B9105217844FFF731FA3A4624
:1025D0000B9BFDF721FF2A463346FDF715FF074603
:1025E000099128463146079B0C9AFDF715FF079B7A
:1025F0000C9AFDF75FFE01230191089000229B07D2
:1026000038460999FDF7FAFE07910A903A4628469E
:102610003146099BFDF700FF079B0A9AFEF7B0F8C9
:10262000019B089AFDF7EAFE2A463346FDF7E6FECF
:102630000022144BFDF7E8FE054603980E46000500
:1026400081190915002911DC28463146039AFEF745
:102650000FF9FFF7D7F9042801D1FFF75FFA2846F1
:102660003146039AFEF704F9054600E031180B469F
:102670002A4621460698FDF7CFFE19B0F0BD0000AE
:10268000640100000000F03FF8B506460C46FEF776
:1026900044F9051E0F4600D00120014349000B48B4
:1026A0004908411AC90F0DD0002E01D0012100E0C8
:1026B00000210C4361004908401AC00F02D10120DB
:1026C000FFF74AFA28463946F8BD00000000F07FBF
:1026D000000000000000F03F000000000000F83F94
:1026E00000000000000000000000004003B8E23FCE
:1026F000000000000000000006D0CF43EBFD4C3E80
:10270000033333333333E33FFFAB6FDBB66DDB3F74
:102710004D268F515555D53F01411DA96074D13FBC
:1027200065DBC9934A86CD3FEF4E454A287ECA3FB6
:102730003E5555555555C53F93BDBE166CC166BF38
:102740002CDE25AF6A56113FF16BD2C541BDBBBE31
:10275000D0A4BE726937663E000000000000000091
:10276000010500000000000308000000800C0000CC
:10277000200101000807C70002000000C700000098
:102780000100000000000000000000000400000044
:1027900018000000003000000400000018000000D5
:1027A00000300000C82700000000202020000000AA
:1027B000301B0000E82700002000202088040000D3
:1027C000481B0000000000000000000000000000A6
:1027D0009A99993E00002041000070414260E53B1B
:0827E000508D173D00000000C0
:04000005000000C136
:00000001FF
